:020000040800F2
:1000000070050020C10100081B280008C71B00085C
:10001000192800087D090008FD2B000800000000D9
:100020000000000000000000000000001F28000881
:100030007F090008000000001D2800082128000892
:10004000DB010008DB010008DB010008DB01000820
:10005000DB010008DB010008DB010008DB01000810
:10006000DB010008DB010008DB010008DB01000800
:10007000DB010008DB010008DB010008DB010008F0
:10008000DB010008DB010008DB010008DB010008E0
:10009000DB010008DB010008DB010008DB010008D0
:1000A000DB010008DB010008DB010008DB010008C0
:1000B000DB010008DB010008DB010008C91B0008A8
:1000C000DB010008DB010008DB010008DB010008A0
:1000D000DB010008DB010008DB010008DB01000890
:1000E000DB010008DB010008DB010008DB01000880
:1000F000DB010008DB010008DB010008DB01000870
:10010000DB010008DB010008DB010008DB0100085F
:10011000DB010008DB010008DB010008DB0100084F
:10012000DB010008DB010008DB010008DB0100083F
:10013000DB010008DB010008DB010008DB0100082F
:10014000DB010008DB010008DB010008DB0100081F
:10015000DB010008DB010008DB010008DB0100080F
:10016000DB010008DB010008DB010008DB010008FF
:10017000DB010008DB010008DB01000800000000D3
:10018000DB010008DB010008DB010008DB010008DF
:10019000DB010008DB010008DB010008DB010008CF
:1001A000DB010008DB010008DB010008DFF80CD0F0
:1001B00000F082F800480047D530000870050020A4
:1001C0000648804706480047FEE7FEE7FEE7FEE7F1
:1001D000FEE7FEE7FEE7FEE7FEE7FEE799280008F8
:1001E000AD0100082DE9F05F0546002092469B46D0
:1001F00088460646814640241BE02846414647463D
:10020000224600F048F853465A46C01A914110D38E
:1002100011461846224600F02FF82D1A67EB010808
:100220004F4622460120002100F026F817EB000976
:100230004E41201EA4F10104DFDC484631462A4627
:100240004346BDE8F09FD2B201E000F8012B491E01
:10025000FBD270470022F6E710B513460A46044663
:100260001946FFF7F0FF204610BD421C10F8011B95
:100270000029FBD1801A7047202A04DB203A00FABB
:1002800002F1002070479140C2F1200320FA03F3ED
:10029000194390407047202A04DB203A21FA02F0EB
:1002A0000021704721FA02F3D040C2F120029140B0
:1002B0000843194670470000064C074D06E0E06809
:1002C00040F0010394E8070098471034AC42F6D39D
:1002D000FFF770FF90310008B031000838B50122F7
:1002E0002021394800F062FCD02000F0A7FA044633
:1002F000024636A13A4802F083FC3948FFF7B5FFC1
:1003000082B24FF480552B463549364801F0FEFB4A
:10031000602C03D0BDE8384000F032BBB621E020AD
:1003200000F016FB00F0ACFAC007FBD100F086F835
:10033000A02000F0FEFA082000F0A9FA602000F0EA
:10034000E9FA082000F0D7FA012000F0BEFAF42004
:1003500000F074FA0446F22000F070FA44EA002437
:10036000224621A11E4802F04BFC1D48FFF77DFFED
:1003700082B22B461A491B4801F0C8FB200A4007ED
:1003800001D020A000E020A014F01C0F009001D0AC
:100390001CA300E01CA314F0E00F01D019A200E0A0
:1003A00019A21AA10E4802F02BFC0D48FFF75DFFC1
:1003B00082B22B460A490B4801F0A8FBBDE8384041
:1003C000032000F073BA0000000002400D0A0D0A7D
:1003D00049443A203078253032580D0A0000000098
:1003E000E4000020A40000204D6561737572656D06
:1003F000656E7473207374617475733A202530349C
:10040000580D0A004F4E00004F46460054656D706F
:10041000657261747572653A2025730D0A507265B4
:1004200073737572653A2025730D0A48756D69649A
:100430006974793A2025730D0A00000070B5B4493B
:10044000882000F018FAB24CB2A1B648228802F017
:10045000D7FBB448FFF709FF82B24FF480552B4613
:10046000B049B14801F052FBA11C8A2000F0FEF90E
:10047000B4F90220ADA1AB4802F0C2FBA948FFF7D6
:10048000F4FE82B22B46A749A74801F03FFB211D8D
:100490008C2000F0EBF9B4F90420A8A1A14802F0E7
:1004A000AFFBA048FFF7E1FE82B22B469D499E4874
:1004B00001F02CFBA11D8E2000F0DDF9E288A3A144
:1004C000984802F09DFB9748FFF7CFFE82B22B467B
:1004D0009449954801F01AFB04F10801902000F0BE
:1004E000C5F9B4F908209DA18E4802F089FB8D481A
:1004F000FFF7BBFE82B22B468A498B4801F006FB10
:1005000004F10A01922000F0B1F9B4F90A2097A190
:10051000844802F075FB8348FFF7A7FE82B22B46A2
:100520008049814801F0F2FA04F10C01942000F0B6
:100530009DF9B4F90C2091A17A4802F061FB794849
:10054000FFF793FE82B22B467649774801F0DEFA38
:1005500004F10E01962000F089F9B4F90E208BA168
:10056000704802F04DFB6F48FFF77FFE82B22B46CA
:100570006C496D4801F0CAFA04F11001982000F0AE
:1005800075F9B4F9102085A1664802F039FB654879
:10059000FFF76BFE82B22B466249634801F0B6FA60
:1005A00004F112019A2000F061F9B4F912207FA140
:1005B0005C4802F025FB5B48FFF757FE82B22B46F2
:1005C0005849594801F0A2FA04F114019C2000F0A6
:1005D0004DF9B4F9142079A1524802F011FB5148A9
:1005E000FFF743FE82B22B464E494F4801F08EFA88
:1005F00004F116019E2000F039F9B4F9162073A118
:10060000484802F0FDFA4748FFF72FFE82B22B461A
:100610004449454801F07AFAA12000F00FF920760C
:1006200002466EA13F4802F0EBFA3E48FFF71DFE7E
:1006300082B22B463B493C4801F068FA04F11A01AA
:10064000E12000F013F9B4F91A2068A1354802F04E
:10065000D7FA3448FFF709FE82B22B4631493248B7
:1006600001F054FAE32000F0E9F82077024663A194
:100670002C4802F0C5FA2B48FFF7F7FD82B22B4653
:100680002849294801F042FAE42000F0D7F806464C
:10069000E52000F0D3F866F31F10E08302465BA16B
:1006A000204802F0ADFA1F48FFF7DFFD82B22B466B
:1006B0001C491D4801F02AFAE62000F0BFF80601A7
:1006C000E52000F0BBF846EA1012228453A1154839
:1006D00002F096FA1348FFF7C8FD82B22B46114983
:1006E000114801F013FAE72000F0A8F884F822007E
:1006F000227F4EA10B4802F083FA0A48FFF7B5FDAE
:100700002B46BDE8704082B20649074801F0FEB9A9
:10071000480100204449475F54313A2025750D0AAD
:1007200000000000E4000020A40000204449475FCE
:1007300054323A2025640D0A000000004449475F06
:1007400054333A2025640D0A000000004449475FF5
:1007500050313A2025750D0A000000004449475FDA
:1007600050323A2025640D0A000000004449475FDA
:1007700050333A2025640D0A000000004449475FC9
:1007800050343A2025640D0A000000004449475FB8
:1007900050353A2025640D0A000000004449475FA7
:1007A00050363A2025640D0A000000004449475F96
:1007B00050373A2025640D0A000000004449475F85
:1007C00050383A2025640D0A000000004449475F74
:1007D00050393A2025640D0A000000004449475F63
:1007E00048313A2025640D0A000000004449475F63
:1007F00048323A2025640D0A000000004449475F52
:1008000048333A2025640D0A000000004449475F40
:1008100048343A2025640D0A000000004449475F2F
:1008200048353A2025640D0A000000004449475F1E
:1008300048363A2025640D0A000000001FB5024624
:1008400000208DF80C004FF48034012303A88DE8BC
:100850001900EC21044800F0E5FB08B100F090F825
:100860009DF80C0004B010BD100000200A4601469F
:10087000EC2001F059BF0A460146EC2001F054BFBC
:1008800010B5F320FFF7DAFF00F0090010BD10B536
:100890000446F520FFF7D2FF04F01C0120F01C00F5
:1008A0000143BDE81040F52000F052B810B50446F1
:1008B000F420FFF7C3FF04F0030120F0030001431D
:1008C000BDE81040F42000F043B810B50446F22013
:1008D000FFF7B4FF20F0070004F007010143F22006
:1008E00000F036F8F420FFF7A9FF0146BDE81040FC
:1008F000F42000F02DB810B50446F420FFF79EFF59
:1009000004F01C0120F01C000143BDE81040F4205D
:1009100000F01EB810B50446F420FFF78FFF04F076
:10092000E00120F0E0000143BDE81040F42000F0B9
:100930000FB810B50446F520FFF780FF04F0E00182
:1009400020F0E0000143BDE81040F520AFF3008047
:100950001FB50B4602468DF80C304FF4803401234E
:1009600003A88DE81900EC21034800F057FC00288B
:1009700001D000F005F81FBD10000020FEE7704711
:1009800000222021014800F011B9000000000240BF
:1009900090F83510022903D080214165012070476D
:1009A000052180F835100068016821F0010101601F
:1009B0000020704790F835007047000070B504467D
:1009C00000F0FAF80546601C02D0044800780444A0
:1009D00000F0F2F8401BA042FAD370BD00000020E6
:1009E0002DE9F84FDFF890B100224FF001084FF0E9
:1009F000030A4FF00F090BF1040E00BF0B6808FA51
:100A000002F42340A3426ED14D68022D01D0122D75
:100A10000ED1D50800EB850CDCF820505607F70EF8
:100A200009FA07F6B5430E69BE402E43CCF82060A4
:100A3000066855000F790AFA05FC07F0030726EA55
:100A40000C06AF40374307604E68012E05D0022EDA
:100A500003D0112E01D0122E0ED18768CE6827EA5E
:100A60000C07AE403E4386604668A6430C79C4F34B
:100A70000014944034434460C4688E6824EA0C0433
:100A8000AE402643C6604C68E4006FD53B4C2568F9
:100A900045F480452560246822F0030504F4804471
:100AA0000094374C2E19D6F8084895072F0F09FAED
:100AB00007F5AC43334DA84201D100252EE0324D5D
:100AC000A84201D1012529E0304DA84201D10225DB
:100AD00024E02F4DA84201D103251FE02D4DA8424F
:100AE00002D104251AE041E02B4DA84201D1052591
:100AF00014E02A4DA84201D106250FE0284DA84256
:100B000001D107250AE0274DA84201D1082505E0BB
:100B1000254DA84201D1092500E00A25BD40254305
:100B2000C6F80858DBF800405D464E689C43F60363
:100B300000D51C432C60DEF8004075464E689C438F
:100B4000B60300D51C432C600B4D08352C684E684D
:100B50009C43F60200D51C432C60074D0C352C68D5
:100B60004E689C43B60200D51C432C60521C102AD0
:100B7000FFF444AFBDE8F88F003C01404438024028
:100B80000030014000000240000402400008024022
:100B9000000C024000100240001402400018024005
:100BA000001C024000200240002402400AB1816182
:100BB00070470904FBE700000148806870470000A7
:100BC0000000002090F83D20202A01D0022070472C
:100BD000242280F83D200268136823F0010313608B
:100BE0000268536A23F0100353620268536A0B438E
:100BF000536201680A6842F001020A60202180F80D
:100C00003D100020704790F83D20202A01D002209E
:100C10007047242280F83D200268136823F0010306
:100C2000136003685A6A22F00F020A4391B25962B4
:100C300001680A6842F001020A60202180F83D1034
:100C400000207047704770472DE9F041026800248A
:100C50005168C56A90F83E3090F83D60102B1CD06A
:100C6000402B1AD0036C002B7ED053694FF028051F
:100C7000DB439F0779D4CF43BF0576D4016C01B124
:100C8000946990F83D3000219D430B467FD0C91EEA
:100C9000516180F83C30BDE8F081946953694FF4AC
:100CA0002A07DB435FEAC37C4FF02A4604D0BD42EB
:100CB000F1D0B542EFD010E0CD43AD050DD4C16AFF
:100CC000B94201D1012103E0C16AB14201D1082139
:100CD000C162BDE8F04101F077BA1D0716D4CD43DB
:100CE000AD0513D4416CC9B21161416B11B9826B6E
:100CF000002AD0D0C96B19B9816BC96B0029CAD041
:100D00000068416841F400614160C4E79D0706D472
:100D1000CD43AD0503D4BDE8F04101F0C9B9E443CA
:100D2000526864074FEA025215D4002AB3DB1A0650
:100D300008D4CA43520505D45A0705D5BDE8F04189
:100D400001F034B95A07A6D4C9438905A3D4BDE834
:100D5000F04101F0E9B8002A9DDB5A060CD4CA43E1
:100D6000520509D45A0702E00FE023E00FE005D551
:100D7000BDE8F04101F08EB85A078CD4C94389050B
:100D800089D4BDE8F04101F01CB894696DE755685D
:100D900025F480655560E243540700D50121120611
:100DA00001D5828900E0028B80F83C3092B2FFF7D7
:100DB0004AFF70E7DC0606D4CC43A40503D4BDE8A3
:100DC000F04101F005BB212E27D0292E25D05C064D
:100DD00055D4CC43640552D45B0752D590F83D10EE
:100DE000438D002B91D01269436A1A70426A521CDB
:100DF0004262428D521E4285428D002A85D12A29A7
:100E0000D7D101684A6822F480624A6022210163D6
:100E100080F83D5000F0D6FA3DE71C0623D4CC43C1
:100E2000640520D45B0720D590F83D10438D002B3E
:100E3000BFD0436A1B781361426A521C4262428DE2
:100E4000521E4285428D002AB3D12929B1D10168B1
:100E50004A6822F480624A602121016380F83D5093
:100E600000F0B1FA17E75B07A3D4C9438905A0D402
:100E7000418D00299DD0416A097811610AE05B0724
:100E800097D4C943890594D4418D002991D0116923
:100E9000426A1170416A491C4162418D491E418577
:100EA000F9E6704770B504001BD094F83D000025AA
:100EB00020B984F83C50204600F048FA242084F8F9
:100EC0003D002068016821F00101016000F0AEFBE7
:100ED0004D4A6168914201D84C4900E04C49884232
:100EE00001D2012070BD4B492368B0FBF1F15E686F
:100EF00026F03F060E435E606368934206D94FF4C6
:100F0000967359434FF47A73B1FBF3F12368491C8C
:100F10001E6A26F03F06314319626168914210D87B
:100F20004900401EB0FBF1F2521CC2F30B02042A2E
:100F300001D2042022E0B0FBF1F0401CC0F30B0012
:100F40001CE0A368F3B301EBC10202EB0116421EE1
:100F5000B2FBF6F2521C42F48042120549D093B320
:100F600001EBC10202EB0111401EB0FBF1F0401C8D
:100F7000C0F30B0040F4804040F400402168CA698F
:100F80004CF6FF739A431043C861D4E90701084344
:100F900021680A6822F0C00210430860D4E9030106
:100FA00001432068826848F2FF339A43114381600D
:100FB000D4E9050108432168CA6822F0FF02104302
:100FC000C86001E00EE016E02068016841F0010110
:100FD00001602564202084F83D00256384F83E509C
:100FE000002070BD01EB4106421EB2FBF6F2521C1E
:100FF000B3E70120C2E701EB4101401EB0FBF1F075
:10100000401CC0F30B00B7E7A086010080841E00DF
:1010100000093D0040420F0070477047704770471D
:10102000704700002DE9FF4F83B09A46DDE9119724
:1010300093460446DDF84080FFF7BEFD054694F870
:101040003D00202870D119230122714920460095C6
:1010500001F092FA0028F5D194F83C00012863D001
:10106000012084F83C0020680168C90703D10168A9
:1010700041F0010101602068016821F40061016014
:10108000222084F83D00402084F83E00002626649B
:10109000C4F82480A4F82A90608D20855D48E06221
:1010A000CDE9007553465A462046049901F0D3F81D
:1010B00000287CD1208DD0B1012821D002282068C1
:1010C00024D0416980690090208D032869D80128C7
:1010D0002BD0514902283B464FF00002009559D0D1
:1010E0008846204601F048FA002860D13CE020689C
:1010F000416981690091016841F40071016077E004
:101100002068016821F480610160F0E7016821F442
:10111000806101602068016841F40061016020681D
:1011200041698069009063E06FE02A4639462046B5
:1011300001F0A1FA98BB20680069616A08704EE06E
:101140002068016841F40071016020680069616AEB
:101150000870606A401C6062218D491E2185618D86
:10116000491E6185216838E02068016821F48061AA
:10117000016020680069616A0870606A401C6062F2
:10118000208D401E2085608D401E60853B460022DC
:1011900041460095204601F0EFF900B9D0E706E09E
:1011A000FFE72A463946204601F065FA18B10120CA
:1011B00007B0BDE8F08F20680069616A0870606A56
:1011C000401C6062218D491E2185618D491E61850B
:1011D00021684A69D24352070AD409690170606ADA
:1011E000401C6062208D401E2085608D401E608501
:1011F000208D00287FF468AF202084F83D0084F81B
:101200003E6084F83C600020D2E70220D0E7000076
:10121000020010000000FFFF040001002DE9FF4F55
:1012200083B09A46DDE9119793460446DDF8408085
:10123000FFF7C2FC054694F83D0020287FD1192312
:10124000012240492046009501F096F9002876D108
:1012500094F83C00012872D0012084F83C002068FA
:101260000168C90703D1016841F0010101602068EC
:10127000016821F400610160212084F83D004020D4
:1012800084F83E0000262664C4F82480A4F82A903E
:10129000608D20852C48E062CDE9007553465A46A2
:1012A0002046049901F04AF870B930E02A463946E0
:1012B000204601F013FA58B1206C042804D12068AC
:1012C000016841F400710160012007B0BDE8F08FB2
:1012D000606A216800780861606A401C6062218D44
:1012E000491E89B22185628D521E6285226853692A
:1012F000DB435B070BD469B100781061606A401C66
:101300006062208D401E2085608D401E6085208D8E
:101310000028CBD12A463946204601F007F900289B
:10132000CAD154F83D0B016841F4007101602020DE
:1013300004F81E09E67766770020C6E7FFE702207B
:10134000C3E70000020010000000FFFF10B586B0E8
:10135000044614216846FEF77DFF1749206888423D
:1013600028D11648016841F0020101600068694611
:1013700000F002000590C020009012200190012092
:10138000029003200390042004900D48FFF728FBEF
:101390000A481030016841F4001101600068002221
:1013A00000F40010059011461F2000F075F81F2072
:1013B00000F064F806B010BD005400403038024020
:1013C0000004024070477047024881680278114467
:1013D00081607047000000200B4810B5016841F49F
:1013E00000710160016841F480610160016841F4AD
:1013F00080710160032000F06FF8002000F006F813
:1014000000F024F8002010BD003C024070B50D4DE6
:1014100004464FF47A712878B1FBF0F00A49096864
:10142000B1FBF0F000F0E2FA48B9102C07D200222C
:101430002146501E00F030F800206C6070BD012085
:1014400070BD0000000000200C0000200A4808B514
:10145000016841F480410160006800F48040009020
:101460000548001F016841F080510160006800F0EC
:101470008050009008BD000044380240002809DB7D
:1014800000F01F02012191404009800000F1E0209E
:10149000C0F8001170470000F0B40E4B1B680C46FA
:1014A000C3F30223C3F10705042D00D90425191D38
:1014B000072901D2002300E0DB1E012606FA05F110
:1014C000491E214099409E40761E16403143F0BC93
:1014D00001F0AABB0CED00E0064900F00702086825
:1014E0004FF6FF03184040EA0220034A1043086009
:1014F000704700000CED00E00000FA052DE9F04710
:101500000E46050065D0DFF81481D8F80000F7B268
:1015100000F00F00B04207D288F80070D8F8000041
:1015200000F00F00B04254D128683D4C810712D51D
:10153000400703D5206840F4E05020602878000779
:1015400003D5206840F4604020602068A96820F03E
:10155000F000084320602878C0072DD03049686823
:101560000839012812D0022813D0032811D00968A5
:10157000890700292DDA216821F003010143216048
:10158000FFF71AFB814641F2883A0EE009688903A9
:10159000EFE709688901ECE7FFF70EFBA0EB090113
:1015A000514502D90320BDE8F0872068696800F042
:1015B0000C00B0EB810FEFD1D8F80010404601F0DD
:1015C0000F01B14207D90770006800F00F00B04268
:1015D00001D00120E7E72878400705D52068E968B1
:1015E00020F4E050084320602878000706D52068E2
:1015F000296920F4604040EAC100206000F036F81C
:101600002168084AC1F30311515CC84006490860CB
:101610000020FFF7FBFE0020C5E70000003C024071
:1016200008380240783100080C00002004480549C1
:1016300000680968044AC1F38221515CC8407047C0
:101640000C00002008380240883100080448054991
:1016500000680968044AC1F34231515CC8407047D0
:101660000C0000200838024088310008154810B5E9
:10167000006810F00C02144813D01449042A0FD04B
:10168000082A0ED10F4C241F2268236802F03F0263
:101690005B0207D52068C0F38810A0FB010106E0BB
:1016A000084610BD2168C1F38811A1FB0001002389
:1016B000FEF798FD2168C1F30141491C4900B0FBC8
:1016C000F1F010BD083802400024F40040787D019C
:1016D0002DE9F84F050076D02878DFF8F8B2BE4C37
:1016E000C00749D0DBF800105846C1F38101012939
:1016F00008D00068C0F3810002280AD1201D0068CC
:10170000400206D52068800336D568680028E2D0FC
:1017100032E06868B0F5803F10D0B0F5A02F2068A7
:1017200010D020F480302060206820F480202060D9
:101730006868A0B1FFF740FA06460CE0206840F464
:101740008030F4E740F480202060F7E7FFF734FAB8
:10175000801B642873D820688003F7D50CE0FFF75E
:101760002BFA064605E000BFFFF726FA801B642827
:10177000F0D820688003F7D42878DFF860828007EB
:101780004FF000093ED5DBF80010584611F00C0F61
:1017900009D00068C0F3810002280BD18D48001FDA
:1017A0000068400206D42068800715D5E868012843
:1017B00009D111E0E868B8B10120C8F80000FFF7CE
:1017C000FBF9064605E002E1FFF7F6F9801B022867
:1017D000C0D820688007F7D52068296920F0F80074
:1017E00040EAC10020600DE0C8F80090FFF7E4F97E
:1017F000064604E0FFF7E0F9801B02281FD82068A6
:101800008007F7D42878000722D5724E744869699A
:101810006C3671B101210160FFF7CEF9074604E093
:10182000FFF7CAF9C01B022809D830688007F7D52E
:101830000EE0C0F80090FFF7BFF9074605E083E02F
:10184000FFF7BAF9C01B02287ED830688007F7D4AA
:101850002878400768D5DFF87CA100270AF1380A0C
:10186000DAF80000C0000BD4DAF8001041F0805123
:10187000CAF80010DAF80000012700F0805000904C
:10188000584E3068C00510D4306840F48070306025
:10189000FFF792F9009005E0FFF78EF90099401AE2
:1018A000022851D83068C005F6D54A4EA868683677
:1018B00001280FD00528306810D020F001003060DA
:1018C000306820F004003060A868B8B1FFF774F900
:1018D00000900FE0306840F00100F4E740F00400B1
:1018E0003060F7E7FFF768F90099411A41F2883054
:1018F000814264D830688007F4D50EE0FFF75CF9C8
:10190000009007E0FFF758F90099411A41F288303A
:10191000814254D830688007F4D42FB1DAF800102F
:1019200021F08051CAF80010A869C0B3DBF800109C
:10193000C1F3810102294AD00228484607D0C8F8DD
:101940006000FFF739F900E039E005463AE0474624
:10195000C8F86000FFF730F9064604E0FFF72CF9FD
:10196000801B02282BD820688001F7D4D5E9070115
:101970000843A96A1C4A490802EB01416A6A41EA24
:101980008211084395F82C1040EA01611148001FAC
:10199000016001203866FFF70FF9054605E014E005
:1019A000FFF70AF9401B022809D820688001F7D503
:1019B0000BE000BFFFF700F9401B022802D903200B
:1019C000BDE8F88F20688001F4D40020F8E70120FA
:1019D000F6E70000083802400038024000004742A5
:1019E000800E4742007000400000FFFF10B5401E0F
:1019F000B0F1807F01D3012010BD4FF0E024606181
:101A00000F21601701F010F90020A061072020616C
:101A1000002010BD70B5040004D094F839000025F2
:101A200010B106E0012070BD84F83850204600F067
:101A300023F8242084F839002068C16821F400517B
:101A4000C160204600F052FF2068016921F49041F6
:101A500001612068416921F02A0141612068C16863
:101A600041F40051C160E563202084F8390084F816
:101A70003A00002070BD0000F0B587B00446142184
:101A80006846FEF7E7FB1D4F22681D49022301242B
:101A9000032507261B48BA4213D1194A1432176886
:101AA00047F010071760126802F0100205920A68EA
:101AB00042F001020A60096801F001010591690222
:101AC00015E0114FBA4217D10D4A1032176847F48A
:101AD00000371760126802F4003205920A6842F07B
:101AE00001020A60096801F0010105910C218DE8ED
:101AF0007A006946FEF774FF07B0F0BD00100140A0
:101B00003038024000000240004400402DE9F84314
:101B1000044690F839001F4616460D46202850D13D
:101B2000A5B19EB194F8380001284AD0012084F86C
:101B300038004FF00008C4F83C80212084F83900B8
:101B4000FFF73AF8A6848146E68426E00120BDE846
:101B5000F883E08C401EE084A0684B46B0F5805FBF
:101B60004FF000024FF080012046009703D001F0B3
:101B700013F8E8B90DE001F00FF8C8B9288821681A
:101B8000C0F308004860206908B16D1C05E0AD1C79
:101B900003E0216815F8010B4860E08C0028D8D1DB
:101BA0004B46002240212046009700F0F5FF08B187
:101BB0000320CCE7202084F8390084F83880002006
:101BC000C5E70220C3E7FEE70148FFF73DB8000084
:101BD0001000002010B5806B90F83D30426B002162
:101BE000D163826BD1630268146824F4806414604A
:101BF0004185426B1165826B11650268146824F09F
:101C00000104146090F83D202024602A0BD0282283
:101C100032EA03030FD080F83D4080F83E1000BF49
:101C2000FFF73FF910BD80F83D4080F83E10016499
:101C3000FFF708F810BD03681C6844F001041C603D
:101C400003681C6844F480641C60016380F83D20D4
:101C5000E6E7000070B5044690F83D0094F83E10A9
:101C6000102906D1222804D121680A6822F40062D2
:101C70000A60282131EA00024FF000054FF02006EB
:101C800026D021684968090503D4602801D084F86A
:101C90003D60256384F83E5020684168090537D5CA
:101CA000416821F400614160606B90F8352037494C
:101CB000012A11D00165606BFEF76AFE38B3206817
:101CC000016821F00101016084F83D60606B1CE057
:101CD000256384F83D10DFE7A06B0165A06BFEF77C
:101CE00057FEA0B120684169C943490605D400697F
:101CF000616A0870606A401C60622068016821F0B7
:101D00000101016084F83D60A06B016D884710E01F
:101D100094F83D10602923D04169C943490605D490
:101D20000069616A0870606A401C60622046FFF7C3
:101D3000B8F894F83D00216C490710D528280ED139
:101D40002068416821F4E06141601148E062256348
:101D500084F83D6084F83E502046FFF75DF970BD81
:101D600084F83D6025644169C943490605D400698A
:101D7000616A0870606A401C60622068016821F036
:101D8000010101602046FEF75DFFD2E7D51B000888
:101D90000000FFFF01684A69D24352050FD46FF477
:101DA00080624A61002140F8301F20224273817313
:101DB000026942F0040202610173012070470020B1
:101DC000704710B5C26A438D0168042B06D0438D5D
:101DD000032B08D0438D022B1DD012E04A6822F459
:101DE00080624A600CE04B6823F480634B60042AF5
:101DF00006D0022A04D001680A6822F480620A60D0
:101E000001680969426A1170416A491C4162418D49
:101E1000491E418510BD012A30D0102A2ED0042A37
:101E200030D0022A2ED00A6842F400720A6001689B
:101E30000969426A1170416A491C4162428D521E11
:101E40004285026812690A70416A491C4162418DEB
:101E5000491E418501684A6822F440724A60202187
:101E600080F83D1090F83E200021402A80F83E1076
:101E70000CD012210163FFF7D0F810BD0A6822F4DC
:101E80008062D3E70A6842F48062CFE70163FFF71C
:101E9000C6F810BD10B590F83D10222914D1418D1F
:101EA000032912D901680969426A1170416A491C03
:101EB0004162418D491E4185418D032904D100684D
:101EC000416821F48061416010BDC26A022AFBD0E2
:101ED000012901D00029F7D101680A6822F4806243
:101EE0000A6001684A6822F4E0624A600168096990
:101EF000426A1170416A491C4162418D491E418507
:101F0000202180F83D1090F83E200021402A80F8E2
:101F10003E1004D012210163FFF77FF810BD01636A
:101F2000FFF77DF810BD000010B5C26A90F83D10B3
:101F300021290BD1418D51B1416A026809781161A3
:101F4000416A491C4162418D491E418510BD2023D3
:101F50000021082A13D0202A11D012F5803F0ED07C
:101F60000268546824F4E06454601122026380F82B
:101F70003E1080F83D3000BFFFF750F810BD0268FA
:101F8000546824F4E06454600268146844F40074F3
:101F90001460016380F83D3090F83E2080F83E10D8
:101FA000402AE9D1FFF73CF810BD000010B590F8C9
:101FB0003D1090F83E30C26A048D64B1212903D0EF
:101FC000402B21D122291FD1418DA1B390F83E1081
:101FD000402937D046E02129F2D120230021082AC8
:101FE00013D0202A11D012F5803F0ED00268546819
:101FF00024F4E06454601122026380F83E1080F8FB
:102000003D3000BFFFF70AF810BD0268546824F4A1
:10201000E06454600268146844F40074146001635E
:1020200080F83D3090F83E2080F83E10402AE9D1FB
:10203000FEF7F6FF10BDFFE70068416821F48061FC
:102040004160F7E7016DC1B1016D012922D0016D39
:102050000229EFD190F83D10222923D090F83D10AD
:102060002129E7D1416A026809781161416A491C56
:102070004162418D491E4185DCE7C16C0129816CBB
:1020800002D0C1F3072107E00268C9B21161016DF6
:10209000891C05E0816CC9B202681161016D491C9F
:1020A0000165C7E70068016841F480710160C1E71C
:1020B00078B590F83E50C26A036B90F83D600024FA
:1020C0000168222E7AD1066D0EB9402D76D0056DAD
:1020D0001DB90569B5F5404F09D0458D05B3468D4D
:1020E000384D012E0ED0438D022B3AD05DE04A6967
:1020F0008A6900920A6842F480720A60016D491C84
:10210000016578BDAA4213D10A6822F480620A6090
:1021100001684A68120503D50A6822F4806216E055
:102120004A698A6900920A6842F400720A6039E0DA
:10213000082A10D0202A0ED0122B0AD0042A03D04D
:10214000022A01D0102AE7D10A6842F480620A60AC
:1021500024E0012AE0D00A6822F480620A60016863
:10216000DEE7042A21D0022A1FD0102A1DD00B68D6
:1021700023F480630B6001680B6843F400630B6019
:1021800001684B681B0509D5AA4212D0012A10D05C
:10219000082A0ED0102A0CD0202A0AD001684A69D9
:1021A00089690091046578BD08E00B6843F4806399
:1021B000E5E74A6842F480524A60EFE74869886977
:1021C0000090F0E70000FFFF90F83E10402910D08B
:1021D0000169B1F5804F19D0016DB1B3016D0129CD
:1021E00010D1416C5FF0F10201F4407142EAD1116B
:1021F00006E0016D0029416C05D0C9B241F0010132
:1022000000680161704701F0FE01F9E790F83D10A8
:102210002129416C07D0C9B241F001010268116166
:10222000416B31B902E001F0FE01F7E7826B002A51
:10223000E8D0C96B19B9816BC96B0029E2D000687D
:10224000416841F4006141607047FFE7416CF02252
:1022500001F44071CAE72DE9F84F04460068894649
:102260000B9D01689846174641F480610160206823
:10227000016841F48071016000954FF0011A00225D
:10228000514620460A9B00F077F9002853D1216877
:1022900009F0FE0008610AF1010B2B465946204661
:1022A0000A9A00F09DF9F0BB2068416980690090AE
:1022B0002A4620460A9900F011FA40B1206C042801
:1022C00039D12068016841F40071016033E0FEB249
:1022D000B8F1010F09D02168380A08612A46204662
:1022E0000A9900F0FBF90028E8D1206806612A4627
:1022F00020460A9900F0F2F90028DFD12068016831
:1023000041F48071016000950022514620460A9BED
:1023100000F032F938B9216809F0FF0040F00100FF
:1023200008612B4600E006E0594620460A9A00F074
:1023300057F9002800D00120BDE8F88F2DE9F843B7
:10234000044600680D46DDE9089701689846164680
:1023500041F4807101604B4600224FF0011120468C
:10236000009700F009F9E0B9216805F0FE00086166
:102370003B464A461549204600F032F988B92068A4
:102380004169806900903A464946204600F0A6F926
:1023900050B1206C042804D12068016841F4007118
:1023A00001600120BDE8F883F5B2B8F1010F09D052
:1023B0002168300A08613A464946204600F08EF905
:1023C0000028E6D1206805610020EBE7020001004B
:1023D000F8B590F83D6004460068416821F4E0617A
:1023E00041602068002541690091016841F00101C8
:1023F00001602068016821F4806101602068416803
:10240000090520D5474F222E48D02A2E46D0616B91
:10241000096849686185618D19B1216C41F0040139
:102420002164416821F400614160606BFEF7C2FAEB
:10243000012808D0606B0765606BFEF7A9FA10B140
:10244000606B016D8847608D08B320684169C9439E
:10245000490708D40069616A0870606A401C6062BC
:10246000608D401E608520684169C943490608D4D3
:102470000069616A0870606A401C6062608D401E7D
:102480006085608D18B1206C40F004002064206CE1
:1024900000B32046BDE8F840FFF7DCBBA16B09683C
:1024A00049686185618D19B1216C41F00401216495
:1024B000416821F400614160A06BFEF77BFA0128BE
:1024C000C1D0A06B0765A06BFEF762FA0028BAD0F6
:1024D000A06BB6E72A2E06D12563282084F83D009C
:1024E0002046FEF76FFF94F83D10202028290DD0DC
:1024F000216B222901D0222E07D1256384F83D00CB
:1025000084F83E502046FEF75DFFF8BD0649E162C3
:10251000256384F83D0084F83E502046FEF77CFD9C
:10252000F8BD0000D51B00080000FFFF70B516467F
:102530000D4604460DE02046FFF72CFC08B10120B3
:1025400070BD681C05D0FEF737FB801BA84207D87A
:1025500035B120684069C0434007ECD4002070BD0D
:10256000002044F8300F20216173A073216941F0ED
:10257000200121612073E2E72DE9F0471E469046D5
:102580000D460446C1F30747DDF8209008E0701CB3
:1025900006D0FEF711FBA0EB0900B0420FD876B1D0
:1025A0002068012F18D0806925EA00000004000C83
:1025B00014D000214145EAD00020BDE8F08700207A
:1025C00044F8300F20216173A073216941F020018C
:1025D000216120730120F0E74069E5E70121E9E787
:1025E0002DE9F0479A4691460E46044600254FF0E5
:1025F0002008C1F3074725E020684069C043400533
:1026000014D42068016841F40071016021686FF4FE
:1026100080604861256384F83D8084F83E50206CDA
:1026200040F00400206484F83C501FE0B9F1FF3F03
:1026300008D0FEF7C1FAA0EB0A0149450CD8B9F160
:10264000000F09D02068012F13D0806926EA00000E
:102650000004000C0BD0CFE744F8305F84F80D8005
:10266000A573206940F02000206125730120BDE89A
:10267000F0874069EAE72DE9F041002590460E46D3
:102680000446202717E04069C043C0060CD454F824
:10269000301B6FF01000486144F810596777A57738
:1026A000206A2062257717E0FEF786FAA0EB080083
:1026B000B04208D83EB120684169C9434906E2D416
:1026C0000020BDE8F08144F8305F6773A57320698E
:1026D00040F02000206125730120F2E770B5164616
:1026E0000D4604460DE02046FFF754FB08B10120DB
:1026F00070BD681C05D0FEF75FFA801BA84207D8A2
:1027000035B120684069C0430006ECD4002070BD9C
:10271000002044F8300F20216173A073216941F03B
:10272000200121612073E2E73EB54FF4803300922F
:102730000224CDE901430A46014601230448FEF77D
:1027400071FC002803D0BDE83E40FEF719B93EBD3C
:102750001000002070B586B014216846FDF77AFDA0
:102760001A480024016841F080010160016801F00D
:1027700080010591016841F001010160016801F0EB
:1027800001010591016841F040010160016801F01B
:1027900040010591016841F00201016000680C4EA2
:1027A00000F002004FF4C045059000222946304653
:1027B000FEF7FCF901200095CDE901046946304699
:1027C0000394FEF70DF906B070BD000030380240EA
:1027D000001802400E4810B50C4901600D494160D7
:1027E00000214FF480428160C0E9031241618161A0
:1027F000C1610162FEF756FB00210548FEF7E2F9D0
:10280000BDE8104000210248FEF7FDB90054004029
:1028100010000020A0860100FEE770477047704757
:10282000FEF7D2BD10B592B030216846FDF712FD1B
:1028300014210CA8FDF70EFD15480024016841F095
:1028400080510160006800F08050119011480168CB
:1028500021F4404141F4804101600068069400F495
:10286000404011900220009001200390102004901D
:102870006846FEF72DFF0F20CDE90C040E940F944F
:1028800000210CA81094FEF739FE12B010BD000014
:1028900040380240007000401048016841F4700167
:1028A00001600F48016841F0010101600C4A0021FC
:1028B0000832116002680B4B1A400260031D0A4A7D
:1028C0001A60026822F48022026005480C30016020
:1028D00002495806803908607047000088ED00E022
:1028E00000380240FFFFF6FE103000242DE9F041D1
:1028F000044600680169E26821F440511143016116
:102900002169A068E26908436169114322680843AC
:10291000D16849F20C6399430143D1602068416951
:10292000A26921F4407111434161E2696425B2F565
:10293000004F9748974922684FF032083FD08A42AB
:1029400001D082427CD1FEF781FE00EBC00101EB99
:10295000001061688900B0FBF1F6FEF777FE00EB2E
:10296000C00101EB001061688900B0FBF1F0B0FB21
:10297000F5F06FF01801484306EB800108EB0110F9
:10298000B0FBF5F000F0F006FEF760FE00EBC001D2
:1029900001EB001061688900B0FBF1F0B0FBF5F0CD
:1029A00006EB0016FEF752FE00EBC00101EB001033
:1029B00061688900B0FBF1F7FEF748FED2E08A4279
:1029C00001D082423DD1FEF741FE00EBC00101EB98
:1029D000001061684900B0FBF1F0B0FBF5F00601B2
:1029E000FEF734FE00EBC00101EB00106168490006
:1029F000B0FBF1F7FEF72AFE00EBC00101EB00107F
:102A000061684900B0FBF1F0B0FBF5F06FF0180120
:102A1000484307EB800108EBC100B0FBF5F000F084
:102A2000F80006EB4006FEF711FE00EBC00101EBDB
:102A3000001061684900B0FBF1F7FEF707FE3CE0CB
:102A400055E0FEF7F3FD00EBC00101EB00106168FB
:102A50004900B0FBF1F0B0FBF5F00601FEF7E6FD32
:102A600000EBC00101EB001061684900B0FBF1F719
:102A7000FEF7DCFD00EBC00101EB001061684900CE
:102A8000B0FBF1F0B0FBF5F06FF01801484307EB35
:102A9000800108EBC100B0FBF5F000F0F80006EB98
:102AA0004006FEF7C3FD00EBC00101EB00106168BA
:102AB0004900B0FBF1F7FEF7B9FD00EBC00101EBF7
:102AC000001061684900B0FBF1F0B0FBF5F06FF069
:102AD0001801484307EB800108EBC100B0FBF5F09B
:102AE00000F00700216830448860BDE8F081FEF7FF
:102AF0009DFD00EBC00101EB001061688900B0FB97
:102B0000F1F6FEF793FD00EBC00101EB00106168E8
:102B10008900B0FBF1F0B0FBF5F06FF0180148430D
:102B200006EB800108EB0110B0FBF5F000F0F006B9
:102B3000FEF77CFD00EBC00101EB0010616889002D
:102B4000B0FBF1F0B0FBF5F006EB0016FEF76EFD02
:102B500000EBC00101EB001061688900B0FBF1F7E8
:102B6000FEF764FD00EBC00101EB00106168890015
:102B7000B0FBF1F0B0FBF5F06FF01801484307EB44
:102B8000800108EB0110B0FBF5F000F00F00A9E7A1
:102B900000140140001001402DE9F041984617460D
:102BA0000E460446069D1DE0681C1BD02DB1FEF7A5
:102BB00003F8A0EB0800A84214D92068C16821F4EA
:102BC000D071C1602068416921F00101416120207C
:102BD00084F8390084F83A00002084F83800032093
:102BE000BDE8F0812068006836EA000004D00020CB
:102BF000B842D9D00020F3E70120F9E7FEE7000052
:102C00000FB4084B10B504A902AA039800F02CF8E1
:102C1000044602A9002000F058FA204610BC5DF8D6
:102C200014FB0000CB3000080907090E002804DB64
:102C300000F1E02080F80014704700F00F0000F170
:102C4000E02080F8141D704702E008C8121F08C178
:102C5000002AFAD170477047002001E001C1121F1D
:102C6000002AFBD1704700002DE9FF4F8DB00F46C1
:102C70000546002606E025280BD0DDE90F12904717
:102C80006D1C761C28780028F5D111B03046BDE8BF
:102C9000F08F0024A246A1460122EC4900E0044343
:102CA00015F8013F203B02FA03F00842F7D12878DB
:102CB0002A2810D06FF02F022878A0F130010929BE
:102CC00014D80AEB8A0102EB410144F0020400EB44
:102CD000010A6D1CF0E701CF5FEA000A03D544F456
:102CE0000054CAF1000A44F002046D1C28782E2812
:102CF00017D115F8010F44F004042A280ED06FF004
:102D00002F022878A0F1300109290AD809EB89019E
:102D100002EB410100EB01096D1CF2E757F8049B3F
:102D20006D1C28786C280FD006DC4C2817D068283A
:102D30000DD06A2814D104E0742810D07A280FD15D
:102D40000DE044F400140AE044F4801401E044F47B
:102D500040146978814202D104F580146D1C6D1C09
:102D60002A786E2A1FD00CDC632A31D004DC002ABA
:102D70008BD0582A11D1A3E0642A68D0692A0CD1DB
:102D800065E0732A2ED004DC6F2A73D0702A04D138
:102D90009BE0752A6FD0782A6ED01046DDE90F12BD
:102DA0009047761C50E1C4F30250022806D0032855
:102DB00009D0042801CF09D0066045E101CFF11701
:102DC000C0E9006140E101CF06803DE106703BE1D2
:102DD00017F8040B8DF8000000208DF80100EB4679
:102DE000012003E057F804BB4FF0FF3061074FF0BC
:102DF000000102D40DE008F10101884649450FDACF
:102E00008045F8DB1BF808100029F4D108E008F130
:102E1000010188468142FADB1BF808100029F6D12F
:102E2000DDE90F23AAEB08008146214600F036F9C0
:102E3000304400EB080604E0DDE90F121BF8010B3B
:102E40009047B8F10108F7D221464846F7E00A2139
:102E5000C4F302534FF0000B0891022B04D001CFB2
:102E6000C117032B09D00AE0FF1D27F00707F7E879
:102E7000020108E032E01FE020E000B2C117042B9D
:102E800001D140B2C117031E71F1000307DA4FF000
:102E9000000CD0EB0C006CEB01012D2302E02305AC
:102EA00004D52B238DF82430012303E0E30701D060
:102EB0002023F7E7984658E00A2110E010210EE0A1
:102EC00010204FF0000B08900CE010214FF0000B89
:102ED00044F004044FF00809089103E008214FF082
:102EE000000B0891C4F30253022B04D001CF002140
:102EF000032B06D006E0FF1D27F00707F7E80201C5
:102F000003E080B2042B00D1C0B24FF000082307C9
:102F10002BD5702A07D0DDF820C08CF0100C5CEAAD
:102F20000B0C05D00EE040238DF82430012308E07F
:102F300050EA010306D030238DF824308DF8252087
:102F400002239846DDF820C08CF0080C5CEA0B0CDC
:102F50000BD150EA010301D1630706D530238DF868
:102F600024304FF00108A9F10109582A04D038A2F1
:102F70000B9208AA0A920BE03AA2F9E75B46089A7C
:102F8000FDF730F90B9B9B5C0A9A521E0A92137054
:102F900050EA0102F2D10A98ADEB000000F1200BDB
:102FA000600702D524F4803401E04FF00109D945CF
:102FB00002DDA9EB0B0000E0002000EB0B01414417
:102FC0000890AAEB010AE00306D4DDE90F232146AD
:102FD000504600F063F806444FF0000908E009A9E4
:102FE00011F80900DDE90F12904709F10109761C7B
:102FF000C145F4DBE0030CD5DDE90F232146504643
:1030000000F04CF8064404E0DDE90F123020904750
:10301000761C0899481E08900029F5DC08E00A98FB
:103020000A990078491C0A91DDE90F129047761C35
:10303000BBF10001ABF1010BF1DC21465046DDE9AB
:103040000F2300F019F806446D1C1BE60928010047
:10305000303132333435363738396162636465660E
:1030600000000000303132333435363738394142D0
:1030700043444546000000002DE9F0410446002588
:103080001E461746880404D405E039462020B04780
:103090006D1C641EF9D52846BDE8F0812DE9F0418C
:1030A000044600251E469046C80301D5302700E09F
:1030B0002027880404D505E041463846B0476D1CFA
:1030C000641EF9D52846BDE8F0810A68531C0B60E0
:1030D00010707047FEF780F9FFF7A4FBFFF73AFB8B
:1030E000FFF778FB1C481B494FF4E13500240160D1
:1030F000C0E901540C26C460C0E904468461C4617F
:10310000FEF788FC1448154940300160C0E90154BD
:10311000C460C0E904468461C461FEF77BFCFDF72E
:10312000DDF84FF480544FF47A750B480CA18030D1
:10313000FFF766FD08488030FDF797F8064982B230
:10314000234680310448FEF7E1FC2846FDF736FCB3
:10315000EBE7000000100140640000200044004044
:1031600048656C6C6F2066726F6D2053544D33321E
:103170002121210A000000000000000000000000E2
:10318000010203040607080900000000010203040D
:10319000B03100080000002010000000482C00089A
:1031A000C03100081000002060050000582C000805
:1031B0000100000010000000000000000024F400E6
:04000005080001AD41
:00000001FF
