:020000040800F2
:1000000000500020452D0008312C00083D2C000830
:10001000432C0008492C00084F2C00080000000069
:10002000000000000000000000000000552C000847
:10003000612C0008000000006D2C0008792C0008DD
:100040008D2D00088D2D00088D2D00088D2D0008A8
:100050008D2D00088D2D00088D2D00088D2D000898
:100060008D2D00088D2D00088D2D00088D2D000888
:100070008D2D00088D2D00088D2D00088D2D000878
:100080008D2D00088D2D00088D2D00088D2D000868
:100090008D2D00088D2D00088D2D00088D2D000858
:1000A0008D2D00088D2D00088D2D00088D2D000848
:1000B0008D2D00088D2D00088D2D00088D2D000838
:1000C0008D2D00088D2D00088D2D00088D2D000828
:1000D0008D2D00088D2D00088D2D00088D2D000818
:1000E0008D2D00088D2D00088D2D000800000000CA
:1000F0000000000000000000000000000000000000
:0C01000000000000000000005FF808F1A3
:1001100010B5054C237833B9044B13B10448AFF341
:1001200000800123237010BDDC01002000000000CE
:10013000B487000808B5034B1BB103490348AFF36C
:10014000008008BD00000000E0010020B487000826
:10015000034613F8012B002AFBD1181A0138704707
:1001600081F0004102E000BF83F0004330B54FEA68
:1001700041044FEA430594EA050F08BF90EA020FD5
:100180001FBF54EA000C55EA020C7FEA645C7FEA68
:10019000655C00F0E2804FEA5454D4EB5555B8BF8B
:1001A0006D420CDD2C4480EA020281EA030382EAFC
:1001B000000083EA010180EA020281EA0303362D8E
:1001C00088BF30BD11F0004F4FEA01314FF4801C61
:1001D0004CEA113102D0404261EB410113F0004F73
:1001E0004FEA03334CEA133302D0524263EB43032A
:1001F00094EA050F00F0A780A4F10104D5F1200EC8
:100200000DDB02FA0EFC22FA05F2801841F1000122
:1002100003FA0EF2801843FA05F359410EE0A5F1F6
:1002200020050EF1200E012A03FA0EFC28BF4CF027
:10023000020C43FA05F3C01851EBE37101F00045DD
:1002400007D54FF0000EDCF1000C7EEB00006EEBEA
:100250000101B1F5801F1BD3B1F5001F0CD3490874
:100260005FEA30004FEA3C0C04F101044FEA4452CB
:1002700012F5800F80F09A80BCF1004F08BF5FEA52
:10028000500C50F1000041EB045141EA050130BD32
:100290005FEA4C0C404141EB010111F4801FA4F1D5
:1002A0000104E9D191F0000F04BF01460020B1FA2A
:1002B00081F308BF2033A3F10B03B3F120020CDA62
:1002C0000C3208DD02F1140CC2F10C0201FA0CF040
:1002D00021FA02F10CE002F11402D8BFC2F1200CA5
:1002E00001FA02F120FA0CFCDCBF41EA0C0190405B
:1002F000E41AA2BF01EB0451294330BD6FEA0404A4
:100300001F3C1CDA0C340EDC04F11404C4F120028E
:1003100020FA04F001FA02F340EA030021FA04F3A0
:1003200045EA030130BDC4F10C04C4F1200220FAF7
:1003300002F001FA04F340EA0300294630BD21FA35
:1003400004F0294630BD94F0000F83F4801306BFFB
:1003500081F480110134013D4EE77FEA645C18BFEF
:100360007FEA655C29D094EA050F08BF90EA020F86
:1003700005D054EA000C04BF1946104630BD91EA7E
:10038000030F1EBF0021002030BD5FEA545C05D181
:100390004000494128BF41F0004130BD14F58004C0
:1003A0003CBF01F5801130BD01F0004545F0FE4134
:1003B00041F470014FF0000030BD7FEA645C1ABF69
:1003C000194610467FEA655C1CBF0B46024650EAA0
:1003D000013406BF52EA033591EA030F41F40021CC
:1003E00030BD00BF90F0000F04BF0021704730B552
:1003F0004FF4806404F132044FF000054FF0000127
:1004000050E700BF90F0000F04BF0021704730B5E7
:100410004FF4806404F1320410F0004548BF4042BC
:100420004FF000013EE700BF42004FEAE2014FEA11
:1004300031014FEA02701FBF12F07F4393F07F4FEC
:1004400081F06051704732F07F4208BF704793F0EF
:100450007F4F04BF41F40021704730B54FF4607402
:1004600001F0004521F000411CE700BF50EA010205
:1004700008BF704730B54FF000050AE050EA0102AE
:1004800008BF704730B511F0004502D5404261EB1E
:1004900041014FF4806404F132045FEA915C3FF45F
:1004A000D8AE4FF003025FEADC0C18BF03325FEAFC
:1004B000DC0C18BF033202EBDC02C2F1200300FAAD
:1004C00003FC20FA02F001FA03FE40EA0E0021FAD2
:1004D00002F11444BDE600BF70B54FF0FF0C4CF4C0
:1004E000E06C1CEA11541DBF1CEA135594EA0C0F72
:1004F00095EA0C0F00F0DEF82C4481EA030621EAAD
:100500004C5123EA4C5350EA013518BF52EA0335E7
:1005100041F4801143F4801338D0A0FB02CE4FF099
:100520000005E1FB02E506F00042E0FB03E54FF0C9
:100530000006E1FB03569CF0000F18BF4EF0010EC1
:10054000A4F1FF04B6F5007F64F5407404D25FEABD
:100550004E0E6D4146EB060642EAC62141EA555170
:100560004FEAC52040EA5E504FEACE2EB4F1FD0CB2
:1005700088BFBCF5E06F1ED8BEF1004F08BF5FEA30
:10058000500E50F1000041EB045170BD06F00046E2
:1005900046EA010140EA020081EA0301B4EB5C048F
:1005A000C2BFD4EB0C0541EA045170BD41F4801187
:1005B0004FF0000E013C00F3AB8014F1360FDEBFAC
:1005C000002001F0004170BDC4F10004203C35DA88
:1005D0000C341BDC04F11404C4F1200500FA05F30B
:1005E00020FA04F001FA05F240EA020001F00042AC
:1005F00021F0004110EBD37021FA04F642EB060122
:100600005EEA430E08BF20EAD37070BDC4F10C044B
:10061000C4F1200500FA04F320FA05F001FA04F20F
:1006200040EA020001F0004110EBD37041F10001FB
:100630005EEA430E08BF20EAD37070BDC4F1200506
:1006400000FA05F24EEA020E20FA04F301FA05F26E
:1006500043EA020321FA04F001F0004121FA04F216
:1006600020EA020000EBD3705EEA430E08BF20EAE6
:10067000D37070BD94F0000F0FD101F00046400020
:1006800041EB010111F4801F08BF013CF7D041EAA2
:10069000060195F0000F18BF704703F000465200A6
:1006A00043EB030313F4801F08BF013DF7D043EA77
:1006B0000603704794EA0C0F0CEA135518BF95EA2D
:1006C0000C0F0CD050EA410618BF52EA4306D1D1B4
:1006D00081EA030101F000414FF0000070BD50EAD3
:1006E000410606BF1046194652EA430619D094EA5D
:1006F0000C0F02D150EA013613D195EA0C0F05D147
:1007000052EA03361CBF104619460AD181EA03019A
:1007100001F0004141F0FE4141F470014FF0000052
:1007200070BD41F0FE4141F4780170BD70B54FF0ED
:10073000FF0C4CF4E06C1CEA11541DBF1CEA13556D
:1007400094EA0C0F95EA0C0F00F0A7F8A4EB05044F
:1007500081EA030E52EA03354FEA013100F0888046
:100760004FEA03334FF0805545EA131343EA12630F
:100770004FEA022245EA111545EA10654FEA0026C4
:100780000EF000419D4208BF964244F1FD0404F57D
:10079000407402D25B084FEA3202B61A65EB0305D9
:1007A0005B084FEA32024FF480104FF4002CB6EB96
:1007B000020E75EB030E22BFB61A754640EA0C0016
:1007C0005B084FEA3202B6EB020E75EB030E22BF56
:1007D000B61A754640EA5C005B084FEA3202B6EB97
:1007E000020E75EB030E22BFB61A754640EA9C0056
:1007F0005B084FEA3202B6EB020E75EB030E22BF26
:10080000B61A754640EADC0055EA060E18D04FEAE3
:10081000051545EA16754FEA06164FEAC30343EA83
:1008200052734FEAC2025FEA1C1CC0D111F4801F50
:100830000BD141EA00014FF000004FF0004CB6E749
:1008400011F4801F04BF01430020B4F1FD0C88BFE8
:10085000BCF5E06F3FF6AFAEB5EB030C04BFB6EBF3
:10086000020C5FEA500C50F1000041EB045170BDE6
:100870000EF0004E4EEA113114EB5C04C2BFD4EB13
:100880000C0541EA045170BD41F480114FF0000E97
:10089000013C90E645EA060E8DE60CEA135594EA13
:1008A0000C0F08BF95EA0C0F3FF43BAF94EA0C0F16
:1008B0000AD150EA01347FF434AF95EA0C0F7FF48B
:1008C00025AF104619462CE795EA0C0F06D152EADF
:1008D00003353FF4FDAE1046194622E750EA4106C3
:1008E00018BF52EA43067FF4C5AE50EA41047FF4D4
:1008F0000DAF52EA43057FF4EBAE12E74FF0FF3C39
:1009000006E000BF4FF0010C02E000BF4FF0010C09
:100910004DF804CD4FEA410C7FEA6C5C4FEA430C82
:1009200018BF7FEA6C5C1BD001B050EA410C0CBFD1
:1009300052EA430C91EA030F02BF90EA020F002033
:10094000704710F1000F91EA030F58BF994208BF9A
:1009500090422CBFD8176FEAE37040F00100704757
:100960004FEA410C7FEA6C5C02D150EA013C07D1AE
:100970004FEA430C7FEA6C5CD6D152EA033CD3D0F9
:100980005DF8040B704700BF8446104662468C46F3
:100990001946634600E000BF01B5FFF7B7FF002826
:1009A00048BF10F1000F01BD4DF808EDFFF7F4FF4F
:1009B0000CBF012000205DF808FB00BF4DF808EDDA
:1009C000FFF7EAFF34BF012000205DF808FB00BFFD
:1009D0004DF808EDFFF7E0FF94BF012000205DF81F
:1009E00008FB00BF4DF808EDFFF7CEFF94BF0120D4
:1009F00000205DF808FB00BF4DF808EDFFF7C4FFCD
:100A000034BF012000205DF808FB00BF4FEA410C15
:100A10007FEA6C5C02D150EA013C0AD14FEA430CF8
:100A20007FEA6C5C02D152EA033C02D14FF0000035
:100A300070474FF0010070474FEA410212F5001273
:100A400015D211D56FF47873B3EB625212D94FEA15
:100A5000C12343F0004343EA505311F0004F23FAFF
:100A600002F018BF404270474FF00000704750EA54
:100A7000013005D111F0004008BF6FF00040704711
:100A80004FF00000704700BF4FEA4102B2F1E0436F
:100A900024BFB3F5001CDCF1FE5C0DD901F0004C65
:100AA0004FEAC0024CEA5070B2F1004F40EB8300B5
:100AB00008BF20F00100704711F0804F21D113F1E1
:100AC0003872BCBF01F00040704741F480114FEA1A
:100AD0005252C2F11802C2F1200C10FA0CF320FAA3
:100AE00002F018BF40F001004FEAC1234FEAD323C0
:100AF00003FA0CFC40EA0C0023FA02F34FEA43032A
:100B0000CCE77FEA625307D150EA01331EBF4FF0B2
:100B1000FE4040F44000704701F0004040F0FE40CD
:100B200040F40000704700BF80F0004002E000BFCA
:100B300081F0004142001FBF5FEA410392EA030FC8
:100B40007FEA226C7FEA236C6AD04FEA1262D2EB12
:100B50001363C1BFD218414048404140B8BF5B4217
:100B6000192B88BF704710F0004F40F4000020F0B0
:100B70007F4018BF404211F0004F41F4000121F0C6
:100B80007F4118BF494292EA030F3FD0A2F1010210
:100B900041FA03FC10EB0C00C3F1200301FA03F14E
:100BA00000F0004302D5494260EB4000B0F5000F71
:100BB00013D3B0F1807F06D340084FEA310102F130
:100BC0000102FE2A51D2B1F1004F40EBC25008BFE2
:100BD00020F0010040EA03007047490040EB0000AC
:100BE00010F4000FA2F10102EDD1B0FA80FCACF1DB
:100BF000080CB2EB0C0200FA0CF0AABF00EBC250DA
:100C000052421843BCBFD0401843704792F0000FC7
:100C100081F4000106BF80F400000132013BB5E71A
:100C20004FEA41037FEA226C18BF7FEA236C21D090
:100C300092EA030F04D092F0000F08BF08467047F5
:100C400090EA010F1CBF0020704712F07F4F04D1C3
:100C5000400028BF40F00040704712F100723CBFD6
:100C600000F50000704700F0004343F0FE4040F400
:100C7000000070477FEA226216BF08467FEA2363BE
:100C80000146420206BF5FEA412390EA010F40F4A9
:100C9000800070474FF0000304E000BF10F00043F5
:100CA00048BF40425FEA000C08BF704743F09643DC
:100CB00001464FF000001CE050EA010208BF7047F7
:100CC0004FF000030AE000BF50EA010208BF70477E
:100CD00011F0004302D5404261EB41015FEA010C93
:100CE00002BF84460146002043F0B64308BFA3F18B
:100CF0008053A3F50003BCFA8CF2083AA3EBC2536D
:100D000010DB01FA02FC634400FA02FCC2F120028B
:100D1000BCF1004F20FA02F243EB020008BF20F0C2
:100D20000100704702F1200201FA02FCC2F1200228
:100D300050EA4C0021FA02F243EB020008BF20EA1D
:100D4000DC7070474FF0FF0C1CEAD0521EBF1CEA4B
:100D5000D15392EA0C0F93EA0C0F6FD01A4480EA39
:100D6000010C400218BF5FEA41211ED04FF0006322
:100D700043EA501043EA5111A0FB01310CF000404E
:100D8000B1F5000F3EBF490041EAD3715B0040EA74
:100D9000010062F17F02FD2A1DD8B3F1004F40EB44
:100DA000C25008BF20F00100704790F0000F0CF017
:100DB000004C08BF49024CEA502040EA51207F3ADB
:100DC000C2BFD2F1FF0340EAC250704740F40000B6
:100DD0004FF00003013A5DDC12F1190FDCBF00F0A7
:100DE00000407047C2F10002410021FA02F1C2F155
:100DF000200200FA02FC5FEA310040F1000053EAF1
:100E00004C0308BF20EADC70704792F0000F00F03E
:100E1000004C02BF400010F4000F013AF9D040EA44
:100E20000C0093F0000F01F0004C02BF490011F4D8
:100E3000000F013BF9D041EA0C018FE70CEAD153D6
:100E400092EA0C0F18BF93EA0C0F0AD030F0004C56
:100E500018BF31F0004CD8D180EA010000F000400A
:100E6000704790F0000F17BF90F0004F084691F0C8
:100E7000000F91F0004F14D092EA0C0F01D1420202
:100E80000FD193EA0C0F03D14B0218BF084608D1CB
:100E900080EA010000F0004040F0FE4040F4000015
:100EA000704740F0FE4040F4400070474FF0FF0CA8
:100EB0001CEAD0521EBF1CEAD15392EA0C0F93EAEF
:100EC0000C0F69D0A2EB030280EA010C49024FEA41
:100ED000402037D04FF0805343EA111143EA1013FA
:100EE0000CF000408B4238BF5B0042F17D024FF4B2
:100EF000000C8B4224BF5B1A40EA0C00B3EB510F8D
:100F000024BFA3EB510340EA5C00B3EB910F24BF75
:100F1000A3EB910340EA9C00B3EBD10F24BFA3EBFA
:100F2000D10340EADC001B0118BF5FEA1C1CE0D1C2
:100F3000FD2A3FF650AF8B4240EBC25008BF20F075
:100F4000010070470CF0004C4CEA50207F32C2BFC9
:100F5000D2F1FF0340EAC250704740F400004FF066
:100F60000003013A37E792F0000F00F0004C02BF97
:100F7000400010F4000F013AF9D040EA0C0093F061
:100F8000000F01F0004C02BF490011F4000F013BBB
:100F9000F9D041EA0C0195E70CEAD15392EA0C0F23
:100FA00008D142027FF47DAF93EA0C0F7FF470AF5B
:100FB000084676E793EA0C0F04D14B023FF44CAF9E
:100FC00008466EE730F0004C18BF31F0004CCAD133
:100FD00030F000427FF45CAF31F000437FF43CAF6F
:100FE0005FE700BF4FEA4002B2F1FE4F0FD34FF070
:100FF0009E03B3EB12620DD94FEA002343F0004386
:1010000010F0004F23FA02F018BF404270474FF033
:101010000000704712F1610F01D1420205D110F0BA
:10102000004008BF6FF0004070474FF0000070476D
:101030007BB972B90029BEBF00204FF0004106E025
:1010400008BF00281CBF6FF000414FF0FF3000F0D8
:10105000A7B9ADF1080C6DE904CE002909DB002B1E
:101060001ADB00F035F8DDF804E0DDE9022304B016
:101070007047404261EB4101002B1BDB00F028F878
:10108000DDF804E0DDE9022304B0404261EB4101F8
:10109000524263EB43037047524263EB430300F059
:1010A00017F8DDF804E0DDE9022304B0404261EB0B
:1010B00041017047524263EB430300F009F8DDF849
:1010C00004E0DDE9022304B0524263EB43037047BE
:1010D0002DE9F0478C460446089E002B4BD18A42EE
:1010E000154667D9B2FA82F24AB1C2F1200701FA75
:1010F00002F320FA07F7954047EA030C94404FEAC1
:10110000154EBCFBFEF71FFA85F80EFB17C307FB55
:1011100008F9210C41EA0343994509D9EB1807F175
:10112000FF3180F01C81994540F21981023F2B4428
:10113000A3EB0903B3FBFEF00EFB103300FB08F139
:10114000A4B244EA0344A14209D92C1900F1FF33A7
:1011500080F00781A14240F2048102382C4440EA29
:1011600007400027641A1EB10023D440C6E900439B
:101170003946BDE8F0878B4209D9002E00F0EC809B
:101180000027C6E9000138463946BDE8F087B3FAC2
:1011900083F7002F48D18B4202D3824200F2FB80BA
:1011A000841A61EB030301209C46002EE0D0C6E9BF
:1011B000004CDDE702B9FFDEB2FA82F2002A40F00D
:1011C0008F800127491B4FEA15481FFA85F9B1FBAB
:1011D000F8FE08FB1E1109FB0EF04FEA144C4CEA16
:1011E0000143984207D9EB180EF1FF3102D2984221
:1011F00000F2CD808E461B1AB3FBF8F008FB1033CB
:1012000009FB00F9A4B244EA0344A14507D92C190B
:1012100000F1FF3302D2A14500F2B6801846A4EBDC
:10122000090440EA0E409EE7C7F12005BB4022FAC0
:1012300005FC4CEA030C21FA05F44FEA1C4EB4FB02
:10124000FEF91FFA8CF80EFB194420FA05F3B94099
:1012500009FB08FA19430B0C43EA0444A24502FABD
:1012600007F200FA07F30BD91CEB040409F1FF3075
:1012700080F08880A24540F28580A9F1020964448B
:10128000A4EB0A04B4FBFEF00EFB104400FB08FACA
:1012900089B241EA0444A24508D91CEB040400F1D8
:1012A000FF316BD2A24569D90238644440EA094053
:1012B000A0FB0289A4EB0A044C454146CE4654D318
:1012C00051D0002E69D05A1A64EB0E0404FA05F5C9
:1012D00022FA07F3FC401D43C6E90054002747E704
:1012E0009540C2F1200321FA03F04FEA1548B0FB04
:1012F000F8F71FFA85F908FB170024FA03F3914069
:1013000007FB09FC0B43190C41EA00418C4504FA28
:1013100002F407D9691807F1FF3031D28C452FD973
:10132000023F2944A1EB0C01B1FBF8F008FB101CB3
:1013300000FB09FE99B241EA0C418E4507D96918B4
:1013400000F1FF3318D28E4516D902382944A1EB9B
:101350000E0140EA07473AE73746304608E70F46AE
:10136000E6E61846FBE64345ABD2B8EB020169EB73
:101370000C0201389646A4E71846E8E7084695E7C8
:101380000746CFE781467BE702382C4447E7AEF1BA
:10139000020E2B442FE7384607E73746E8E600BF42
:1013A000704700BF80B400AFBFF34F8F054BDB68C1
:1013B00003F4E0620349044B1343CB60BFF34F8F48
:1013C00000BFFDE700ED00E00400FA0580B582B043
:1013D00000AF7860786800F077FF4FF40051034861
:1013E00002F0ECFB642001F035FDF6E7001001404F
:1013F00080B588B004AF0346FB800B467B71134673
:101400003B710023FB737B799AB2F9884FF48033E8
:101410000293012301933B1D00930123074802F02F
:101420000DFD0346FB73FB7B002B02D00448FFF746
:10143000CDFF00BF1037BD4680BD00BF2802002091
:10144000D087000880B588B004AF03460A46FB8009
:1014500013467B710023FB730023BB737B799AB225
:10146000F9884FF4803302930123019307F10E03AF
:1014700000930123084802F0DBFD0346FB73FB7B6E
:10148000002B04D00548FFF7A1FF002300E0BB7B41
:1014900018461037BD4680BD28020020008800088D
:1014A00080B588B004AF03463A60FB800B467B7181
:1014B0000023FB737B799AB2F9884FF4803302934F
:1014C000022301933B6800930123074802F0B0FD1B
:1014D0000346FB73FB7B002B02D00448FFF776FF2B
:1014E00000BF1037BD4680BD280200202C880008B0
:1014F00080B588B004AF03463A60FB800B467B7131
:101500000023FB737B799AB2F9884FF480330293FE
:10151000032301933B6800930123074802F088FDF1
:101520000346FB73FB7B002B02D00448FFF74EFF02
:1015300000BF1037BD4680BD280200205888000833
:1015400080B582B000AF03460A46FB711346BB71FB
:10155000BA79FB791946EC20FFF74AFF00BF08373C
:10156000BD4680BD80B584B000AF0346FB71FB79FA
:101570001946EC20FFF766FF0346FB73FB7B18461A
:101580001037BD4680BD80B582B000AF03463960DC
:10159000FB71FB793A681946EC20FFF781FF00BF29
:1015A0000837BD4680BD80B582B000AF03463960C4
:1015B000FB71FB793A681946EC20FFF771FF00BF19
:1015C0000837BD4680BD80B582B000AF03463960A4
:1015D000FB71FB793A681946EC20FFF761FF3B6825
:1015E0001B881B0A9BB21AB23B681B881B021BB2EA
:1015F00013431BB29AB23B681A8000BF0837BD463E
:1016000080BD80B582B000AF03463960FB71FB79C5
:101610003A681946EC20FFF76BFF3B681B681B0C10
:10162000DAB23B681B6803F47F431A433B681B68CC
:101630001B0403F47F03134323F07F423B681A60CB
:1016400000BF0837BD4680BD80B582B000AFF32033
:10165000FFF788FF034603F00903FB71FB79184687
:101660000837BD4680BD000098B500AF37498820D7
:10167000FFF789FF36498A20FFF795FF35498C200F
:10168000FFF791FF34498E20FFF77DFF334990200B
:10169000FFF789FF32499220FFF785FF31499420F7
:1016A000FFF781FF30499620FFF77DFF2F499820F3
:1016B000FFF779FF2E499A20FFF775FF2D499C20EF
:1016C000FFF771FF2C499E20FFF76DFFA120FFF768
:1016D00049FF03461A461D4B1A762849E120FFF7B9
:1016E00062FFE320FFF73EFF03461A46174B1A77C7
:1016F000E420FFF737FF03461B011CB2E520FFF78C
:1017000031FF03461BB203F00F031BB223431AB28F
:101710000E4BDA83E620FFF725FF03461B011CB2C0
:10172000E520FFF71FFF03461B09DBB21BB2234373
:101730001AB2064B1A84E720FFF714FF03465AB289
:10174000024B83F8222000BF98BD00BF4003002059
:1017500042030020440300204603002048030020E9
:101760004A0300204C0300204E03002050030020B9
:101770005203002054030020560300205A03002087
:1017800080B584B000AF0346FB71F520FFF7EAFE99
:10179000034603F01F03FB7397F9073023F01F0381
:1017A0005AB297F90F3013435BB2FB73FB7B1946B8
:1017B000F520FFF7C5FE00BF1037BD4680BD80B5E0
:1017C00084B000AF0346FB71F520FFF7CBFE034664
:1017D00023F01C03FB7397F9073003F01C035AB284
:1017E00097F90F3013435BB2FB73FB7B1946F5206F
:1017F000FFF7A6FE00BF1037BD4680BD80B584B0A0
:1018000000AF0346FB71F420FFF7ACFE034603F084
:101810001F03FB7397F9073023F01F035AB297F9A0
:101820000F3013435BB2FB73FB7B1946F420FFF7C9
:1018300087FE00BF1037BD4680BD80B584B000AFC5
:101840000346FB71F420FFF78DFE034623F01C03D3
:10185000FB7397F9073003F01C035AB297F90F3066
:1018600013435BB2FB73FB7B1946F420FFF768FE62
:1018700000BF1037BD4680BD80B584B000AF0346C1
:10188000FB71F220FFF76EFE034623F00703FB73A4
:1018900097F9073003F007035AB297F90F30134353
:1018A0005BB2FB73FB7B1946F220FFF749FEF42085
:1018B000FFF758FE0346FB73FB7B1946F420FFF746
:1018C0003FFE00BF1037BD4680BD80B584B000AF7D
:1018D0000346FB71F420FFF745FE034623F00303A4
:1018E000FB7397F9073003F003035AB297F90F30EF
:1018F00013435BB2FB73FB7B1946F420FFF720FE1A
:1019000000BF1037BD4680BD80B584B000AF4FF03A
:101910000003FB603B461946FA20FFF772FE3B6866
:101920001B093B603B68DB081D4A128852009B1A6A
:101930001B4AB2F9022002FB03F3DB0ABB603B68DF
:101940001B09174A12889B1A3A6812091449098818
:10195000521A02FB03F31B0B114AB2F9042002FBDB
:1019600003F39B0B7B60BA687B6813440D4A1360DA
:101970000C4B1A6813469B00134480331B12184605
:10198000FFF78CF90346FB600749F868FFF78EFA0A
:101990000346FB60FB6818461037BD4680BD00BF9C
:1019A000400300209C0300200000C8422DE9F04BBA
:1019B0008AB000AF4FF000037B62FFF7A5FF3B4604
:1019C0001946F720FFF71DFE3B681B093B60654B7E
:1019D0001B6819464FEAE172B1F5FA3342F1FF3460
:1019E000C7E90634FB69BA6902FB03F2FB69B9690E
:1019F00001FB03F31A44B969BB69A1FB0334224418
:101A00001446594AB2F9102011B24FEAE17201FBB3
:101A100004F503FB02F02844A3FB01340219144629
:101A2000C7E90434C7E904344F4BB3F90E301BB295
:101A30004FEAE374BA6904FB02F1FA6903FB02F2AC
:101A40008818BA69A2FB031283181A464FF00005E2
:101A50004FF00006560446EAD1364D04D7E9041289
:101A60006B1846EB0204C7E904343F4BB3F90C3062
:101A700019B24FEAE1724FF000054FF00006CE00B8
:101A80000025D7E904126B1846EB0204C7E90434B9
:101A9000FB69BA6902FB03F2FB69B96901FB03F355
:101AA0001A44B969BB69A1FB0334224414462E4A87
:101AB000B2F90A2011B24FEAE17201FB04F503FB0F
:101AC00002F02844A3FB0134021914464FF0000130
:101AD0004FF00002190A41EA04612212224BB3F9C5
:101AE00008301BB24FEAE374B86904FB00F5F869EB
:101AF00003FB00F02844BD69A5FB035683191E466D
:101B00004FF0000B4FF0000C4FEA063C4CEA155C1E
:101B10004FEA053B1BEB01034CEB0204C7E906341B
:101B2000D7E90634191C44F500420F4BDB889BB201
:101B30004FF0000403FB02F501FB04F02844A1FB75
:101B40000334021914464FF000014FF000026110F7
:101B5000E217C7E90612D7E90634234306D14FF04E
:101B6000000310E19C030020400300203B68C3F504
:101B700080134FF00004C7E90234BB684FEA5309F1
:101B8000BB684FEAC378D7E9043445464E46ED1AA0
:101B900066EB0406A846B14618EB080349EB0904B6
:101BA0009846A14618EB050849EB06094FF00001DD
:101BB0004FF000024FEA891242EA98624FEA881118
:101BC00018EB010849EB02094FF000014FF0000249
:101BD0004FEA890242EA98724FEA880188469146A4
:101BE00018EB050849EB06094FF000014FF0000221
:101BF0004FEA890242EA98724FEA88018846914684
:101C000018EB050049EB0601D7E90623FFF710FAA8
:101C100003460C46C7E902345D4BB3F9163019B2DE
:101C20004FEAE172D7E902564FF000034FF000048B
:101C30006B0B43EAC643741303FB02F501FB04F08C
:101C40002844A1FB031283181A46D7E902564FF025
:101C500000034FF000046B0B43EAC643741303FB0D
:101C600002F501FB04F02844A1FB031283181A4675
:101C70004FF000034FF000044B0E43EAC21354161A
:101C8000C7E90634424BB3F914301BB24FEAE37490
:101C9000BA6804FB02F1FA6803FB02F28818BA681A
:101CA000A2FB031283181A464FF000034FF0000402
:101CB000CB0C43EA4233D414C7E90434D7E9021207
:101CC000D7E9063411EB030842EB0409D7E90434E1
:101CD00013EB080544EB09064FF000014FF000023A
:101CE000290A41EA06613212294BB3F912301DB2BA
:101CF0004FEAE5764FF000084FF000094FEA061969
:101D000049EA15794FEA051818EB010349EB02047B
:101D1000C7E90234D7E902124FF000034FF0000484
:101D20000B0A43EA026314121A464FF47A7303FB58
:101D300002F5D7E902344FF0FF014FF0000203EA49
:101D4000010804EA0209134A02FB09F1002202FB1E
:101D500008F20A440F49A8FB0101531819460E4A1C
:101D60004FF00003FFF764F903460C462B447B60F9
:101D70007868FEF78FFF034608491846FFF796F884
:101D800003467B627B6A18462837BD46BDE8F08B68
:101D900040030020E1F50500A08601000000C842D4
:101DA00080B584B000AF4FF00003FB60FFF7ACFDDF
:101DB000BB1C1946FD20FFF706FCB7F902309BB2A9
:101DC000BB60324B1B68A3F596337B60BB689A03FC
:101DD0002F4BB3F91E301B05D21A2D4BB3F920300F
:101DE00019467B6803FB01F3D31A03F58043DB1329
:101DF000274A92F9222011467A6802FB01F29212D8
:101E00002349097F0846796801FB00F1C91201F5F1
:101E1000004101FB02F2921202F500121C49B1F9D5
:101E20001A1001FB02F202F50052921302FB03F3B7
:101E30007B607B68DB137A68D21302FB03F3DB1150
:101E4000134A127E02FB03F31B117A68D31A7B60DC
:101E50007B6823EAE3737B607B68B3F1C85FA8BF4C
:101E60004FF0C8537B607B681B131846FEF716FFC4
:101E70000346FB604FF08941F868FFF717F8034607
:101E8000FB60FB6818461037BD4680BD9C030020F0
:101E90004003002080B582B000AF0023FB71002317
:101EA0003B60D020FFF75EFB0346FB71FB79602BA4
:101EB00003D02048FFF78AFA39E0B621E020FFF787
:101EC0003FFB00BFFFF7C0FB034603F00103002BFD
:101ED000F8D1FFF7C9FBA020FFF752FC0820FFF75D
:101EE0006EFC6020FFF78AFC0820FFF7A6FC0120AB
:101EF000FFF7C2FCF420FFF735FB03463B60F220FE
:101F0000FFF730FB03461B021A463B6813433B6056
:101F10000320FFF7DAFC084B4FF000021A60064B73
:101F20004FF000025A60044B4FF000029A600837ED
:101F3000BD4680BD84880008180200200000000013
:101F400098B500AFFFF72CFF0346184606F00EFCCD
:101F50000246154B1A60FFF729FD03461846FEF7A7
:101F600063FA0FA3D3E90023FEF7B6FA03460C4643
:101F700018462146FEF788FD0346184606F0F6FB94
:101F80000246094B5A60FFF7BFFC0346184606F0AD
:101F9000EDFB0246044B9A60034B184698BD00BF08
:101FA000FA7E6ABC7493483F1802002080B485B062
:101FB00000AFF860B9607A60064ABB681360064AF1
:101FC0007B681360054AFB68136000BF1437BD4689
:101FD00080BC70477C0400203804002024020020CC
:101FE00080B500AF054B1868054B1B689BB20122FA
:101FF000194601F0CBFD00BF80BD00BF7C0400206E
:102000003804002080B500AF054B1868054B1B68ED
:102010009BB20022194601F0B9FD00BF80BD00BF90
:102020007C0400203804002080B500AF094800F08F
:10203000D3F80346002B07D0074800F0E9F8034621
:10204000002B01D0012300E0002303F00103DBB2E9
:10205000184680BDCC880008B488000880B500AF61
:10206000094800F0B9F80346002B07D0074800F0F4
:10207000CFF80346002B01D0012300E0002303F03A
:102080000103DBB2184680BDD4880008B48800087C
:1020900080B584B000AFF860B9603B601346FB7157
:1020A000FB791A46B968F86800F01EF80346002B61
:1020B00012D03868FEF74CF803460233184600F099
:1020C0003FF80346002B07D0386800F05FF803465E
:1020D000002B01D0012300E0002303F00103DBB259
:1020E00018461037BD4680BD80B586B002AFF86097
:1020F000B9601346FB71FB790093BB68FA680D4920
:102100000D4804F02BFF0C4800F066F80346002B46
:1021100007D00A4800F07CF80346002B01D00123C9
:1021200000E0002303F00103DBB218461037BD4680
:1021300080BD00BFE0880008F8030020B4880008D4
:1021400080B582B000AF78607A680D490D4804F020
:1021500005FF0C4800F040F80346002B07D00A4862
:1021600000F056F80346002B01D0012300E00023C5
:1021700003F00103DBB218460837BD4680BD00BF3F
:10218000FC880008F8030020B488000880B582B0FD
:1021900000AF78607A680D490D4804F0DFFE0C4806
:1021A00000F01AF80346002B07D00A4800F030F878
:1021B0000346002B01D0012300E0002303F00103BC
:1021C000DBB218460837BD4680BD00BF0C89000849
:1021D000F8030020B488000890B583B000AF7860A1
:1021E0000A4B1C687868FDF7B3FF03469AB2642374
:1021F0007968204603F0CDFF0346002B0CBF012376
:102200000023DBB218460C37BD4690BD24020020E7
:1022100080B584B000AF786000F022F80023FB7333
:1022200012E00D4B1868642340220C4904F04AF870
:1022300079680A4804F0B2FE0346002B01D001235E
:1022400006E0FB7B0133FB73FB7B3F2BE9D90023CB
:1022500018461037BD4680BD240200200003002030
:1022600080B500AF40220021024804F01FFA00BFF1
:1022700080BD00BF0003002080B582B000AF786051
:1022800039603B687A680D490D4804F067FE0C48D8
:10229000FFF7A2FF0346002B07D00A48FFF7B8FF5D
:1022A0000346002B01D0012300E0002303F00103CB
:1022B000DBB218460837BD4680BD00BF4C89000818
:1022C000F8030020B488000880B582B000AF7860C1
:1022D0007868FDF73DFF03469AB24FF47A73796848
:1022E000034803F056FF00BF0837BD4680BD00BF5E
:1022F000A00300200000000090B583B000AF1A4892
:1023000000F0A2FE6421184800F078FF164801F0A2
:102310006FF87860144800F045FF7868FEF762F8BF
:102320000DA3D3E90023FEF701FA03460C46184635
:1023300021460BA3D3E90023FEF7F8F903460C4628
:1023400018462146FEF7A0FB03463B603B68184653
:102350000C37BD4690BD00BF0000000000F4904067
:10236000B81E85EB51B8DE3F640300202DE9F04133
:1023700088B006AF00F00CFD00F000F900F05CFA48
:1023800000F052F900F08EF900F002FA00F02AFA9B
:1023900000F0B6F9FFF77EFD4FF400626149624834
:1023A000FFF704FEFFF71CFEFFF73EFE03461A464A
:1023B0005E4B1A705E4B00221A705E4B00221A7040
:1023C0005D4B00221A70FFF70BFE00237B600EE0CE
:1023D0005A495B48FFF750FF03461A46554B1A709F
:1023E000544B1B78002B06D17B6801337B607B68E4
:1023F000022BEDDD00E000BF4E4B1B7883F00103A4
:10240000DBB2002B04D04F48FFF75EFFFEF7CAFF98
:10241000FFF796FD02464C4B1A60FFF76DFF024630
:102420004A4B1A60484B1B689B681846FEF7DAFD5A
:102430000646454B1B681B681846FEF7D3FD8046D1
:10244000414B1B685B681846FEF7CCFD05463F4BC9
:102450001B681846FDF7E8FF03460C46CDE9023439
:102460000095434632463A493A4804F077FD394BE5
:10247000502239493948FFF70BFE03461A462C4BC8
:102480001A702B4B1B7883F00103DBB2002B04D0B6
:102490003348FFF719FFFEF785FFFFF7DFFD03461F
:1024A0001A46254B1A70244B1B7883F00103DBB2CC
:1024B000002B04D02B48FFF707FFFEF773FFFFF751
:1024C000A1FD00222849294803F0E6F9284B9B7812
:1024D0001E46274B5B789C46254BDB781946224BE2
:1024E0001B781846204B5B781C461F4B9B781D467B
:1024F000204B1B6801331F4A13601E4B1B6804935B
:102500000395029401900091634632461A4911489E
:1025100004F024FD0F48FFF7D7FE44F6206000F0DA
:1025200099FC47E7000C01403C040020FC0200201D
:10253000E0030020140200209803002068890008AE
:102540007889000880890008040200209403002094
:102550009C8900087C020020D8890008E8890008CE
:10256000EC890008088A0008F8010020E403002034
:10257000FC01002000020020288A000880B594B0E9
:1025800000AF07F1280328220021184604F08EF836
:1025900007F1140300221A605A609A60DA601A6127
:1025A0003B1D00221A605A609A60DA600A23BB62FF
:1025B0000123BB631023FB6301233B6400237B6483
:1025C00007F12803184602F0ABFA0346002B01D0AE
:1025D00000F0D4F90F237B610023BB610023FB6172
:1025E00000233B6200237B6207F11403002118469D
:1025F00002F016FD0346002B01D000F0BFF90323C3
:102600007B604FF40073BB600023FB603B1D1846EA
:1026100002F0A2FE0346002B01D000F0AFF900BF8C
:102620005037BD4680BD000080B584B000AF3B1D73
:1026300000221A605A609A60184B194A1A60174BA8
:1026400000229A60154B00221A73144B00221A754F
:10265000124B4FF46022DA61104B00225A600F4B8C
:1026600001221A610D4800F017FC0346002B01D02F
:1026700000F084F900237B600123BB600023FB6032
:102680003B1D1946054800F0BFFE0346002B01D054
:1026900000F074F900BF1037BD4680BD6403002010
:1026A0000024014080B500AF124B134A1A60114B51
:1026B000124A5A600F4B00229A600E4B0022DA60D9
:1026C0000C4B4FF480421A610A4B00225A61094BAD
:1026D00000229A61074B0022DA61064B00221A623F
:1026E000044801F083FA0346002B01D000F046F9BC
:1026F00000BF80BD2802002000540040A0860100D9
:1027000080B500AF1E4B1F4A1A601D4B4FF0FF32C1
:102710005A601B4B4FF480729A60194802F08EFF8A
:102720000346002B01D000F029F9174B00221A7044
:10273000154B00225A70144B00229A700022124945
:102740000F4803F011F80346002B01D000F016F9F2
:102750000E4B05221A700D4B01225A700B4B0322AF
:102760009A700A4B1422DA7000220849044803F0D8
:102770006BF90346002B01D000F000F900BF80BDCB
:10278000E403002000280040F8010020FC010020A4
:1027900080B500AF114B124A1A60104B4FF4E13272
:1027A0005A600E4B00229A600C4B0022DA600B4BF1
:1027B00000221A61094B0C225A61084B00229A61CF
:1027C000064B0022DA61054803F096FC0346002B15
:1027D00001D000F0D3F800BF80BD00BFA0030020EF
:1027E0000038014080B500AF114B124A1A60104BFF
:1027F0004FF4E1325A600E4B00229A600C4B0022DB
:10280000DA600B4B00221A61094B0C225A61084B0B
:1028100000229A61064B0022DA61054803F06CFC45
:102820000346002B01D000F0A9F800BF80BD00BF17
:102830003C0400200044004080B58AB000AF07F19E
:10284000140300221A605A609A60DA60454B9B6953
:10285000444A43F010039361424B9B6903F0100319
:102860003B613B693F4B9B693E4A43F020039361C8
:102870003C4B9B6903F02003FB60FB68394B9B6971
:10288000384A43F004039361364B9B6903F0040319
:10289000BB60BB68334B9B69324A43F008039361CA
:1028A000304B9B6903F008037B607B6800224FF488
:1028B00000512D4801F06AF900224FF400612B48C5
:1028C00001F064F94FF400537B610123BB610023E5
:1028D000FB6102233B6207F114031946224800F012
:1028E000FBFF03237B610323BB6107F1140319463C
:1028F0001F4800F0F1FF49F6F2137B610323BB612F
:1029000007F1140319461B4800F0E6FF4FF23F732E
:102910007B610323BB6107F114031946134800F0E0
:10292000DBFF4FF400637B610123BB610023FB618C
:1029300002233B6207F1140319460C4800F0CCFF58
:102940000D4B5B687B627B6A43F0E0637B627B6A72
:1029500043F400437B62084A7B6A536000BF283718
:10296000BD4680BD0010024000100140000C014037
:1029700000140140000801400000014080B400AF95
:1029800000BFBD4680BC704780B485B000AF154B1A
:102990009B69144A43F001039361124B9B6903F056
:1029A0000103BB60BB680F4BDB690E4A43F08053E9
:1029B000D3610C4BDB6903F080537B607B680A4B6F
:1029C0005B68FB60FB6823F0E063FB60FB6843F03F
:1029D0000073FB60044AFB68536000BF1437BD46B8
:1029E00080BC7047001002400000014080B588B0F4
:1029F00000AF786007F1100300221A605A609A60F5
:102A0000DA607B681B68144A934221D1134B9B699F
:102A1000124A43F400739361104B9B6903F40073F3
:102A2000FB60FB680D4B9B690C4A43F00403936108
:102A30000A4B9B6903F00403BB60BB6801233B6145
:102A400003237B6107F110031946054800F044FF9A
:102A500000BF2037BD4680BD002401400010024069
:102A60000008014080B588B000AF786007F110031E
:102A700000221A605A609A60DA607B681B68154A07
:102A8000934223D1144B9B69134A43F0080393618B
:102A9000114B9B6903F00803FB60FB68C0233B619B
:102AA00012237B610323FB6107F1100319460B48D6
:102AB00000F012FF084BDB69074A43F40013D361AF
:102AC000054BDB6903F40013BB60BB6800BF203714
:102AD000BD4680BD0054004000100240000C014083
:102AE00080B584B000AF78607B681B680B4A934266
:102AF00010D102F009F80A4BDB69094A43F0006380
:102B0000D361074BDB6903F00063FB60FB68054B97
:102B100001221A6000BF1037BD4680BD002800406A
:102B2000001002403C04424280B58AB000AF786099
:102B300007F1180300221A605A609A60DA607B6815
:102B40001B68374A934232D1364B9B69354A43F46E
:102B500080439361334B9B6903F480437B617B69C2
:102B6000304B9B692F4A43F0040393612D4B9B69C3
:102B700003F004033B613B694FF40073BB61022324
:102B8000FB6103237B6207F118031946264800F016
:102B9000A3FE4FF48063BB610023FB6100233B6213
:102BA00007F118031946204800F096FE34E07B68D0
:102BB0001B681E4A93422FD11A4BDB69194A43F412
:102BC0000033D361174BDB6903F40033FB60FB6810
:102BD000144B9B69134A43F004039361114B9B69A7
:102BE00003F00403BB60BB680423BB610223FB61E9
:102BF00003237B6207F1180319460B4800F06CFEB3
:102C00000823BB610023FB6100233B6207F118032B
:102C10001946054800F060FE00BF2837BD4680BD5C
:102C2000003801400010024000080140004400400C
:102C300080B400AF00BFBD4680BC704780B400AF19
:102C4000FEE780B400AFFEE780B400AFFEE780B4DB
:102C500000AFFEE780B400AF00BFBD4680BC704748
:102C600080B400AF00BFBD4680BC704780B400AFE9
:102C700000BFBD4680BC704780B500AF00F0CEF805
:102C800000BF80BD80B584B000AF7860114B1B6879
:102C9000002B02D10F4B104A1A600E4B1B68FB60D1
:102CA0000C4B1A687B6813446A46934207D903F0B9
:102CB000D3FC02460C2313604FF0FF3306E0054BB4
:102CC0001A687B681344034A1360FB681846103780
:102CD000BD4680BD080200208804002080B400AFFB
:102CE000154B1B68144A43F001031360124B5A68DA
:102CF0001149124B13404B600F4B1B680E4A23F0D7
:102D0000847323F4803313600B4B1B680A4A23F44B
:102D100080231360084B5B68074A23F4FE0353606B
:102D2000054B4FF41F029A60054B4FF000629A600A
:102D300000BFBD4680BC7047001002400000FFF895
:102D400000ED00E0002103E00B4B5B5843500431E1
:102D50000A480B4B42189A42F6D30A4A02E0002373
:102D600042F8043B084B9A42F9D3FFF7B7FF03F050
:102D700079FCFFF7FBFA7047F08C00080000002098
:102D8000DC010020DC01002088040020FEE70000B8
:102D900080B500AF084B1B68074A43F0100313606F
:102DA000032000F065FD002000F008F8FFF7ECFDBF
:102DB0000023184680BD00BF0020024080B582B0CD
:102DC00000AF7860124B1A68124B1B7819464FF40B
:102DD0007A73B3FBF1F3B2FBF3F3184600F06FFD27
:102DE0000346002B01D001230EE07B680F2B0AD88D
:102DF000002279684FF0FF3000F045FD064A7B68FD
:102E00001360002300E0012318460837BD4680BD4B
:102E100000000020080000200400002080B400AF63
:102E2000054B1B781A46054B1B681344034A136075
:102E300000BFBD4680BC7047080000208004002011
:102E400080B400AF024B1B681846BD4680BC70477B
:102E50008004002080B584B000AF7860FFF7F0FFF9
:102E6000B8607B68FB60FB68B3F1FF3F05D0094B9E
:102E70001B781A46FB681344FB6000BFFFF7E0FFB6
:102E80000246BB68D31AFA689A42F7D800BF1037D7
:102E9000BD4680BD0800002080B586B000AF7860D8
:102EA0000023FB7500233B610023BB600023FB6014
:102EB0007B68002B01D10123BEE07B689B68002B5F
:102EC0007B689B6A002B09D17B680022DA627B68F1
:102ED000002283F824207868FFF788FD786800F0E6
:102EE000DDFB0346FB757B689B6A03F01003002B38
:102EF00040F09980FB7D002B40F095807B689B6AB9
:102F000023F4885323F0020343F002027B689A62A1
:102F10007B685A687B68DB691A437B681B7B5B00B4
:102F20001343BA681343BB607B689B68B3F5807F2B
:102F300003D07B689B68012B02D14FF4807300E0C3
:102F400000233A6913433B617B681B7D012B19D138
:102F50007B681B7B002B09D17B689B69013B5A0373
:102F60003B69134343F400633B610BE07B689B6A5E
:102F700043F020027B689A627B68DB6A43F00102BF
:102F80007B68DA627B681B685B6823F469417B6855
:102F90001B683A690A435A607B681B689A68284B29
:102FA00013407A681268B9680B4393607B689B682A
:102FB000B3F5807F03D07B689B68012B04D17B68CD
:102FC0001B69013B1B05FB607B681B68DB6A23F404
:102FD00070017B681B68FA680A43DA627B681B68C9
:102FE0009A68184B1340BA689A420BD17B6800224A
:102FF000DA627B689B6A23F0030343F001027B687B
:103000009A6218E07B689B6A23F0120343F0100277
:103010007B689A627B68DB6A43F001027B68DA6254
:103020000123FB7507E07B689B6A43F010027B6815
:103030009A620123FB75FB7D18461837BD4680BD9B
:10304000FDF7E1FFFE0E1FFF80B584B000AF786092
:103050000023FB737B6893F82430012B01D10223FA
:1030600098E07B68012283F82420786800F0C4FA95
:103070000346FB73FB7B002B40F087807B689B6AD9
:1030800023F4407323F0010343F480727B689A6257
:103090007B681B68414A934205D1414B5B6803F44E
:1030A0007023002B15D17B689B6A23F480127B6808
:1030B0009A627B681B685B6803F48063002B26D0F0
:1030C0007B689B6A23F4405343F480527B689A6286
:1030D0001DE07B689B6A43F480127B689A627B6880
:1030E0001B682F4A934204D07B681B682B4A93428B
:1030F0000DD12B4B5B6803F48063002B07D07B68FA
:103100009B6A23F4405343F480527B689A627B6845
:103110009B6A03F48053002B06D07B68DB6A23F0A4
:1031200006027B68DA6202E07B680022DA627B6872
:10313000002283F824207B681B686FF002021A606B
:103140007B681B689B6803F46023B3F5602F13D181
:103150007B681B68114A934205D1114B5B6803F4ED
:103160007023002B08D17B681B689A687B681B68FA
:1031700042F4A0029A600CE07B681B689A687B6846
:103180001B6842F480129A6003E07B68002283F897
:103190002420FB7B18461037BD4680BD0028014027
:1031A0000024014080B584B000AF78600023FB7339
:1031B0007B6893F82430012B01D102231AE07B684D
:1031C000012283F82420786800F068FA0346FB7334
:1031D000FB7B002B09D17B689B6A23F4885323F087
:1031E000010343F001027B689A627B68002283F846
:1031F0002420FB7B18461037BD4680BD90B587B0B4
:1032000000AF7860396000237B610023FB600023FE
:103210003B61FFF715FE78617B681B689B6803F4D0
:103220008073002B0BD07B689B6A43F020027B6885
:103230009A627B68002283F824200123C8E07B681F
:103240001B685B6803F48073002B2AD17B681B68C2
:10325000DB6A03F47003002B23D11AE03B68B3F15F
:10326000FF3F16D03B68002B07D0FFF7E9FD024671
:103270007B69D31A3A689A420BD27B689B6A43F007
:1032800004027B689A627B68002283F8242003236F
:103290009EE07B681B681B6803F00203002BDDD0F7
:1032A0006CE04D4B1C68022002F00CF90346B4FBA5
:1032B000F3F27B681B681969484B0B40002B18D14F
:1032C0007B681B68D968464B0B40002B11D17B688B
:1032D0001B681969434B0B40002B08D17B681B68A6
:1032E000D968414B0B40002B01D1142320E0292346
:1032F0001EE07B681B6819693A4B0B40002B06D116
:103300007B681B68D968384B0B40002B0DD07B685D
:103310001B681969354B0B40002B08D17B681B6873
:10332000D968324B0B40002B01D1542300E0FC2321
:1033300002FB03F33B611DE03B68B3F1FF3F16D096
:103340003B68002B07D0FFF77BFD02467B69D31A51
:103350003A689A420BD27B689B6A43F004027B680E
:103360009A627B68002283F82420032330E0FB6804
:103370000133FB60FB683A699A42DDD87B681B68C1
:103380006FF012021A607B689B6A43F400727B68DC
:103390009A627B681B689B6803F46023B3F5602F17
:1033A00015D17B681B7B002B11D17B689B6A23F4B2
:1033B00080727B689A627B689B6A03F48053002B5F
:1033C00005D17B689B6A43F001027B689A62002307
:1033D00018461C37BD4690BD0000002024499224A9
:1033E00024499200922449129224490049922400CF
:1033F00080B483B000AF78607B681B68DB6C1846D4
:103400000C37BD4680BC704780B485B000AF786093
:1034100039600023FB730023BB607B6893F8243082
:10342000012B01D10223DCE07B68012283F82420F8
:103430003B685B68062B1CD87B681B68596B3B6834
:103440005A6813469B001344053B1F2202FA03F3FC
:10345000DB4319403B6818683B685A6813469B0079
:103460001344053B00FA03F27B681B680A435A6366
:103470003CE03B685B680C2B1CD87B681B68196BB5
:103480003B685A6813469B001344233B1F2202FAF1
:1034900003F3DB4319403B6818683B685A681346DE
:1034A0009B001344233B00FA03F27B681B680A432A
:1034B0001A631BE07B681B68D96A3B685A6813462D
:1034C0009B001344413B1F2202FA03F3DB431940E4
:1034D0003B6818683B685A6813469B001344413B9D
:1034E00000FA03F27B681B680A43DA623B681B68D8
:1034F000092B1CD97B681B68D9683B681A6813467E
:103500005B0013441E3B072202FA03F3DB4319401E
:103510003B6898683B681A6813465B0013441E3B7F
:1035200000FA03F27B681B680A43DA6019E07B68E3
:103530001B6819693B681A6813465B00134407222D
:1035400002FA03F3DB4319403B6898683B681A684A
:1035500013465B00134400FA03F27B681B680A43BE
:103560001A613B681B68102B03D03B681B68112B4A
:1035700032D17B681B681D4A934225D17B681B684A
:103580009B6803F40003002B26D17B681B689A68B4
:103590007B681B6842F400029A603B681B68102B32
:1035A0001AD1134B1B68134AA2FB03239A0C134630
:1035B0009B0013445B00BB6002E0BB68013BBB6047
:1035C000BB68002BF9D107E07B689B6A43F02002BF
:1035D0007B689A620123FB737B68002283F82420B6
:1035E000FB7B18461437BD4680BC70470024014061
:1035F0000000002083DE1B4380B584B000AF7860FC
:103600000023FB600023BB607B681B689B6803F0A2
:103610000103012B39D07B681B689A687B681B68A3
:1036200042F001029A601B4B1B681B4AA2FB03235A
:103630009B0CBB6002E0BB68013BBB60BB68002B1E
:10364000F9D1FFF7FDFBF86018E0FFF7F9FB024640
:10365000FB68D31A022B11D97B689B6A43F01002D6
:103660007B689A627B68DB6A43F001027B68DA62FE
:103670007B68002283F82420012307E07B681B6815
:103680009B6803F00103012BDFD10023184610379C
:10369000BD4680BD0000002083DE1B4380B584B0A2
:1036A00000AF78600023FB607B681B689B6803F0B9
:1036B0000103012B27D17B681B689A687B681B6814
:1036C00022F001029A60FFF7BBFBF86014E0FFF7FD
:1036D000B7FB0246FB68D31A022B0DD97B689B6AA5
:1036E00043F010027B689A627B68DB6A43F0010258
:1036F0007B68DA62012307E07B681B689B6803F044
:103700000103012BE3D0002318461037BD4680BDCE
:1037100080B485B000AF78607B6803F00703FB607E
:103720000C4BDB68BB60BA684FF6FF031340BB600D
:10373000FB681A02BB68134343F0BF6343F40033D2
:10374000BB60044ABB68D36000BF1437BD4680BC71
:10375000704700BF00ED00E080B400AF044BDB68B1
:103760001B0A03F007031846BD4680BC704700BF24
:1037700000ED00E080B483B000AF03463960FB7118
:1037800097F90730002B0ADB3B68DAB20C4997F94E
:1037900007301201D2B20B4483F800230AE03B68E1
:1037A000DAB20849FB7903F00F03043B1201D2B2ED
:1037B0000B441A7600BF0C37BD4680BC704700BF73
:1037C00000E100E000ED00E080B489B000AFF860F7
:1037D000B9607A60FB6803F00703FB61FB69C3F122
:1037E0000703042B28BF0423BB61FB690433062BAA
:1037F00002D9FB69033B00E000237B614FF0FF32FD
:10380000BB6902FA03F3DA43BB681A407B699A404A
:103810004FF0FF317B6901FA03F3D9437B680B401A
:10382000134318462437BD4680BC704780B582B02C
:1038300000AF78607B68013BB3F1807F01D3012347
:103840000FE00A4A7B68013B53600F214FF0FF30C5
:10385000FFF790FF054B00229A60044B07221A6085
:10386000002318460837BD4680BD00BF10E000E0C9
:1038700080B582B000AF78607868FFF749FF00BF7D
:103880000837BD4680BD80B586B000AF0346B9603D
:103890007A60FB7300237B61FFF75EFF78617A68D3
:1038A000B9687869FFF790FF024697F90F30114623
:1038B0001846FFF75FFF00BF1837BD4680BD80B5D3
:1038C00082B000AF78607868FFF7B0FF0346184613
:1038D0000837BD4680BD000080B48BB000AF786073
:1038E000396000237B6200233B6227E101227B6A6F
:1038F00002FA03F3FB613B681B68FA691340BB6182
:10390000BA69FB699A4240F016813B685B68122BEA
:1039100034D0122B0DD8022B2BD0022B04D8002B25
:1039200031D0012B1CD048E0032B43D0112B1BD0EE
:1039300043E0894A934226D0874A934206D8874A71
:10394000934220D0864A93421DD036E0854A934266
:1039500019D0854A934216D0844A934213D02CE062
:103960003B68DB683B6228E03B68DB6804333B6212
:1039700023E03B68DB6808333B621EE03B68DB68A2
:103980000C333B6219E03B689B68002B02D1042397
:103990003B6212E03B689B68012B05D108233B6228
:1039A0007B68FA691A6108E008233B627B68FA6960
:1039B0005A6102E000233B6200BFBB69FF2B01D8C4
:1039C0007B6801E07B6804337B61BB69FF2B02D815
:1039D0007B6A9B0002E07B6A083B9B003B617B6942
:1039E0001A680F213B6901FA03F3DB431A40396A75
:1039F0003B6901FA03F31A437B691A603B685B6811
:103A000003F08053002B00F09680594B9B69584A75
:103A100043F001039361564B9B6903F00103BB60C4
:103A2000BB68544A7B6A9B08023352F82330FB6020
:103A30007B6A03F003039B000F2202FA03F3DB43CC
:103A4000FA681340FB607B684B4A934213D07B6853
:103A50004A4A93420DD07B68494A934207D07B681B
:103A6000484A934201D1032306E0042304E00223E1
:103A700002E0012300E000237A6A02F003029200D0
:103A80009340FA681343FB603A497B6A9B08023310
:103A9000FA6841F823203B685B6803F48033002B0D
:103AA00006D0394B1A683849BB6913430B6006E0EE
:103AB000354B1A68BB69DB43334913400B603B68E5
:103AC0005B6803F40033002B06D02F4B5A682E4955
:103AD000BB6913434B6006E02B4B5A68BB69DB4361
:103AE000294913404B603B685B6803F48013002B4B
:103AF00006D0254B9A682449BB6913438B6006E0C6
:103B0000214B9A68BB69DB431F4913408B603B68BC
:103B10005B6803F40013002B06D01B4BDA681A49CC
:103B2000BB691343CB6006E0174BDA68BB69DB4324
:103B300015491340CB607B6A01337B623B681A688E
:103B40007B6A22FA03F3002B7FF4D0AE00BF2C3740
:103B5000BD4680BC704700BF00002110000011105E
:103B6000000012100000311000003210000022107E
:103B7000001002400000014000080140000C01401C
:103B800000100140001401400004014080B483B0E3
:103B900000AF78600B467B8013467B707B78002BF0
:103BA00003D07A887B681A6103E07B881A047B68FB
:103BB0001A6100BF0C37BD4680BC704780B483B02B
:103BC00000AF78600B467B807B68DA687B881340A7
:103BD000002B03D07A887B685A6102E07A887B6880
:103BE0001A6100BF0C37BD4680BC704780B584B0F9
:103BF00000AF78607B68002B01D101230FE17B6867
:103C000093F83D30DBB2002B06D17B68002283F8AD
:103C10003C207868FEF726FF7B68242283F83D204D
:103C20007B681B681A687B681B6822F001021A60B7
:103C300001F04CFBF8607B685B687B4A934207D8D5
:103C4000FB687A4A934294BF01230023DBB206E06B
:103C5000FB68774A934294BF01230023DBB2002B19
:103C600001D00123DBE0FB68724AA2FB03239B0C1B
:103C7000BB607B681B685B6823F03F017B681B6847
:103C8000BA680A435A607B681B681B6A23F03F01CD
:103C90007B685B68644A934202D8BB68013309E0E1
:103CA000BB684FF4967202FB03F3634AA2FB032343
:103CB0009B0901337A6812680B4313627B681B68A7
:103CC000DB6923F44F4222F0FF027B685B685649B0
:103CD0008B420DD8FB68591E7B685B685B00B1FBAB
:103CE000F3F30133C3F30B03042B38BF04234FE07A
:103CF0007B689B68002B11D1FB68581E7B68596854
:103D00000B465B000B44B0FBF3F30133C3F30B032F
:103D1000002B0CBF01230023DBB212E0FB68581E0E
:103D20007B6859680B469B000B4499000B44B0FB21
:103D3000F3F30133C3F30B03002B0CBF0123002368
:103D4000DBB2002B01D0012322E07B689B68002BB3
:103D50000ED1FB68581E7B6859680B465B000B440C
:103D6000B0FBF3F30133C3F30B0343F400430FE061
:103D7000FB68581E7B6859680B469B000B449900F2
:103D80000B44B0FBF3F30133C3F30B0343F44043A1
:103D9000796809681343CB617B681B681B6823F053
:103DA000C0017B68DA697B681B6A1A437B681B6801
:103DB0000A431A607B681B689B6823F4034323F063
:103DC000FF037A6811697A68D26811437A681268C9
:103DD0000B4393607B681B68DB6823F0FF017B6803
:103DE0005A697B689B691A437B681B680A43DA60DF
:103DF0007B681B681A687B681B6842F001021A60C6
:103E00007B6800221A647B68202283F83D207B684F
:103E100000221A637B68002283F83E2000231846A4
:103E20001037BD4680BD00BFA08601007F841E0004
:103E3000FF083D0083DE1B43D34D621080B588B080
:103E400002AFF860084611461A4603467B810B46CE
:103E50003B811346FB80FEF7F3FF7861FB6893F824
:103E60003D30DBB2202B40F0D9807B6900931923D1
:103E700001226D49F86800F06BFC0346002B01D06D
:103E80000223CCE0FB6893F83C30012B01D10223E4
:103E9000C5E0FB68012283F83C20FB681B681B68B7
:103EA00003F00103012B07D0FB681B681A68FB684D
:103EB0001B6842F001021A60FB681B681A68FB6805
:103EC0001B6822F400621A60FB68212283F83D20FF
:103ED000FB68402283F83E20FB6800221A64FB68DE
:103EE0003A6A5A62FB68BA8C5A85FB685B8D9AB253
:103EF000FB681A85FB684D4ADA62F8883A89798945
:103F00007B690193BB6A00930346F86800F0C6FA28
:103F10000346002B52D0012381E07A69B96AF86820
:103F200000F0ECFC0346002B0DD0FB681B6C042B4F
:103F300007D1FB681B681A68FB681B6842F40072B3
:103F40001A6001236BE0FB685B6A1A78FB681B68E8
:103F50001A61FB685B6A5A1CFB685A62FB681B8D1E
:103F6000013B9AB2FB681A85FB685B8D9BB2013BF3
:103F70009AB2FB685A85FB681B685B6903F004030F
:103F8000042B1BD1FB681B8D002B17D0FB685B6AD1
:103F90001A78FB681B681A61FB685B6A5A1CFB682D
:103FA0005A62FB681B8D013B9AB2FB681A85FB685D
:103FB0005B8D9BB2013B9AB2FB685A85FB681B8DF7
:103FC000002BAAD17A69B96AF86800F0D8FC0346D8
:103FD000002B0DD0FB681B6C042B07D1FB681B6802
:103FE0001A68FB681B6842F400721A60012316E02D
:103FF000FB681B681A68FB681B6842F400721A6051
:10400000FB68202283F83D20FB68002283F83E20D5
:10401000FB68002283F83C20002300E002231846BE
:104020001837BD4680BD00BF020010000000FFFF32
:1040300080B58CB002AFF860084611461A460346B8
:104040007B810B463B811346FB80FEF7F9FE7862CD
:10405000FB6893F83D30DBB2202B40F018827B6A7E
:104060000093192301228149F86800F071FB03468F
:10407000002B01D002230BE2FB6893F83C30012BAC
:1040800001D1022304E2FB68012283F83C20FB6893
:104090001B681B6803F00103012B07D0FB681B683A
:1040A0001A68FB681B6842F001021A60FB681B6813
:1040B0001A68FB681B6822F400621A60FB682222FF
:1040C00083F83D20FB68402283F83E20FB680022F5
:1040D0001A64FB683A6B5A62FB68BA8E5A85FB68B1
:1040E0005B8D9AB2FB681A85FB68614ADA62F888D0
:1040F0003A8979897B6A0193BB6B00930346F86820
:1041000000F056FA0346002B01D00123C0E1FB6802
:104110001B8D002B13D100233B62FB681B685B697E
:104120003B62FB681B689B693B623B6AFB681B68E0
:104130001A68FB681B6842F400721A6094E1FB681D
:104140001B8D012B1DD1FB681B681A68FB681B685F
:1041500022F480621A6072B60023FB61FB681B6860
:104160005B69FB61FB681B689B69FB61FB69FB6822
:104170001B681A68FB681B6842F400721A6062B61A
:1041800072E1FB681B8D022B1DD1FB681B681A684E
:10419000FB681B6842F400621A6072B60023BB61C0
:1041A000FB681B685B69BB61FB681B689B69BB6143
:1041B000BB69FB681B681A68FB681B6822F4806295
:1041C0001A6062B650E1FB681B681A68FB681B68DE
:1041D00042F480621A6000237B61FB681B685B69A4
:1041E0007B61FB681B689B697B617B693CE1FB68C9
:1041F0001B8D032B00F2F580FB681B8D012B23D157
:104200007A6AB96BF86800F0FBFB0346002B01D01B
:1042100001233DE1FB681B681A69FB685B6AD2B247
:104220001A70FB685B6A5A1CFB685A62FB681B8D3C
:10423000013B9AB2FB681A85FB685B8D9BB2013B20
:104240009AB2FB685A850FE1FB681B8D022B50D197
:104250007B6A0093BB6B00220649F86800F078FA8D
:104260000346002B08D0012312E100BF020010001A
:104270000000FFFF0400010072B6FB681B681A68AB
:10428000FB681B6842F400721A60FB681B681A69BD
:10429000FB685B6AD2B21A70FB685B6A5A1CFB68E7
:1042A0005A62FB681B8D013B9AB2FB681A85FB685A
:1042B0005B8D9BB2013B9AB2FB685A8562B6FB6884
:1042C0001B681A69FB685B6AD2B21A70FB685B6A8A
:1042D0005A1CFB685A62FB681B8D013B9AB2FB6853
:1042E0001A85FB685B8D9BB2013B9AB2FB685A85CD
:1042F000BAE07B6A0093BB6B00226749F86800F064
:1043000027FA0346002B01D00123C1E0FB681B689C
:104310001A68FB681B6822F480621A6072B6FB6838
:104320001B681A69FB685B6AD2B21A70FB685B6A29
:104330005A1CFB685A62FB681B8D013B9AB2FB68F2
:104340001A85FB685B8D9BB2013B9AB2FB685A856C
:104350007B6A0093BB6B00224F49F86800F0F8F9C4
:104360000346002B01D0012392E0FB681B681A680A
:10437000FB681B6842F400721A60FB681B681A69CC
:10438000FB685B6AD2B21A70FB685B6A5A1CFB68F6
:104390005A62FB681B8D013B9AB2FB681A85FB6869
:1043A0005B8D9BB2013B9AB2FB685A8562B6FB6893
:1043B0001B681A69FB685B6AD2B21A70FB685B6A99
:1043C0005A1CFB685A62FB681B8D013B9AB2FB6862
:1043D0001A85FB685B8D9BB2013B9AB2FB685A85DC
:1043E00042E07A6AB96BF86800F00AFB0346002BDA
:1043F00001D001234CE0FB681B681A69FB685B6A0B
:10440000D2B21A70FB685B6A5A1CFB685A62FB687E
:104410001B8D013B9AB2FB681A85FB685B8D9BB2D2
:10442000013B9AB2FB685A85FB681B685B6903F025
:104430000403042B18D1FB681B681A69FB685B6ACC
:10444000D2B21A70FB685B6A5A1CFB685A62FB683E
:104450001B8D013B9AB2FB681A85FB685B8D9BB292
:10446000013B9AB2FB685A85FB681B8D002B7FF4D9
:10447000BEAEFB68202283F83D20FB68002283F853
:104480003E20FB68002283F83C20002300E002234A
:1044900018462837BD4680BD0400010080B588B0AD
:1044A00002AFF860084611461A4603467B810B4668
:1044B0003B811346FB80FB681B681A68FB681B681E
:1044C00042F480721A607B6A00933B6A00224FF0CC
:1044D0000111F86800F03CF90346002B01D00123DC
:1044E0005FE07B89DBB21A46FB681B6802F0FE02C4
:1044F0001A617B6A3A6A2D49F86800F080F9034630
:10450000002B01D001234CE000237B61FB681B687A
:104510005B697B61FB681B689B697B617B697A6A6D
:10452000396AF86800F0EAF90346002B0DD0FB6801
:104530001B6C042B07D1FB681B681A68FB681B689F
:1045400042F400721A6001232BE0FB88012B05D195
:104550003B89DAB2FB681B681A6121E03B891B0AC0
:104560009BB2DAB2FB681B681A617A6A396AF8682A
:1045700000F0C4F90346002B0DD0FB681B6C042B24
:1045800007D1FB681B681A68FB681B6842F400725D
:104590001A60012305E03B89DAB2FB681B681A61E7
:1045A000002318461837BD4680BD00BF0200010039
:1045B00080B588B002AFF860084611461A46034637
:1045C0007B810B463B811346FB80FB681B681A68A6
:1045D000FB681B6842F480621A60FB681B681A68FB
:1045E000FB681B6842F480721A607B6A00933B6A26
:1045F00000224FF00111F86800F0AAF80346002BE2
:1046000001D001239EE07B89DBB21A46FB681B6860
:1046100002F0FE021A617B6A3A6A4C49F86800F0BF
:10462000EEF80346002B01D001238BE000237B61D1
:10463000FB681B685B697B61FB681B689B697B612E
:104640007B697A6A396AF86800F058F90346002BEA
:104650000DD0FB681B6C042B07D1FB681B681A6824
:10466000FB681B6842F400721A6001236AE0FB8851
:10467000012B05D13B89DAB2FB681B681A6121E086
:104680003B891B0A9BB2DAB2FB681B681A617A6A23
:10469000396AF86800F032F90346002B0DD0FB6848
:1046A0001B6C042B07D1FB681B681A68FB681B682E
:1046B00042F400721A60012344E03B89DAB2FB68DD
:1046C0001B681A617A6A396AF86800F017F90346BC
:1046D000002B0DD0FB681B6C042B07D1FB681B68FB
:1046E0001A68FB681B6842F400721A60012329E013
:1046F000FB681B681A68FB681B6842F480721A60CA
:104700007B6A00933B6A00224FF00111F86800F0C9
:104710001FF80346002B01D0012313E07B89DBB295
:1047200043F00103DAB2FB681B681A617B6A3A6ADC
:104730000649F86800F063F80346002B01D0012316
:1047400000E0002318461837BD4680BD0200010076
:1047500080B584B000AFF860B9603B601346FB7170
:1047600025E03B68B3F1FF3F21D0FEF769FB02462D
:10477000BB69D31A3A689A4202D33B68002B16D120
:10478000FB6800221A63FB68202283F83D20FB6847
:10479000002283F83E20FB681B6C43F02002FB687C
:1047A0001A64FB68002283F83C20012323E0BB68E5
:1047B0001B0CDBB2012B0DD1FB681B685B69DA4374
:1047C000BB6813409BB2002B0CBF01230023DBB25C
:1047D0001A460CE0FB681B689B69DA43BB68134010
:1047E0009BB2002B0CBF01230023DBB21A46FB79DE
:1047F0009A42B6D0002318461037BD4680BD80B51A
:1048000084B000AFF860B9607A603B6051E0FB684B
:104810001B685B6903F48063B3F5806F23D1FB6889
:104820001B681A68FB681B6842F400721A60FB6818
:104830001B686FF480625A61FB6800221A63FB6890
:10484000202283F83D20FB68002283F83E20FB688D
:104850001B6C43F00402FB681A64FB68002283F8B7
:104860003C20012346E07B68B3F1FF3F21D0FEF7F7
:10487000E7FA02463B68D31A7A689A4202D37B6809
:10488000002B16D1FB6800221A63FB68202283F8F4
:104890003D20FB68002283F83E20FB681B6C43F040
:1048A0002002FB681A64FB68002283F83C20012385
:1048B00020E0BB681B0CDBB2012B0CD1FB681B6832
:1048C0005B69DA43BB6813409BB2002B14BF012322
:1048D0000023DBB20BE0FB681B689B69DA43BB6813
:1048E00013409BB2002B14BF01230023DBB2002B2B
:1048F0008DD1002318461037BD4680BD80B584B0E9
:1049000000AFF860B9607A602DE0F86800F0CEF88A
:104910000346002B01D001232DE0BB68B3F1FF3F1C
:1049200021D0FEF78DFA02467B68D31ABA689A4204
:1049300002D3BB68002B16D1FB6800221A63FB6808
:10494000202283F83D20FB68002283F83E20FB688C
:104950001B6C43F02002FB681A64FB68002283F89A
:104960003C20012307E0FB681B685B6903F08003C0
:10497000802BCAD1002318461037BD4680BD80B5B4
:1049800084B000AFF860B9607A602DE0F86800F09C
:104990008DF80346002B01D001232DE0BB68B3F155
:1049A000FF3F21D0FEF74CFA02467B68D31ABA6863
:1049B0009A4202D3BB68002B16D1FB6800221A630F
:1049C000FB68202283F83D20FB68002283F83E200C
:1049D000FB681B6C43F02002FB681A64FB68002232
:1049E00083F83C20012307E0FB681B685B6903F048
:1049F0000403042BCAD1002318461037BD4680BDDE
:104A000080B584B000AFF860B9607A6042E0FB68BE
:104A10001B685B6903F01003102B19D1FB681B683E
:104A20006FF010025A61FB6800221A63FB682022B3
:104A300083F83D20FB68002283F83E20FB681A6C57
:104A4000FB681A64FB68002283F83C20012329E0FC
:104A5000FEF7F6F902467B68D31ABA689A4202D387
:104A6000BB68002B16D1FB6800221A63FB6820226A
:104A700083F83D20FB68002283F83E20FB681B6C16
:104A800043F02002FB681A64FB68002283F83C2094
:104A9000012307E0FB681B685B6903F04003402BC0
:104AA000B5D1002318461037BD4680BD80B483B011
:104AB00000AF78607B681B685B6903F48063B3F5C3
:104AC000806F1BD17B681B686FF480625A617B68C2
:104AD00000221A637B68202283F83D207B68002235
:104AE00083F83E207B681B6C43F004027B681A64E9
:104AF0007B68002283F83C20012300E00023184655
:104B00000C37BD4680BC704780B400AF034B012218
:104B10001A6000BFBD4680BC704700BF20000E4237
:104B200080B586B000AF78607B68002B01D101238F
:104B30006CE27B681B6803F00103002B00F08780A8
:104B4000924B5B6803F00C03042B0CD08F4B5B681B
:104B500003F00C03082B12D18C4B5B6803F48033F9
:104B6000B3F5803F0BD1894B1B6803F40033002B56
:104B70006CD07B685B68002B68D1012346E27B68C0
:104B80005B68B3F5803F06D1804B1B687F4A43F4D6
:104B9000803313602EE07B685B68002B0CD17B4B6D
:104BA0001B687A4A23F480331360784B1B68774A7A
:104BB00023F4802313601DE07B685B68B3F5A02FAE
:104BC0000CD1724B1B68714A43F4802313606F4B06
:104BD0001B686E4A43F4803313600BE06B4B1B6819
:104BE0006A4A23F480331360684B1B68674A23F4D6
:104BF000802313607B685B68002B13D0FEF720F9DD
:104C0000386108E0FEF71CF902463B69D31A642BB1
:104C100001D90323FAE15D4B1B6803F40033002B39
:104C2000F0D014E0FEF70CF9386108E0FEF708F95F
:104C300002463B69D31A642B01D90323E6E1534BA7
:104C40001B6803F40033002BF0D100E000BF7B6849
:104C50001B6803F00203002B63D04C4B5B6803F02E
:104C60000C03002B0BD0494B5B6803F00C03082BA3
:104C70001CD1464B5B6803F48033002B16D1434BA9
:104C80001B6803F00203002B05D07B681B69012B16
:104C900001D00123BAE13D4B1B6823F0F8027B6889
:104CA0005B69DB00394913430B603AE07B681B69A1
:104CB000002B20D0364B01221A60FEF7C1F8386174
:104CC00008E0FEF7BDF802463B69D31A022B01D972
:104CD00003239BE12D4B1B6803F00203002BF0D054
:104CE0002A4B1B6823F0F8027B685B69DB002749CD
:104CF00013430B6015E0264B00221A60FEF7A0F864
:104D0000386108E0FEF79CF802463B69D31A022B93
:104D100001D903237AE11D4B1B6803F00203002B2A
:104D2000F0D17B681B6803F00803002B3AD07B6846
:104D30009B69002B19D0174B01221A60FEF780F8EF
:104D4000386108E0FEF77CF802463B69D31A022B73
:104D500001D903235AE10D4B5B6A03F00203002BD8
:104D6000F0D0012000F0DAFA1CE00A4B00221A60B1
:104D7000FEF766F838610FE0FEF762F802463B691D
:104D8000D31A022B08D9032340E100BF00100240D0
:104D900000004242800442429E4B5B6A03F00203E1
:104DA000002BE9D17B681B6803F00403002B00F0A3
:104DB000A6800023FB75974BDB6903F08053002B23
:104DC0000DD1944BDB69934A43F08053D361914BEF
:104DD000DB6903F08053BB60BB680123FB758E4B1E
:104DE0001B6803F48073002B18D18B4B1B688A4A15
:104DF00043F480731360FEF723F8386108E0FEF790
:104E00001FF802463B69D31A642B01D90323FDE046
:104E1000814B1B6803F48073002BF0D07B68DB6848
:104E2000012B06D17B4B1B6A7A4A43F001031362C4
:104E30002DE07B68DB68002B0CD1764B1B6A754A32
:104E400023F001031362734B1B6A724A23F00403BD
:104E500013621CE07B68DB68052B0CD16D4B1B6A71
:104E60006C4A43F0040313626A4B1B6A694A43F0BD
:104E7000010313620BE0674B1B6A664A23F00103D0
:104E80001362644B1B6A634A23F0040313627B685A
:104E9000DB68002B15D0FDF7D3FF38610AE0FDF782
:104EA000CFFF02463B69D31A41F28832934201D9BF
:104EB0000323ABE0574B1B6A03F00203002BEED039
:104EC00014E0FDF7BDFF38610AE0FDF7B9FF0246C7
:104ED0003B69D31A41F28832934201D9032395E00A
:104EE0004C4B1B6A03F00203002BEED1FB7D012B20
:104EF00005D1484BDB69474A23F08053D3617B6877
:104F0000DB69002B00F08180424B5B6803F00C03EF
:104F1000082B61D07B68DB69022B46D13F4B002216
:104F20001A60FDF78DFF386108E0FDF789FF024642
:104F30003B69D31A022B01D9032367E0354B1B6869
:104F400003F00073002BF0D17B681B6AB3F5803F40
:104F500008D1304B5B6823F400327B689B682D4995
:104F600013434B602B4B5B6823F474127B68196A04
:104F70007B685B6A0B43274913434B60274B012235
:104F80001A60FDF75DFF386108E0FDF759FF024642
:104F90003B69D31A022B01D9032337E01D4B1B6851
:104FA00003F00073002BF0D02FE01C4B00221A609E
:104FB000FDF746FF386108E0FDF742FF02463B6916
:104FC000D31A022B01D9032320E0124B1B6803F0F4
:104FD0000073002BF0D118E07B68DB69012B01D155
:104FE000012313E00B4B5B68FB60FB6803F480322A
:104FF0007B681B6A9A4206D1FB6803F470127B68D7
:105000005B6A9A4201D0012300E00023184618375A
:10501000BD4680BD0010024000700040600042426A
:1050200080B584B000AF786039607B68002B01D117
:105030000123D0E06A4B1B6803F007033A689A42E9
:1050400010D9674B1B6823F0070265493B6813437F
:105050000B60634B1B6803F007033A689A4201D068
:105060000123B8E07B681B6803F00203002B20D00B
:105070007B681B6803F00403002B05D0594B5B6869
:10508000584A43F4E06353607B681B6803F00803ED
:10509000002B05D0534B5B68524A43F46053536076
:1050A000504B5B6823F0F0027B689B684D491343CB
:1050B0004B607B681B6803F00103002B40D07B68CA
:1050C0005B68012B07D1474B1B6803F40033002BAF
:1050D00015D101237FE07B685B68022B07D1414B30
:1050E0001B6803F00073002B09D1012373E03D4BD3
:1050F0001B6803F00203002B01D101236BE0394B45
:105100005B6823F003027B685B68364913434B609E
:10511000FDF796FEF8600AE0FDF792FE0246FB6896
:10512000D31A41F28832934201D9032353E02D4B25
:105130005B6803F00C027B685B689B009A42EBD1D2
:10514000274B1B6803F007033A689A4210D2244B9E
:105150001B6823F0070222493B6813430B60204B76
:105160001B6803F007033A689A4201D0012332E03A
:105170007B681B6803F00403002B08D0194B5B68A5
:1051800023F4E0627B68DB68164913434B607B685D
:105190001B6803F00803002B09D0124B5B6823F453
:1051A00060527B681B69DB000E4913434B6000F0C3
:1051B00021F801460B4B5B681B0903F00F030A4AF9
:1051C000D35C21FA03F3094A1360094B1B681846A4
:1051D000FDF7F4FD002318461037BD4680BD00BF23
:1051E0000020024000100240688A000800000020F1
:1051F0000400002090B48AB000AF2A4B3C1D0FCBB6
:1052000084E80F00284B1B883B800023FB610023B0
:10521000BB6100237B6200237B6100233B62234B45
:105220005B68FB61FB6903F00C03042B02D0082BC5
:1052300003D02DE01E4B3B622DE0FB699B0C03F07D
:105240000F0307F12802134413F8243C7B61FB6928
:1052500003F48033002B13D0144B5B685B0C03F01A
:10526000010307F12802134413F8283CBB617B6952
:105270000F4A02FB03F2BB69B2FBF3F37B6204E06B
:105280007B690C4A02FB03F37B627B6A3B6202E0B0
:10529000074B3B6200BF3B6A18462837BD4690BCAF
:1052A000704700BF408A0008508A00080010024082
:1052B00000127A0000093D0080B400AF024B1B6869
:1052C0001846BD4680BC70470000002080B500AF86
:1052D000FFF7F2FF0146054B5B681B0A03F007036B
:1052E000034AD35C21FA03F3184680BD0010024044
:1052F000788A000880B500AFFFF7DEFF0146054B56
:105300005B68DB0A03F00703034AD35C21FA03F36B
:10531000184680BD00100240788A000880B485B02D
:1053200000AF78600A4B1B680A4AA2FB03235B0AA2
:105330007A6802FB03F3FB6000BFFB685A1EFA6049
:10534000002BF9D100BF1437BD4680BC704700BFA9
:1053500000000020D34D621080B586B000AF7860A9
:1053600000233B610023FB607B681B6803F00103A3
:10537000002B7DD00023FB754F4BDB6903F080537E
:10538000002B0DD14C4BDB694B4A43F08053D3616A
:10539000494BDB6903F08053BB60BB680123FB759D
:1053A000464B1B6803F48073002B18D1434B1B68DA
:1053B000424A43F480731360FDF742FD386108E010
:1053C000FDF73EFD02463B69D31A642B01D9032346
:1053D0006DE03A4B1B6803F48073002BF0D0364B22
:1053E0001B6A03F44073FB60FB68002B2ED07B68C4
:1053F0005B6803F44073FA689A4227D02E4B1B6A0D
:1054000023F44073FB602E4B01221A602C4B0022C8
:105410001A60294AFB681362FB6803F00103002B42
:1054200014D0FDF70DFD38610AE0FDF709FD0246D5
:105430003B69D31A41F28832934201D9032336E003
:105440001D4B1B6A03F00203002BEED01A4B1B6AA4
:1054500023F440727B685B68174913430B62FB7D42
:10546000012B05D1144BDB69134A23F08053D36120
:105470007B681B6803F00203002B08D00E4B5B68AF
:1054800023F440427B689B680B4913434B607B6865
:105490001B6803F01003002B08D0074B5B6823F454
:1054A00080027B68DB68044913434B600023184685
:1054B0001837BD4680BD00BF00100240007000409C
:1054C0004004424290B58DB000AF7860554B07F173
:1054D0000C040FCB84E80F00534B1B883B81002347
:1054E0007B620023FB6200233B620023FB610023FD
:1054F000BB627B68022B7FD0102B02D0012B48D0DF
:105500008BE04A4B5B68FB61484B1B6803F0807380
:10551000002B7FD0FB699B0C03F00F0307F13002D7
:10552000134413F8243C3B62FB6903F48033002BE3
:1055300018D03E4B5B685B0C03F0010307F13002AF
:10554000134413F8283C7B62FB6903F48033002B7F
:105550000DD0374A7B6AB2FBF3F23B6A02FB03F3DE
:10556000FB6204E03B6A334A02FB03F3FB622F4B0E
:105570005B6803F48003B3F5800F02D1FB6ABB6262
:1055800048E0FB6A5B002C4AA2FB03235B08BB627A
:1055900040E0264B1B6AFB61FB6903F44073B3F5E3
:1055A000807F08D1FB6903F00203002B03D04FF486
:1055B0000043BB621FE0FB6903F44073B3F5007F57
:1055C00009D11A4B5B6A03F00203002B03D049F6A2
:1055D0004043BB620FE0FB6903F44073B3F5407FC7
:1055E0001AD1124B1B6803F40033002B14D04FF276
:1055F0002443BB6210E00FE0FFF77CFE02460B4B3A
:105600005B689B0B03F0030301335B00B2FBF3F316
:10561000BB6202E000BF00E000BFBB6A184634373F
:10562000BD4690BD548A0008648A000800100240FC
:1056300000127A0000093D00ABAAAAAA80B584B086
:1056400000AF78600023FB607B68002B01D1012351
:1056500084E07B685B7CDBB2002B05D17B68002299
:105660001A747868FDF73CFA7B6802225A747868ED
:1056700000F0A0FA0346002B04D07B6804225A7481
:1056800001236BE0786800F059FB0346002B04D03F
:105690007B6804225A74012360E07B681B685A68A7
:1056A0007B681B6822F007025A607B689B68002BAE
:1056B00005D02C4B1B6B2B4A23F001031363294BA2
:1056C000DB6A23F460727B689B6826491343CB62D4
:1056D0007B685B68B3F1FF3F03D07B685B68FB606E
:1056E0000EE00120FFF7EEFEF860FB68002B04D10E
:1056F0007B6804225A74012330E0FB68013BFB60A5
:105700007B681B689B6823F00F01FB681A0C7B68A1
:105710001B680A439A607B681B68DB681B0C1B04D0
:10572000FA6891B27A6812680B43D360786800F027
:105730002DFB0346002B04D07B6804225A740123FE
:105740000CE07B680022DA737B6801225A737B6865
:1057500001229A737B6801225A740023184610377D
:10576000BD4680BD006C004090B587B000AFF860CA
:10577000B9607A6000237B6100233B61FB68002BEA
:1057800002D0BB68002B01D1012380E0FB681B7CA9
:10579000012B01D102237AE0FB6801221A74FB6815
:1057A00002225A747B68002B13D1BB681B781A46FF
:1057B0004FF4616303FB02F2BB685B7819460B464A
:1057C0001B015B1A9B001344BA68927813447B61F7
:1057D0001EE0BB681B78184600F01DFB03461A4606
:1057E0004FF4616303FB02F4BB685B78184600F07A
:1057F00012FB03461A4613461B019B1A9B001C44CE
:10580000BB689B78184600F006FB034623447B6187
:105810007969F86800F02BFA0346002B07D0FB6883
:1058200004225A74FB6800221A7401232FE0FB68DB
:105830001B685A68FB681B6822F005025A60F8680A
:1058400000F03CFA38613B69B3F1FF3F18D03A6988
:105850007B699A4214D23B6903F5A83303F5C07300
:105860003B613969F86800F042FA0346002B07D023
:10587000FB6804225A74FB6800221A74012306E0B4
:10588000FB6801225A74FB6800221A740023184630
:105890001C37BD4690BD000080B588B000AFF860F1
:1058A000B9607A600023BB610023FB6100237B6148
:1058B00000233B61FB68002B02D0BB68002B01D1A9
:1058C0000123B5E0FB681B685B6803F00403002B51
:1058D00001D00123ACE0F86800F099F9B861BB6928
:1058E000554AA2FB0323DB0A3B61BA69524BA3FB77
:1058F0000213DB0A4FF4616101FB03F3D31A4F4A31
:10590000A2FB03235B09DAB2BB685A70BB694A4A3F
:10591000A2FB0312D20A4FF4616101FB02F29A1A50
:10592000464BA3FB021359090B461B015B1A9B0054
:10593000D11ACAB2BB689A703B69172B55D93B691B
:105940003F4AA2FB03231B097B6139693C4BA3FB44
:1059500001231A0913465B001344DB00CA1AD2B2B2
:10596000BB681A70F86800F0A9F9F861FB69B3F137
:10597000FF3F08D0FA69BB699A4204D9FA69BB694A
:10598000D31AFB6102E04FF0FF33FB617B692D4AC4
:1059900002FB03F3BA69D31ABB61B969F86800F076
:1059A00066F90346002B01D0012341E0FB69B3F106
:1059B000FF3F0CD0FA69BB691344FB61F969F868D1
:1059C00000F095F90346002B0AD0012330E0F96975
:1059D000F86800F08CF90346002B01D0012327E082
:1059E0007969F86800F034FA03E03B69DAB2BB6821
:1059F0001A707B68002B1AD0BB681B78184600F021
:105A0000EDF903461A46BB681A70BB685B78184606
:105A100000F0E4F903461A46BB685A70BB689B78ED
:105A2000184600F0DBF903461A46BB689A7000235B
:105A300018462037BD4680BDC5B3A29189888888A5
:105A4000ABAAAAAA8051010080B588B000AFF86067
:105A5000B9607A600023FB610023BB6100237B6196
:105A6000FB68002B02D0BB68002B01D1012397E01B
:105A7000FB681B7C012B01D1022391E0FB68012212
:105A80001A74FB6802225A747B68002B0CD1BB6825
:105A9000DA78FB68DA73BB685A78FB685A73BB68BC
:105AA0009A78FB689A731AE0BB68DB78184600F0B6
:105AB000B2F903461A46FB68DA73BB685B7818468E
:105AC00000F0A9F903461A46FB685A73BB689B7835
:105AD000184600F0A0F903461A46FB689A73FB6863
