:020000040800F2
:10000000005000203D280008292700083527000857
:100010003B27000841270008472700080000000090
:100020000000000000000000000000004D27000854
:100030005927000800000000652700087127000804
:1000400085280008852800088528000885280008DC
:1000500085280008852800088528000885280008CC
:1000600085280008852800088528000885280008BC
:1000700085280008852800088528000885280008AC
:10008000852800088528000885280008852800089C
:10009000852800088528000885280008852800088C
:1000A000852800088528000885280008852800087C
:1000B000852800088528000885280008852800086C
:1000C000852800088528000885280008852800085C
:1000D000852800088528000885280008852800084C
:1000E00085280008852800088528000800000000F1
:1000F0000000000000000000000000000000000000
:0C01000000000000000000005FF808F1A3
:1001100010B5054C237833B9044B13B10448AFF341
:1001200000800123237010BD70000020000000003B
:100130002454000808B5034B1BB103490348AFF32F
:10014000008008BD00000000740000202454000856
:10015000034613F8012B002AFBD1181A0138704707
:1001600081F0004102E000BF83F0004330B54FEA68
:1001700041044FEA430594EA050F08BF90EA020FD5
:100180001FBF54EA000C55EA020C7FEA645C7FEA68
:10019000655C00F0E2804FEA5454D4EB5555B8BF8B
:1001A0006D420CDD2C4480EA020281EA030382EAFC
:1001B000000083EA010180EA020281EA0303362D8E
:1001C00088BF30BD11F0004F4FEA01314FF4801C61
:1001D0004CEA113102D0404261EB410113F0004F73
:1001E0004FEA03334CEA133302D0524263EB43032A
:1001F00094EA050F00F0A780A4F10104D5F1200EC8
:100200000DDB02FA0EFC22FA05F2801841F1000122
:1002100003FA0EF2801843FA05F359410EE0A5F1F6
:1002200020050EF1200E012A03FA0EFC28BF4CF027
:10023000020C43FA05F3C01851EBE37101F00045DD
:1002400007D54FF0000EDCF1000C7EEB00006EEBEA
:100250000101B1F5801F1BD3B1F5001F0CD3490874
:100260005FEA30004FEA3C0C04F101044FEA4452CB
:1002700012F5800F80F09A80BCF1004F08BF5FEA52
:10028000500C50F1000041EB045141EA050130BD32
:100290005FEA4C0C404141EB010111F4801FA4F1D5
:1002A0000104E9D191F0000F04BF01460020B1FA2A
:1002B00081F308BF2033A3F10B03B3F120020CDA62
:1002C0000C3208DD02F1140CC2F10C0201FA0CF040
:1002D00021FA02F10CE002F11402D8BFC2F1200CA5
:1002E00001FA02F120FA0CFCDCBF41EA0C0190405B
:1002F000E41AA2BF01EB0451294330BD6FEA0404A4
:100300001F3C1CDA0C340EDC04F11404C4F120028E
:1003100020FA04F001FA02F340EA030021FA04F3A0
:1003200045EA030130BDC4F10C04C4F1200220FAF7
:1003300002F001FA04F340EA0300294630BD21FA35
:1003400004F0294630BD94F0000F83F4801306BFFB
:1003500081F480110134013D4EE77FEA645C18BFEF
:100360007FEA655C29D094EA050F08BF90EA020F86
:1003700005D054EA000C04BF1946104630BD91EA7E
:10038000030F1EBF0021002030BD5FEA545C05D181
:100390004000494128BF41F0004130BD14F58004C0
:1003A0003CBF01F5801130BD01F0004545F0FE4134
:1003B00041F470014FF0000030BD7FEA645C1ABF69
:1003C000194610467FEA655C1CBF0B46024650EAA0
:1003D000013406BF52EA033591EA030F41F40021CC
:1003E00030BD00BF90F0000F04BF0021704730B552
:1003F0004FF4806404F132044FF000054FF0000127
:1004000050E700BF90F0000F04BF0021704730B5E7
:100410004FF4806404F1320410F0004548BF4042BC
:100420004FF000013EE700BF42004FEAE2014FEA11
:1004300031014FEA02701FBF12F07F4393F07F4FEC
:1004400081F06051704732F07F4208BF704793F0EF
:100450007F4F04BF41F40021704730B54FF4607402
:1004600001F0004521F000411CE700BF50EA010205
:1004700008BF704730B54FF000050AE050EA0102AE
:1004800008BF704730B511F0004502D5404261EB1E
:1004900041014FF4806404F132045FEA915C3FF45F
:1004A000D8AE4FF003025FEADC0C18BF03325FEAFC
:1004B000DC0C18BF033202EBDC02C2F1200300FAAD
:1004C00003FC20FA02F001FA03FE40EA0E0021FAD2
:1004D00002F11444BDE600BF70B54FF0FF0C4CF4C0
:1004E000E06C1CEA11541DBF1CEA135594EA0C0F72
:1004F00095EA0C0F00F0DEF82C4481EA030621EAAD
:100500004C5123EA4C5350EA013518BF52EA0335E7
:1005100041F4801143F4801338D0A0FB02CE4FF099
:100520000005E1FB02E506F00042E0FB03E54FF0C9
:100530000006E1FB03569CF0000F18BF4EF0010EC1
:10054000A4F1FF04B6F5007F64F5407404D25FEABD
:100550004E0E6D4146EB060642EAC62141EA555170
:100560004FEAC52040EA5E504FEACE2EB4F1FD0CB2
:1005700088BFBCF5E06F1ED8BEF1004F08BF5FEA30
:10058000500E50F1000041EB045170BD06F00046E2
:1005900046EA010140EA020081EA0301B4EB5C048F
:1005A000C2BFD4EB0C0541EA045170BD41F4801187
:1005B0004FF0000E013C00F3AB8014F1360FDEBFAC
:1005C000002001F0004170BDC4F10004203C35DA88
:1005D0000C341BDC04F11404C4F1200500FA05F30B
:1005E00020FA04F001FA05F240EA020001F00042AC
:1005F00021F0004110EBD37021FA04F642EB060122
:100600005EEA430E08BF20EAD37070BDC4F10C044B
:10061000C4F1200500FA04F320FA05F001FA04F20F
:1006200040EA020001F0004110EBD37041F10001FB
:100630005EEA430E08BF20EAD37070BDC4F1200506
:1006400000FA05F24EEA020E20FA04F301FA05F26E
:1006500043EA020321FA04F001F0004121FA04F216
:1006600020EA020000EBD3705EEA430E08BF20EAE6
:10067000D37070BD94F0000F0FD101F00046400020
:1006800041EB010111F4801F08BF013CF7D041EAA2
:10069000060195F0000F18BF704703F000465200A6
:1006A00043EB030313F4801F08BF013DF7D043EA77
:1006B0000603704794EA0C0F0CEA135518BF95EA2D
:1006C0000C0F0CD050EA410618BF52EA4306D1D1B4
:1006D00081EA030101F000414FF0000070BD50EAD3
:1006E000410606BF1046194652EA430619D094EA5D
:1006F0000C0F02D150EA013613D195EA0C0F05D147
:1007000052EA03361CBF104619460AD181EA03019A
:1007100001F0004141F0FE4141F470014FF0000052
:1007200070BD41F0FE4141F4780170BD70B54FF0ED
:10073000FF0C4CF4E06C1CEA11541DBF1CEA13556D
:1007400094EA0C0F95EA0C0F00F0A7F8A4EB05044F
:1007500081EA030E52EA03354FEA013100F0888046
:100760004FEA03334FF0805545EA131343EA12630F
:100770004FEA022245EA111545EA10654FEA0026C4
:100780000EF000419D4208BF964244F1FD0404F57D
:10079000407402D25B084FEA3202B61A65EB0305D9
:1007A0005B084FEA32024FF480104FF4002CB6EB96
:1007B000020E75EB030E22BFB61A754640EA0C0016
:1007C0005B084FEA3202B6EB020E75EB030E22BF56
:1007D000B61A754640EA5C005B084FEA3202B6EB97
:1007E000020E75EB030E22BFB61A754640EA9C0056
:1007F0005B084FEA3202B6EB020E75EB030E22BF26
:10080000B61A754640EADC0055EA060E18D04FEAE3
:10081000051545EA16754FEA06164FEAC30343EA83
:1008200052734FEAC2025FEA1C1CC0D111F4801F50
:100830000BD141EA00014FF000004FF0004CB6E749
:1008400011F4801F04BF01430020B4F1FD0C88BFE8
:10085000BCF5E06F3FF6AFAEB5EB030C04BFB6EBF3
:10086000020C5FEA500C50F1000041EB045170BDE6
:100870000EF0004E4EEA113114EB5C04C2BFD4EB13
:100880000C0541EA045170BD41F480114FF0000E97
:10089000013C90E645EA060E8DE60CEA135594EA13
:1008A0000C0F08BF95EA0C0F3FF43BAF94EA0C0F16
:1008B0000AD150EA01347FF434AF95EA0C0F7FF48B
:1008C00025AF104619462CE795EA0C0F06D152EADF
:1008D00003353FF4FDAE1046194622E750EA4106C3
:1008E00018BF52EA43067FF4C5AE50EA41047FF4D4
:1008F0000DAF52EA43057FF4EBAE12E74FEA410237
:10090000B2F1E04324BFB3F5001CDCF1FE5C0DD96D
:1009100001F0004C4FEAC0024CEA5070B2F1004FB7
:1009200040EB830008BF20F00100704711F0804FBA
:1009300021D113F13872BCBF01F00040704741F47F
:1009400080114FEA5252C2F11802C2F1200C10FA83
:100950000CF320FA02F018BF40F001004FEAC12367
:100960004FEAD32303FA0CFC40EA0C0023FA02F30B
:100970004FEA4303CCE77FEA625307D150EA0133E1
:100980001EBF4FF0FE4040F44000704701F00040B1
:1009900040F0FE4040F40000704700BF80F000408F
:1009A00002E000BF81F0004142001FBF5FEA410347
:1009B00092EA030F7FEA226C7FEA236C6AD04FEA47
:1009C0001262D2EB1363C1BFD2184140484041408C
:1009D000B8BF5B42192B88BF704710F0004F40F43E
:1009E000000020F07F4018BF404211F0004F41F45A
:1009F000000121F07F4118BF494292EA030F3FD026
:100A0000A2F1010241FA03FC10EB0C00C3F1200338
:100A100001FA03F100F0004302D5494260EB4000C7
:100A2000B0F5000F13D3B0F1807F06D340084FEA32
:100A3000310102F10102FE2A51D2B1F1004F40EB27
:100A4000C25008BF20F0010040EA0300704749008F
:100A500040EB000010F4000FA2F10102EDD1B0FA5A
:100A600080FCACF1080CB2EB0C0200FA0CF0AABF4F
:100A700000EBC25052421843BCBFD04018437047ED
:100A800092F0000F81F4000106BF80F400000132F3
:100A9000013BB5E74FEA41037FEA226C18BF7FEACA
:100AA000236C21D092EA030F04D092F0000F08BF0C
:100AB0000846704790EA010F1CBF0020704712F0F3
:100AC0007F4F04D1400028BF40F00040704712F132
:100AD00000723CBF00F50000704700F0004343F097
:100AE000FE4040F4000070477FEA226216BF0846CD
:100AF0007FEA23630146420206BF5FEA412390EA90
:100B0000010F40F4800070474FF0000304E000BF85
:100B100010F0004348BF40425FEA000C08BF704736
:100B200043F0964301464FF000001CE050EA0102FA
:100B300008BF70474FF000030AE000BF50EA01020F
:100B400008BF704711F0004302D5404261EB4101FC
:100B50005FEA010C02BF84460146002043F0B64321
:100B600008BFA3F18053A3F50003BCFA8CF2083A46
:100B7000A3EBC25310DB01FA02FC634400FA02FC4F
:100B8000C2F12002BCF1004F20FA02F243EB020056
:100B900008BF20F00100704702F1200201FA02FCB8
:100BA000C2F1200250EA4C0021FA02F243EB0200AB
:100BB00008BF20EADC7070474FF0FF0C1CEAD052EF
:100BC0001EBF1CEAD15392EA0C0F93EA0C0F6FD0B0
:100BD0001A4480EA010C400218BF5FEA41211ED08E
:100BE0004FF0006343EA501043EA5111A0FB01317A
:100BF0000CF00040B1F5000F3EBF490041EAD3714F
:100C00005B0040EA010062F17F02FD2A1DD8B3F1CA
:100C1000004F40EBC25008BF20F00100704790F039
:100C2000000F0CF0004C08BF49024CEA502040EA8B
:100C300051207F3AC2BFD2F1FF0340EAC250704751
:100C400040F400004FF00003013A5DDC12F1190F8F
:100C5000DCBF00F000407047C2F10002410021FA01
:100C600002F1C2F1200200FA02FC5FEA310040F119
:100C7000000053EA4C0308BF20EADC70704792F092
:100C8000000F00F0004C02BF400010F4000F013ACA
:100C9000F9D040EA0C0093F0000F01F0004C02BFC5
:100CA000490011F4000F013BF9D041EA0C018FE734
:100CB0000CEAD15392EA0C0F18BF93EA0C0F0AD03A
:100CC00030F0004C18BF31F0004CD8D180EA010060
:100CD00000F00040704790F0000F17BF90F0004FF9
:100CE000084691F0000F91F0004F14D092EA0C0FDB
:100CF00001D142020FD193EA0C0F03D14B0218BF6E
:100D0000084608D180EA010000F0004040F0FE40B3
:100D100040F40000704740F0FE4040F4400070474F
:100D20004FF0FF0C1CEAD0521EBF1CEAD15392EACE
:100D30000C0F93EA0C0F69D0A2EB030280EA010CBE
:100D400049024FEA402037D04FF0805343EA111157
:100D500043EA10130CF000408B4238BF5B0042F1B5
:100D60007D024FF4000C8B4224BF5B1A40EA0C005A
:100D7000B3EB510F24BFA3EB510340EA5C00B3EB8C
:100D8000910F24BFA3EB910340EA9C00B3EBD10F7A
:100D900024BFA3EBD10340EADC001B0118BF5FEACC
:100DA0001C1CE0D1FD2A3FF650AF8B4240EBC250F5
:100DB00008BF20F0010070470CF0004C4CEA5020B6
:100DC0007F32C2BFD2F1FF0340EAC250704740F405
:100DD00000004FF00003013A37E792F0000F00F0F7
:100DE000004C02BF400010F4000F013AF9D040EA75
:100DF0000C0093F0000F01F0004C02BF490011F409
:100E0000000F013BF9D041EA0C0195E70CEAD15300
:100E100092EA0C0F08D142027FF47DAF93EA0C0FE7
:100E20007FF470AF084676E793EA0C0F04D14B02CB
:100E30003FF44CAF08466EE730F0004C18BF31F07D
:100E4000004CCAD130F000427FF45CAF31F0004377
:100E50007FF43CAF5FE700BF4FEA4002B2F1FE4FC4
:100E60000FD34FF09E03B3EB12620DD94FEA00236C
:100E700043F0004310F0004F23FA02F018BF404245
:100E800070474FF00000704712F1610F01D142022C
:100E900005D110F0004008BF6FF0004070474FF0E0
:100EA000000070477BB972B90029BEBF00204FF027
:100EB000004106E008BF00281CBF6FF000414FF062
:100EC000FF3000F0A7B9ADF1080C6DE904CE0029A0
:100ED00009DB002B1ADB00F035F8DDF804E0DDE972
:100EE000022304B07047404261EB4101002B1BDB41
:100EF00000F028F8DDF804E0DDE9022304B0404208
:100F000061EB4101524263EB43037047524263EB92
:100F1000430300F017F8DDF804E0DDE9022304B034
:100F2000404261EB41017047524263EB430300F0E2
:100F300009F8DDF804E0DDE9022304B0524263EB76
:100F4000430370472DE9F0478C460446089E002B6A
:100F50004BD18A42154667D9B2FA82F24AB1C2F140
:100F6000200701FA02F320FA07F7954047EA030C3D
:100F700094404FEA154EBCFBFEF71FFA85F80EFBB6
:100F800017C307FB08F9210C41EA0343994509D926
:100F9000EB1807F1FF3180F01C81994540F219816F
:100FA000023F2B44A3EB0903B3FBFEF00EFB10330F
:100FB00000FB08F1A4B244EA0344A14209D92C1968
:100FC00000F1FF3380F00781A14240F20481023832
:100FD0002C4440EA07400027641A1EB10023D44085
:100FE000C6E900433946BDE8F0878B4209D9002E97
:100FF00000F0EC800027C6E9000138463946BDE81C
:10100000F087B3FA83F7002F48D18B4202D3824294
:1010100000F2FB80841A61EB030301209C46002E42
:10102000E0D0C6E9004CDDE702B9FFDEB2FA82F299
:10103000002A40F08F800127491B4FEA15481FFA0C
:1010400085F9B1FBF8FE08FB1E1109FB0EF04FEA13
:10105000144C4CEA0143984207D9EB180EF1FF31CA
:1010600002D2984200F2CD808E461B1AB3FBF8F0F4
:1010700008FB103309FB00F9A4B244EA0344A1457C
:1010800007D92C1900F1FF3302D2A14500F2B68036
:101090001846A4EB090440EA0E409EE7C7F120057C
:1010A000BB4022FA05FC4CEA030C21FA05F44FEA96
:1010B0001C4EB4FBFEF91FFA8CF80EFB194420FA03
:1010C00005F3B94009FB08FA19430B0C43EA044441
:1010D000A24502FA07F200FA07F30BD91CEB04044D
:1010E00009F1FF3080F08880A24540F28580A9F1A7
:1010F00002096444A4EB0A04B4FBFEF00EFB1044A6
:1011000000FB08FA89B241EA0444A24508D91CEB65
:10111000040400F1FF316BD2A24569D9023864445E
:1011200040EA0940A0FB0289A4EB0A044C45414671
:10113000CE4654D351D0002E69D05A1A64EB0E0417
:1011400004FA05F522FA07F3FC401D43C6E90054F2
:10115000002747E79540C2F1200321FA03F04FEA48
:101160001548B0FBF8F71FFA85F908FB170024FAB9
:1011700003F3914007FB09FC0B43190C41EA0041C2
:101180008C4504FA02F407D9691807F1FF3031D20F
:101190008C452FD9023F2944A1EB0C01B1FBF8F09B
:1011A00008FB101C00FB09FE99B241EA0C418E4578
:1011B00007D9691800F1FF3318D28E4516D90238C5
:1011C0002944A1EB0E0140EA07473AE7374630468B
:1011D00008E70F46E6E61846FBE64345ABD2B8EB18
:1011E000020169EB0C0201389646A4E71846E8E7CD
:1011F000084695E70746CFE781467BE702382C444F
:1012000047E7AEF1020E2B442FE7384607E7374693
:10121000E8E600BF704700BF80B582B000AF7860DD
:10122000786801F051F84FF40051034801F006FED0
:10123000642001F08BFBF6E70010014080B588B018
:1012400004AF0346FB800B467B7113463B710023C2
:10125000FB737B799AB2F9884FF4803302930123B0
:1012600001933B1D00930123074801F027FF03462C
:10127000FB73FB7B002B02D00448FFF7CDFF00BFC0
:101280001037BD4680BD00BFA80000203C540008B8
:1012900080B588B004AF03460A46FB8013467B71D5
:1012A0000023FB730023BB737B799AB2F9884FF458
:1012B000803302930123019307F10E03009301236E
:1012C000084801F0F5FF0346FB73FB7B002B04D0BD
:1012D0000548FFF7A1FF002300E0BB7B184610374D
:1012E000BD4680BDA80000206C54000880B588B0C1
:1012F00004AF03463A60FB800B467B710023FB730F
:101300007B799AB2F9884FF48033029302230193D8
:101310003B6800930123074801F0CAFF0346FB73B3
:10132000FB7B002B02D00448FFF776FF00BF10378D
:10133000BD4680BDA80000209854000880B588B044
:1013400004AF03463A60FB800B467B710023FB73BE
:101350007B799AB2F9884FF4803302930323019387
:101360003B6800930123074801F0A2FF0346FB738B
:10137000FB7B002B02D00448FFF74EFF00BF103765
:10138000BD4680BDA8000020C454000880B582B0CE
:1013900000AF03460A46FB711346BB71BA79FB796D
:1013A0001946EC20FFF74AFF00BF0837BD4680BD55
:1013B00080B584B000AF0346FB71FB791946EC2081
:1013C000FFF766FF0346FB73FB7B18461037BD46ED
:1013D00080BD80B582B000AF03463960FB71FB79F8
:1013E0003A681946EC20FFF781FF00BF0837BD4679
:1013F00080BD80B582B000AF03463960FB71FB79D8
:101400003A681946EC20FFF771FF00BF0837BD4668
:1014100080BD80B582B000AF03463960FB71FB79B7
:101420003A681946EC20FFF761FF3B681B881B0AEE
:101430009BB21AB23B681B881B021BB213431BB240
:101440009AB23B681A8000BF0837BD4680BD80B5A0
:1014500082B000AF03463960FB71FB793A681946E8
:10146000EC20FFF76BFF3B681B681B0CDAB23B6894
:101470001B6803F47F431A433B681B681B0403F497
:101480007F03134323F07F423B681A6000BF083795
:10149000BD4680BD80B582B000AFF320FFF788FF66
:1014A000034603F00903FB71FB7918460837BD4674
:1014B00080BD000098B500AF37498820FFF789FF4D
:1014C00036498A20FFF795FF35498C20FFF791FFB9
:1014D00034498E20FFF77DFF33499020FFF789FFC5
:1014E00032499220FFF785FF31499420FFF781FFB1
:1014F00030499620FFF77DFF2F499820FFF779FFAD
:101500002E499A20FFF775FF2D499C20FFF771FFA8
:101510002C499E20FFF76DFFA120FFF749FF0346EE
:101520001A461D4B1A762849E120FFF762FFE32097
:10153000FFF73EFF03461A46174B1A77E420FFF7E2
:1015400037FF03461B011CB2E520FFF731FF0346BE
:101550001BB203F00F031BB223431AB20E4BDA8304
:10156000E620FFF725FF03461B011CB2E520FFF72D
:101570001FFF03461B09DBB21BB223431AB2064B03
:101580001A84E720FFF714FF03465AB2024B83F890
:10159000222000BF98BD00BFC0090020C209002062
:1015A000C4090020C6090020C8090020CA0900207B
:1015B000CC090020CE090020D0090020D20900204B
:1015C000D4090020D6090020DA09002080B584B0B3
:1015D00000AF0346FB71F520FFF7EAFE034603F078
:1015E0001F03FB7397F9073023F01F035AB297F9D3
:1015F0000F3013435BB2FB73FB7B1946F520FFF7FB
:10160000C5FE00BF1037BD4680BD80B584B000AFB9
:101610000346FB71F520FFF7CBFE034623F01C03C6
:10162000FB7397F9073003F01C035AB297F90F3098
:1016300013435BB2FB73FB7B1946F520FFF7A6FE55
:1016400000BF1037BD4680BD80B584B000AF0346F3
:10165000FB71F420FFF7ACFE034603F01F03FB739E
:1016600097F9073023F01F035AB297F90F3013434D
:101670005BB2FB73FB7B1946F420FFF787FE00BFCC
:101680001037BD4680BD80B584B000AF0346FB7106
:10169000F420FFF78DFE034623F01C03FB7397F93C
:1016A000073003F01C035AB297F90F3013435BB2B3
:1016B000FB73FB7B1946F420FFF768FE00BF103771
:1016C000BD4680BD80B584B000AF0346FB71F220FB
:1016D000FFF76EFE034623F00703FB7397F907300D
:1016E00003F007035AB297F90F3013435BB2FB7351
:1016F000FB7B1946F220FFF749FEF420FFF758FE66
:101700000346FB73FB7B1946F420FFF73FFE00BF47
:101710001037BD4680BD80B584B000AF0346FB7175
:10172000F420FFF745FE034623F00303FB7397F90C
:10173000073003F003035AB297F90F3013435BB23B
:10174000FB73FB7B1946F420FFF720FE00BF103728
:10175000BD4680BD80B584B000AF4FF00003FB6094
:101760003B461946FA20FFF772FE3B681B093B60B7
:101770003B68DB081D4A128852009B1A1B4AB2F9CB
:10178000022002FB03F3DB0ABB603B681B09174A1C
:1017900012889B1A3A68120914490988521A02FBE6
:1017A00003F31B0B114AB2F9042002FB03F39B0B5A
:1017B0007B60BA687B6813440D4A13600C4B1A684F
:1017C00013469B00134480331B121846FFF7A0F901
:1017D0000346FB600749F868FFF7A2FA0346FB607F
:1017E000FB6818461037BD4680BD00BFC009002009
:1017F000E40900200000C8422DE9F04B8AB000AF98
:101800004FF000037B62FFF7A5FF3B461946F72028
:10181000FFF71DFE3B681B093B60654B1B681946C3
:101820004FEAE172B1F5FA3342F1FF34C7E9063409
:10183000FB69BA6902FB03F2FB69B96901FB03F3B7
:101840001A44B969BB69A1FB033422441446594ABE
:10185000B2F9102011B24FEAE17201FB04F503FB6B
:1018600002F02844A3FB013402191446C7E90434EA
:10187000C7E904344F4BB3F90E301BB24FEAE3749F
:10188000BA6904FB02F1FA6903FB02F28818BA692B
:10189000A2FB031283181A464FF000054FF0000612
:1018A000560446EAD1364D04D7E904126B1846EBCC
:1018B0000204C7E904343F4BB3F90C3019B24FEAC4
:1018C000E1724FF000054FF00006CE000025D7E989
:1018D00004126B1846EB0204C7E90434FB69BA69C9
:1018E00002FB03F2FB69B96901FB03F31A44B9690E
:1018F000BB69A1FB0334224414462E4AB2F90A20E4
:1019000011B24FEAE17201FB04F503FB02F0284437
:10191000A3FB0134021914464FF000014FF00002FE
:10192000190A41EA04612212224BB3F908301BB2B2
:101930004FEAE374B86904FB00F5F86903FB00F0B3
:101940002844BD69A5FB035683191E464FF0000BC2
:101950004FF0000C4FEA063C4CEA155C4FEA053BA1
:101960001BEB01034CEB0204C7E90634D7E906344C
:10197000191C44F500420F4BDB889BB24FF000046A
:1019800003FB02F501FB04F02844A1FB0334021918
:1019900014464FF000014FF000026110E217C7E952
:1019A0000612D7E90634234306D14FF0000310E1B5
:1019B000E4090020C00900203B68C3F580134FF004
:1019C0000004C7E90234BB684FEA5309BB684FEA19
:1019D000C378D7E9043445464E46ED1A66EB040653
:1019E000A846B14618EB080349EB09049846A146FE
:1019F00018EB050849EB06094FF000014FF0000213
:101A00004FEA891242EA98624FEA881118EB0108FE
:101A100049EB02094FF000014FF000024FEA890242
:101A200042EA98724FEA88018846914618EB050809
:101A300049EB06094FF000014FF000024FEA89021E
:101A400042EA98724FEA88018846914618EB0500F1
:101A500049EB0601D7E90623FFF724FA03460C46B3
:101A6000C7E902345D4BB3F9163019B24FEAE1729F
:101A7000D7E902564FF000034FF000046B0B43EA26
:101A8000C643741303FB02F501FB04F02844A1FBD9
:101A9000031283181A46D7E902564FF000034FF09D
:101AA00000046B0B43EAC643741303FB02F501FB0E
:101AB00004F02844A1FB031283181A464FF00003D8
:101AC0004FF000044B0E43EAC2135416C7E9063424
:101AD000424BB3F914301BB24FEAE374BA6804FB0B
:101AE00002F1FA6803FB02F28818BA68A2FB03123B
:101AF00083181A464FF000034FF00004CB0C43EA62
:101B00004233D414C7E90434D7E90212D7E90634C2
:101B100011EB030842EB0409D7E9043413EB080581
:101B200044EB09064FF000014FF00002290A41EA98
:101B300006613212294BB3F912301DB24FEAE57635
:101B40004FF000084FF000094FEA061949EA1579ED
:101B50004FEA051818EB010349EB0204C7E9023408
:101B6000D7E902124FF000034FF000040B0A43EADA
:101B7000026314121A464FF47A7303FB02F5D7E995
:101B800002344FF0FF014FF0000203EA010804EABB
:101B90000209134A02FB09F1002202FB08F20A447F
:101BA0000F49A8FB0101531819460E4A4FF00003D4
:101BB000FFF778F903460C462B447B607868FEF704
:101BC000A3FF034608491846FFF7AAF803467B62BD
:101BD0007B6A18462837BD46BDE8F08BC009002057
:101BE000E1F50500A08601000000C84280B584B080
:101BF00000AF4FF00003FB60FFF7ACFDBB1C1946C4
:101C0000FD20FFF706FCB7F902309BB2BB60324BF8
:101C10001B68A3F596337B60BB689A032F4BB3F91F
:101C20001E301B05D21A2D4BB3F9203019467B68A4
:101C300003FB01F3D31A03F58043DB13274A92F920
:101C4000222011467A6802FB01F292122349097F91
:101C50000846796801FB00F1C91201F5004101FB5A
:101C600002F2921202F500121C49B1F91A1001FB9E
:101C700002F202F50052921302FB03F37B607B68D1
:101C8000DB137A68D21302FB03F3DB11134A127ED3
:101C900002FB03F31B117A68D31A7B607B6823EA8B
:101CA000E3737B607B68B3F1C85FA8BF4FF0C85394
:101CB0007B607B681B131846FEF72AFF0346FB6018
:101CC0004FF08941F868FFF72BF80346FB60FB688B
:101CD00018461037BD4680BDE4090020C009002029
:101CE00080B582B000AF0023FB7100233B60D020A1
:101CF000FFF75EFB0346FB71FB79602B03D02048A6
:101D0000FFF78AFA39E0B621E020FFF73FFB00BF7A
:101D1000FFF7C0FB034603F00103002BF8D1FFF7E8
:101D2000C9FBA020FFF752FC0820FFF76EFC6020E3
:101D3000FFF78AFC0820FFF7A6FC0120FFF7C2FC92
:101D4000F420FFF735FB03463B60F220FFF730FB42
:101D500003461B021A463B6813433B600320FFF710
:101D6000DAFC084B00221A60064B00225A60054B31
:101D700000229A60044800F0A7FA0837BD4680BDEB
:101D8000F0540008980000201455000800000000DE
:101D900098B500AFFFF72AFF0346184603F01EFB75
:101DA00003461846FFF758F80246194B1A60FFF72A
:101DB00023FD03461846FEF737FB13A3D3E90023A0
:101DC000FEF78AFB03460C4618462146FEF796FDB1
:101DD0000346184603F002FB03461846FFF73CF89B
:101DE00002460B4B5A60FFF7B5FC0346184603F05A
:101DF000F5FA03461846FFF72FF80246044B9A609F
:101E0000034B184698BD00BFFA7E6ABC7493483FE6
:101E10009800002080B485B000AFF860B9607A60A7
:101E2000064ABB681360064A7B681360054AFB6874
:101E3000136000BF1437BD4680BC7047AC0A002059
:101E4000680A0020A400002080B500AF054B186888
:101E5000054B1B689BB20122194600F0D7FF00BF5B
:101E600080BD00BFAC0A0020680A002080B500AF2A
:101E7000054B1868054B1B689BB20022194600F001
:101E8000C5FF00BF80BD00BFAC0A0020680A00206B
:101E900080B582B000AF7860786800F015FA064827
:101EA00000F012FA4FF40051044800F0C7FF64201C
:101EB00000F04CFDF6E700BFA455000800100140FB
:101EC00090B583B000AF786039603B687A681F498D
:101ED0001F4802F057FE1F4B1C681D48FEF738F9DB
:101EE00003469AB264231A49204602F0B6FB402208
:101EF0000021194802F03EFE164B18686423402268
:101F0000154902F043FC1549134802F05BFE0346F5
:101F1000002B07D07A6812490D4802F033FE0E48B4
:101F2000FFF7B6FF0F490C4802F04CFE0346002BAA
:101F3000E2D07A680C49064802F024FE044800F01A
:101F4000C3F900BF0C37BD4690BD00BF80560008E6
:101F5000280A0020A4000020800900203455000831
:101F60009C560008B8560008C456000890B583B0C7
:101F700000AF1C4B7B601C4B1C687868FEF7E8F8D0
:101F800003469AB264237968204602F066FB402239
:101F90000021164802F0EEFD134B1868642340221E
:101FA000124902F0F3FB1249104802F00BFE0346FF
:101FB000002B06D10F490D4802F004FE0346002B0A
:101FC000EAD00B49094802F0FDFD0346002B02D17F
:101FD0000948FFF75DFF094800F076F900BF0C37AC
:101FE000BD4690BDDC560008A400002080090020FA
:101FF0006055000834550008E856000810570008DE
:1020000080B584B000AFF860B9603B601346FB71E7
:10201000FB791A46B968F86800F00AF8386800F0E9
:1020200057F8386800F0A6F800BF1037BD4680BDED
:1020300090B587B002AFF860B9601346FB71FB79C9
:102040000093BB68FA681A491A4802F09BFD1A4BC4
:102050001C681848FEF77CF803469AB264231549B9
:10206000204602F0FAFA40220021144802F082FDD4
:10207000114B186864234022104902F087FB104975
:102080000E4802F09FFD0346002B02D00D48FFF7DB
:10209000FFFE0D49094802F095FD0346002BE7D0ED
:1020A0000A4800F011F900BF1437BD4690BD00BFCB
:1020B00030570008280A0020A400002080090020D2
:1020C000345500084C570008605500087057000848
:1020D00090B583B000AF78607868FEF739F80346B2
:1020E00002331A461B491C4802F04CFD1B4B1C686E
:1020F0001948FEF72DF803469AB264231649204684
:1021000002F0ABFA40220021154802F033FD134BD8
:10211000186864234022124902F038FB1149104824
:1021200002F050FD0346002B05D00D4800F0CCF81E
:102130000D48FFF7ADFE0D49094802F043FD034687
:10214000002BE4D00A4800F0BFF800BF0C37BD46B2
:1021500090BD00BF8C570008280A0020A400002072
:1021600080090020345500089C570008605500087D
:10217000C057000890B583B000AF78607A681B49FB
:102180001B4802F0FFFC1B4B1C681948FDF7E0FFE1
:1021900003469AB264231649204602F05EFA4FF4D1
:1021A00000620021144802F0E5FC124B1868C823B5
:1021B0004FF40062104902F0E9FA10490E4802F0AB
:1021C00001FD0346002B02D00D48FFF761FE0D49CB
:1021D000094802F0F7FC0346002BE6D00A4800F05D
:1021E00073F800BF0C37BD4690BD00BFDC57000838
:1021F000280A0020A4000020800100203455000897
:10220000E4570008605500080C58000880B584B0F9
:1022100002AF00F039FB00F06DF800F029F900F092
:10222000A5F800F0FBF800F0CFF81C4800F04CF8DF
:10223000FFF756FD00237B604FF4006218491948F0
:10224000FFF7E8FDFFF700FE17491848FFF738FED3
:10225000FFF79EFD78607B689A687B6819687B68E9
:102260005B6800930B461249124802F08BFC114B3D
:10227000502211491148FFF7C3FEFFF777FE1048BF
:1022800000F022F8FFF7F2FD4FF400510D4800F086
:10229000D5FD4FF47A7000F059FBF5E72C58000893
:1022A000000C01406C0A00203C58000850580008FF
:1022B000605800080001002094580008A458000845
:1022C000A85800080010014080B582B000AF7860C7
:1022D0007868FDF73DFF03469AB24FF47A73796848
:1022E000034802F0BAF900BF0837BD4680BD00BF01
:1022F000E809002080B590B000AF07F1180328224C
:102300000021184602F036FC3B1D00221A605A607C
:102310009A60DA601A610223BB610123BB62102359
:10232000FB6200237B6307F11803184601F02CFDC4
:102330000346002B01D000F0FDF80F237B60002343
:10234000BB600023FB6000233B6100237B613B1DDE
:102350000021184601F098FF0346002B01D000F041
:10236000E9F800BF4037BD4680BD000080B500AF32
:10237000124B134A1A60114B124A5A600F4B00223B
:102380009A600E4B0022DA600C4B4FF480421A61C7
:102390000A4B00225A61094B00229A61074B002226
:1023A000DA61064B00221A62044800F05FFD034622
:1023B000002B01D000F0BEF800BF80BDA8000020B7
:1023C00000540040A086010080B500AF114B124AB6
:1023D0001A60104B4FF4E1325A600E4B00229A60A3
:1023E0000C4B0022DA600B4B00221A61094B0C22C5
:1023F0005A61084B00229A61064B0022DA610548B7
:1024000002F0DEF80346002B01D000F093F800BF85
:1024100080BD00BFE80900200038014080B500AF52
:10242000114B124A1A60104B4FF4E1325A600E4BB6
:1024300000229A600C4B0022DA600B4B00221A61DA
:10244000094B0C225A61084B00229A61064B00226C
:10245000DA61054802F0B4F80346002B01D000F021
:1024600069F800BF80BD00BF6C0A00200044004036
:1024700080B588B000AF07F1100300221A605A60DF
:102480009A60DA60284B9B69274A43F010039361F6
:10249000254B9B6903F01003FB60FB68224B9B6993
:1024A000214A43F0040393611F4B9B6903F004032B
:1024B000BB60BB681C4B9B691B4A43F008039361DC
:1024C000194B9B6903F008037B607B6800224FF483
:1024D0000051164800F09AFC00224FF400611448A5
:1024E00000F094FC4FF400533B6101237B61002317
:1024F000BB610223FB6107F1100319460B4800F092
:102500002BFB4FF400633B6101237B610023BB6124
:102510000223FB6107F110031946054800F01CFB7C
:1025200000BF2037BD4680BD0010024000100140B2
:10253000000C014080B400AF00BFBD4680BC7047B6
:1025400080B485B000AF154B9B69144A43F001037A
:102550009361124B9B6903F00103BB60BB680F4B97
:10256000DB690E4A43F08053D3610C4BDB6903F007
:1025700080537B607B680A4B5B68FB60FB6823F0E1
:10258000E063FB60FB6843F00073FB60044AFB6898
:10259000536000BF1437BD4680BC70470010024036
:1025A0000000014080B588B000AF786007F11003EB
:1025B00000221A605A609A60DA607B681B68154ACC
:1025C000934223D1144B9B69134A43F00803936150
:1025D000114B9B6903F00803FB60FB68C0233B6160
:1025E00012237B610323FB6107F1100319460B489B
:1025F00000F0B2FA084BDB69074A43F40013D361D9
:10260000054BDB6903F40013BB60BB6800BF2037D8
:10261000BD4680BD0054004000100240000C014047
:1026200080B58AB000AF786007F1180300221A6005
:102630005A609A60DA607B681B68374A934232D1ED
:10264000364B9B69354A43F480439361334B9B6916
:1026500003F480437B617B69304B9B692F4A43F0D5
:10266000040393612D4B9B6903F004033B613B69B9
:102670004FF40073BB610223FB6103237B6207F10C
:1026800018031946264800F067FA4FF48063BB61CF
:102690000023FB6100233B6207F118031946204821
:1026A00000F05AFA34E07B681B681E4A93422FD12F
:1026B0001A4BDB69194A43F40033D361174BDB69CA
:1026C00003F40033FB60FB68144B9B69134A43F02F
:1026D00004039361114B9B6903F00403BB60BB6867
:1026E0000423BB610223FB6103237B6207F1180310
:1026F00019460B4800F030FA0823BB610023FB6148
:1027000000233B6207F118031946054800F024FA3C
:1027100000BF2837BD4680BD003801400010024090
:10272000000801400044004080B400AF00BFBD4637
:1027300080BC704780B400AFFEE780B400AFFEE716
:1027400080B400AFFEE780B400AFFEE780B400AF16
:1027500000BFBD4680BC704780B400AF00BFBD461F
:1027600080BC704780B400AF00BFBD4680BC7047DE
:1027700080B500AF00F0CEF800BF80BD80B584B05A
:1027800000AF7860114B1B68002B02D10F4B104A31
:102790001A600E4B1B68FB600C4B1A687B68134475
:1027A0006A46934207D902F0BBF902460C23136034
:1027B0004FF0FF3306E0054B1A687B681344034A69
:1027C0001360FB6818461037BD4680BD8C000020A2
:1027D000B80A002080B400AF154B1B68144A43F0C0
:1027E00001031360124B5A681149124B13404B609E
:1027F0000F4B1B680E4A23F0847323F4803313605D
:102800000B4B1B680A4A23F480231360084B5B6858
:10281000074A23F4FE035360054B4FF41F029A60EE
:10282000054B4FF000629A6000BFBD4680BC704708
:10283000001002400000FFF800ED00E0002103E07E
:102840000B4B5B58435004310A480B4B42189A42D9
:10285000F6D30A4A02E0002342F8043B084B9A42AE
:10286000F9D3FFF7B7FF02F061F9FFF7CFFC70472C
:10287000285900080000002070000020700000208F
:10288000B80A0020FEE7000080B500AF084B1B68C7
:10289000074A43F010031360032000F029F90020D9
:1028A00000F008F8FFF74CFE0023184680BD00BF7B
:1028B0000020024080B582B000AF7860124B1A68E9
:1028C000124B1B7819464FF47A73B3FBF1F3B2FB4A
:1028D000F3F3184600F033F90346002B01D001232F
:1028E0000EE07B680F2B0AD8002279684FF0FF308A
:1028F00000F009F9064A7B681360002300E0012319
:1029000018460837BD4680BD0000002008000020A2
:102910000400002080B400AF054B1B781A46054B1D
:102920001B681344034A136000BFBD4680BC704758
:1029300008000020B00A002080B400AF024B1B68E2
:102940001846BD4680BC7047B00A002080B584B0F0
:1029500000AF7860FFF7F0FFB8607B68FB60FB6852
:10296000B3F1FF3F05D0094B1B781A46FB681344AF
:10297000FB6000BFFFF7E0FF0246BB68D31AFA68AE
:102980009A42F7D800BF1037BD4680BD080000202E
:1029900080B485B000AF78607B6803F00703FB600C
:1029A0000C4BDB68BB60BA684FF6FF031340BB609B
:1029B000FB681A02BB68134343F0BF6343F4003360
:1029C000BB60044ABB68D36000BF1437BD4680BCFF
:1029D000704700BF00ED00E080B400AF044BDB683F
:1029E0001B0A03F007031846BD4680BC704700BFB2
:1029F00000ED00E080B483B000AF03463960FB71A6
:102A000097F90730002B0ADB3B68DAB20C4997F9DB
:102A100007301201D2B20B4483F800230AE03B686E
:102A2000DAB20849FB7903F00F03043B1201D2B27A
:102A30000B441A7600BF0C37BD4680BC704700BF00
:102A400000E100E000ED00E080B489B000AFF86084
:102A5000B9607A60FB6803F00703FB61FB69C3F1AF
:102A60000703042B28BF0423BB61FB690433062B37
:102A700002D9FB69033B00E000237B614FF0FF328A
:102A8000BB6902FA03F3DA43BB681A407B699A40D8
:102A90004FF0FF317B6901FA03F3D9437B680B40A8
:102AA000134318462437BD4680BC704780B582B0BA
:102AB00000AF78607B68013BB3F1807F01D30123D5
:102AC0000FE00A4A7B68013B53600F214FF0FF3053
:102AD000FFF790FF054B00229A60044B07221A6013
:102AE000002318460837BD4680BD00BF10E000E057
:102AF00080B582B000AF78607868FFF749FF00BF0B
:102B00000837BD4680BD80B586B000AF0346B960CA
:102B10007A60FB7300237B61FFF75EFF78617A6860
:102B2000B9687869FFF790FF024697F90F301146B0
:102B30001846FFF75FFF00BF1837BD4680BD80B560
:102B400082B000AF78607868FFF7B0FF03461846A0
:102B50000837BD4680BD000080B48BB000AF786000
:102B6000396000237B6200233B6227E101227B6AFC
:102B700002FA03F3FB613B681B68FA691340BB610F
:102B8000BA69FB699A4240F016813B685B68122B78
:102B900034D0122B0DD8022B2BD0022B04D8002BB3
:102BA00031D0012B1CD048E0032B43D0112B1BD07C
:102BB00043E0894A934226D0874A934206D8874AFF
:102BC000934220D0864A93421DD036E0854A9342F4
:102BD00019D0854A934216D0844A934213D02CE0F0
:102BE0003B68DB683B6228E03B68DB6804333B62A0
:102BF00023E03B68DB6808333B621EE03B68DB6830
:102C00000C333B6219E03B689B68002B02D1042324
:102C10003B6212E03B689B68012B05D108233B62B5
:102C20007B68FA691A6108E008233B627B68FA69ED
:102C30005A6102E000233B6200BFBB69FF2B01D851
:102C40007B6801E07B6804337B61BB69FF2B02D8A2
:102C50007B6A9B0002E07B6A083B9B003B617B69CF
:102C60001A680F213B6901FA03F3DB431A40396A02
:102C70003B6901FA03F31A437B691A603B685B689E
:102C800003F08053002B00F09680594B9B69584A03
:102C900043F001039361564B9B6903F00103BB6052
:102CA000BB68544A7B6A9B08023352F82330FB60AE
:102CB0007B6A03F003039B000F2202FA03F3DB435A
:102CC000FA681340FB607B684B4A934213D07B68E1
:102CD0004A4A93420DD07B68494A934207D07B68A9
:102CE000484A934201D1032306E0042304E002236F
:102CF00002E0012300E000237A6A02F0030292005E
:102D00009340FA681343FB603A497B6A9B0802339D
:102D1000FA6841F823203B685B6803F48033002B9A
:102D200006D0394B1A683849BB6913430B6006E07B
:102D3000354B1A68BB69DB43334913400B603B6872
:102D40005B6803F40033002B06D02F4B5A682E49E2
:102D5000BB6913434B6006E02B4B5A68BB69DB43EE
:102D6000294913404B603B685B6803F48013002BD8
:102D700006D0254B9A682449BB6913438B6006E053
:102D8000214B9A68BB69DB431F4913408B603B684A
:102D90005B6803F40013002B06D01B4BDA681A495A
:102DA000BB691343CB6006E0174BDA68BB69DB43B2
:102DB00015491340CB607B6A01337B623B681A681C
:102DC0007B6A22FA03F3002B7FF4D0AE00BF2C37CE
:102DD000BD4680BC704700BF0000211000001110EC
:102DE000000012100000311000003210000022100C
:102DF000001002400000014000080140000C0140AA
:102E000000100140001401400004014080B483B070
:102E100000AF78600B467B8013467B707B78002B7D
:102E200003D07A887B681A6103E07B881A047B6888
:102E30001A6100BF0C37BD4680BC704780B483B0B8
:102E400000AF78600B467B807B68DA687B88134034
:102E5000002B03D07A887B685A6102E07A887B680D
:102E60001A6100BF0C37BD4680BC704780B584B086
:102E700000AF78607B68002B01D101230FE17B68F4
:102E800093F83D30DBB2002B06D17B68002283F83B
:102E90003C207868FFF786FB7B68242283F83D207E
:102EA0007B681B681A687B681B6822F001021A6045
:102EB00001F040FBF8607B685B687B4A934207D86F
:102EC000FB687A4A934294BF01230023DBB206E0F9
:102ED000FB68774A934294BF01230023DBB2002BA7
:102EE00001D00123DBE0FB68724AA2FB03239B0CA9
:102EF000BB607B681B685B6823F03F017B681B68D5
:102F0000BA680A435A607B681B681B6A23F03F015A
:102F10007B685B68644A934202D8BB68013309E06E
:102F2000BB684FF4967202FB03F3634AA2FB0323D0
:102F30009B0901337A6812680B4313627B681B6834
:102F4000DB6923F44F4222F0FF027B685B6856493D
:102F50008B420DD8FB68591E7B685B685B00B1FB38
:102F6000F3F30133C3F30B03042B38BF04234FE007
:102F70007B689B68002B11D1FB68581E7B685968E1
:102F80000B465B000B44B0FBF3F30133C3F30B03BD
:102F9000002B0CBF01230023DBB212E0FB68581E9C
:102FA0007B6859680B469B000B4499000B44B0FBAF
:102FB000F3F30133C3F30B03002B0CBF01230023F6
:102FC000DBB2002B01D0012322E07B689B68002B41
:102FD0000ED1FB68581E7B6859680B465B000B449A
:102FE000B0FBF3F30133C3F30B0343F400430FE0EF
:102FF000FB68581E7B6859680B469B000B44990080
:103000000B44B0FBF3F30133C3F30B0343F440432E
:10301000796809681343CB617B681B681B6823F0E0
:10302000C0017B68DA697B681B6A1A437B681B688E
:103030000A431A607B681B689B6823F4034323F0F0
:10304000FF037A6811697A68D26811437A68126856
:103050000B4393607B681B68DB6823F0FF017B6890
:103060005A697B689B691A437B681B680A43DA606C
:103070007B681B681A687B681B6842F001021A6053
:103080007B6800221A647B68202283F83D207B68DD
:1030900000221A637B68002283F83E200023184632
:1030A0001037BD4680BD00BFA08601007F841E0092
:1030B000FF083D0083DE1B43D34D621080B588B00E
:1030C00002AFF860084611461A4603467B810B465C
:1030D0003B811346FB80FFF72FFC7861FB6893F878
:1030E0003D30DBB2202B40F0D9807B69009319235F
:1030F00001226D49F86800F06BFC0346002B01D0FB
:103100000223CCE0FB6893F83C30012B01D1022371
:10311000C5E0FB68012283F83C20FB681B681B6844
:1031200003F00103012B07D0FB681B681A68FB68DA
:103130001B6842F001021A60FB681B681A68FB6892
:103140001B6822F400621A60FB68212283F83D208C
:10315000FB68402283F83E20FB6800221A64FB686B
:103160003A6A5A62FB68BA8C5A85FB685B8D9AB2E0
:10317000FB681A85FB684D4ADA62F8883A897989D2
:103180007B690193BB6A00930346F86800F0C6FAB6
:103190000346002B52D0012381E07A69B96AF868AE
:1031A00000F0ECFC0346002B0DD0FB681B6C042BDD
:1031B00007D1FB681B681A68FB681B6842F4007241
:1031C0001A6001236BE0FB685B6A1A78FB681B6876
:1031D0001A61FB685B6A5A1CFB685A62FB681B8DAC
:1031E000013B9AB2FB681A85FB685B8D9BB2013B81
:1031F0009AB2FB685A85FB681B685B6903F004039D
:10320000042B1BD1FB681B8D002B17D0FB685B6A5E
:103210001A78FB681B681A61FB685B6A5A1CFB68BA
:103220005A62FB681B8D013B9AB2FB681A85FB68EA
:103230005B8D9BB2013B9AB2FB685A85FB681B8D84
:10324000002BAAD17A69B96AF86800F0D8FC034665
:10325000002B0DD0FB681B6C042B07D1FB681B688F
:103260001A68FB681B6842F400721A60012316E0BA
:10327000FB681B681A68FB681B6842F400721A60DE
:10328000FB68202283F83D20FB68002283F83E2063
:10329000FB68002283F83C20002300E0022318464C
:1032A0001837BD4680BD00BF020010000000FFFFC0
:1032B00080B58CB002AFF860084611461A46034646
:1032C0007B810B463B811346FB80FFF735FB786221
:1032D000FB6893F83D30DBB2202B40F018827B6A0C
:1032E0000093192301228149F86800F071FB03461D
:1032F000002B01D002230BE2FB6893F83C30012B3A
:1033000001D1022304E2FB68012283F83C20FB6820
:103310001B681B6803F00103012B07D0FB681B68C7
:103320001A68FB681B6842F001021A60FB681B68A0
:103330001A68FB681B6822F400621A60FB6822228C
:1033400083F83D20FB68402283F83E20FB68002282
:103350001A64FB683A6B5A62FB68BA8E5A85FB683E
:103360005B8D9AB2FB681A85FB68614ADA62F8885D
:103370003A8979897B6A0193BB6B00930346F868AD
:1033800000F056FA0346002B01D00123C0E1FB6890
:103390001B8D002B13D100233B62FB681B685B690C
:1033A0003B62FB681B689B693B623B6AFB681B686E
:1033B0001A68FB681B6842F400721A6094E1FB68AB
:1033C0001B8D012B1DD1FB681B681A68FB681B68ED
:1033D00022F480621A6072B60023FB61FB681B68EE
:1033E0005B69FB61FB681B689B69FB61FB69FB68B0
:1033F0001B681A68FB681B6842F400721A6062B6A8
:1034000072E1FB681B8D022B1DD1FB681B681A68DB
:10341000FB681B6842F400621A6072B60023BB614D
:10342000FB681B685B69BB61FB681B689B69BB61D0
:10343000BB69FB681B681A68FB681B6822F4806222
:103440001A6062B650E1FB681B681A68FB681B686B
:1034500042F480621A6000237B61FB681B685B6931
:103460007B61FB681B689B697B617B693CE1FB6856
:103470001B8D032B00F2F580FB681B8D012B23D1E4
:103480007A6AB96BF86800F0FBFB0346002B01D0A9
:1034900001233DE1FB681B681A69FB685B6AD2B2D5
:1034A0001A70FB685B6A5A1CFB685A62FB681B8DCA
:1034B000013B9AB2FB681A85FB685B8D9BB2013BAE
:1034C0009AB2FB685A850FE1FB681B8D022B50D125
:1034D0007B6A0093BB6B00220649F86800F078FA1B
:1034E0000346002B08D0012312E100BF02001000A8
:1034F0000000FFFF0400010072B6FB681B681A6839
:10350000FB681B6842F400721A60FB681B681A694A
:10351000FB685B6AD2B21A70FB685B6A5A1CFB6874
:103520005A62FB681B8D013B9AB2FB681A85FB68E7
:103530005B8D9BB2013B9AB2FB685A8562B6FB6811
:103540001B681A69FB685B6AD2B21A70FB685B6A17
:103550005A1CFB685A62FB681B8D013B9AB2FB68E0
:103560001A85FB685B8D9BB2013B9AB2FB685A855A
:10357000BAE07B6A0093BB6B00226749F86800F0F1
:1035800027FA0346002B01D00123C1E0FB681B682A
:103590001A68FB681B6822F480621A6072B6FB68C6
:1035A0001B681A69FB685B6AD2B21A70FB685B6AB7
:1035B0005A1CFB685A62FB681B8D013B9AB2FB6880
:1035C0001A85FB685B8D9BB2013B9AB2FB685A85FA
:1035D0007B6A0093BB6B00224F49F86800F0F8F952
:1035E0000346002B01D0012392E0FB681B681A6898
:1035F000FB681B6842F400721A60FB681B681A695A
:10360000FB685B6AD2B21A70FB685B6A5A1CFB6883
:103610005A62FB681B8D013B9AB2FB681A85FB68F6
:103620005B8D9BB2013B9AB2FB685A8562B6FB6820
:103630001B681A69FB685B6AD2B21A70FB685B6A26
:103640005A1CFB685A62FB681B8D013B9AB2FB68EF
:103650001A85FB685B8D9BB2013B9AB2FB685A8569
:1036600042E07A6AB96BF86800F00AFB0346002B67
:1036700001D001234CE0FB681B681A69FB685B6A98
:10368000D2B21A70FB685B6A5A1CFB685A62FB680C
:103690001B8D013B9AB2FB681A85FB685B8D9BB260
:1036A000013B9AB2FB685A85FB681B685B6903F0B3
:1036B0000403042B18D1FB681B681A69FB685B6A5A
:1036C000D2B21A70FB685B6A5A1CFB685A62FB68CC
:1036D0001B8D013B9AB2FB681A85FB685B8D9BB220
:1036E000013B9AB2FB685A85FB681B8D002B7FF467
:1036F000BEAEFB68202283F83D20FB68002283F8E1
:103700003E20FB68002283F83C20002300E00223D7
:1037100018462837BD4680BD0400010080B588B03A
:1037200002AFF860084611461A4603467B810B46F5
:103730003B811346FB80FB681B681A68FB681B68AB
:1037400042F480721A607B6A00933B6A00224FF059
:103750000111F86800F03CF90346002B01D0012369
:103760005FE07B89DBB21A46FB681B6802F0FE0251
:103770001A617B6A3A6A2D49F86800F080F90346BD
:10378000002B01D001234CE000237B61FB681B6808
:103790005B697B61FB681B689B697B617B697A6AFB
:1037A000396AF86800F0EAF90346002B0DD0FB688F
:1037B0001B6C042B07D1FB681B681A68FB681B682D
:1037C00042F400721A6001232BE0FB88012B05D123
:1037D0003B89DAB2FB681B681A6121E03B891B0A4E
:1037E0009BB2DAB2FB681B681A617A6A396AF868B8
:1037F00000F0C4F90346002B0DD0FB681B6C042BB2
:1038000007D1FB681B681A68FB681B6842F40072EA
:103810001A60012305E03B89DAB2FB681B681A6174
:10382000002318461837BD4680BD00BF02000100C6
:1038300080B588B002AFF860084611461A460346C4
:103840007B810B463B811346FB80FB681B681A6833
:10385000FB681B6842F480621A60FB681B681A6888
:10386000FB681B6842F480721A607B6A00933B6AB3
:1038700000224FF00111F86800F0AAF80346002B6F
:1038800001D001239EE07B89DBB21A46FB681B68EE
:1038900002F0FE021A617B6A3A6A4C49F86800F04D
:1038A000EEF80346002B01D001238BE000237B615F
:1038B000FB681B685B697B61FB681B689B697B61BC
:1038C0007B697A6A396AF86800F058F90346002B78
:1038D0000DD0FB681B6C042B07D1FB681B681A68B2
:1038E000FB681B6842F400721A6001236AE0FB88DF
:1038F000012B05D13B89DAB2FB681B681A6121E014
:103900003B891B0A9BB2DAB2FB681B681A617A6AB0
:10391000396AF86800F032F90346002B0DD0FB68D5
:103920001B6C042B07D1FB681B681A68FB681B68BB
:1039300042F400721A60012344E03B89DAB2FB686A
:103940001B681A617A6A396AF86800F017F9034649
:10395000002B0DD0FB681B6C042B07D1FB681B6888
:103960001A68FB681B6842F400721A60012329E0A0
:10397000FB681B681A68FB681B6842F480721A6057
:103980007B6A00933B6A00224FF00111F86800F057
:103990001FF80346002B01D0012313E07B89DBB223
:1039A00043F00103DAB2FB681B681A617B6A3A6A6A
:1039B0000649F86800F063F80346002B01D00123A4
:1039C00000E0002318461837BD4680BD0200010004
:1039D00080B584B000AFF860B9603B601346FB71FE
:1039E00025E03B68B3F1FF3F21D0FEF7A5FF02467B
:1039F000BB69D31A3A689A4202D33B68002B16D1AE
:103A0000FB6800221A63FB68202283F83D20FB68D4
:103A1000002283F83E20FB681B6C43F02002FB6809
:103A20001A64FB68002283F83C20012323E0BB6872
:103A30001B0CDBB2012B0DD1FB681B685B69DA4301
:103A4000BB6813409BB2002B0CBF01230023DBB2E9
:103A50001A460CE0FB681B689B69DA43BB6813409D
:103A60009BB2002B0CBF01230023DBB21A46FB796B
:103A70009A42B6D0002318461037BD4680BD80B5A7
:103A800084B000AFF860B9607A603B6051E0FB68D9
:103A90001B685B6903F48063B3F5806F23D1FB6817
:103AA0001B681A68FB681B6842F400721A60FB68A6
:103AB0001B686FF480625A61FB6800221A63FB681E
:103AC000202283F83D20FB68002283F83E20FB681B
:103AD0001B6C43F00402FB681A64FB68002283F845
:103AE0003C20012346E07B68B3F1FF3F21D0FEF785
:103AF00023FF02463B68D31A7A689A4202D37B6856
:103B0000002B16D1FB6800221A63FB68202283F881
:103B10003D20FB68002283F83E20FB681B6C43F0CD
:103B20002002FB681A64FB68002283F83C20012312
:103B300020E0BB681B0CDBB2012B0CD1FB681B68BF
:103B40005B69DA43BB6813409BB2002B14BF0123AF
:103B50000023DBB20BE0FB681B689B69DA43BB68A0
:103B600013409BB2002B14BF01230023DBB2002BB8
:103B70008DD1002318461037BD4680BD80B584B076
:103B800000AFF860B9607A602DE0F86800F0CEF818
:103B90000346002B01D001232DE0BB68B3F1FF3FAA
:103BA00021D0FEF7C9FE02467B68D31ABA689A4252
:103BB00002D3BB68002B16D1FB6800221A63FB6896
:103BC000202283F83D20FB68002283F83E20FB681A
:103BD0001B6C43F02002FB681A64FB68002283F828
:103BE0003C20012307E0FB681B685B6903F080034E
:103BF000802BCAD1002318461037BD4680BD80B542
:103C000084B000AFF860B9607A602DE0F86800F029
:103C10008DF80346002B01D001232DE0BB68B3F1E2
:103C2000FF3F21D0FEF788FE02467B68D31ABA68B0
:103C30009A4202D3BB68002B16D1FB6800221A639C
:103C4000FB68202283F83D20FB68002283F83E2099
:103C5000FB681B6C43F02002FB681A64FB680022BF
:103C600083F83C20012307E0FB681B685B6903F0D5
:103C70000403042BCAD1002318461037BD4680BD6B
:103C800080B584B000AFF860B9607A6042E0FB684C
:103C90001B685B6903F01003102B19D1FB681B68CC
:103CA0006FF010025A61FB6800221A63FB68202241
:103CB00083F83D20FB68002283F83E20FB681A6CE5
:103CC000FB681A64FB68002283F83C20012329E08A
:103CD000FEF732FE02467B68D31ABA689A4202D3D4
:103CE000BB68002B16D1FB6800221A63FB682022F8
:103CF00083F83D20FB68002283F83E20FB681B6CA4
:103D000043F02002FB681A64FB68002283F83C2021
:103D1000012307E0FB681B685B6903F04003402B4D
:103D2000B5D1002318461037BD4680BD80B483B09E
:103D300000AF78607B681B685B6903F48063B3F550
:103D4000806F1BD17B681B686FF480625A617B684F
:103D500000221A637B68202283F83D207B680022C2
:103D600083F83E207B681B6C43F004027B681A6476
:103D70007B68002283F83C20012300E000231846E2
:103D80000C37BD4680BC704780B586B000AF786008
:103D90007B68002B01D101236CE27B681B6803F078
:103DA0000103002B00F08780924B5B6803F00C034B
:103DB000042B0CD08F4B5B6803F00C03082B12D143
:103DC0008C4B5B6803F48033B3F5803F0BD1894B98
:103DD0001B6803F40033002B6CD07B685B68002BFE
:103DE00068D1012346E27B685B68B3F5803F06D16A
:103DF000804B1B687F4A43F4803313602EE07B685E
:103E00005B68002B0CD17B4B1B687A4A23F4803310
:103E10001360784B1B68774A23F4802313601DE0FE
:103E20007B685B68B3F5A02F0CD1724B1B68714A9D
:103E300043F4802313606F4B1B686E4A43F4803356
:103E400013600BE06B4B1B686A4A23F480331360EA
:103E5000684B1B68674A23F4802313607B685B68A8
:103E6000002B13D0FEF768FD386108E0FEF764FD13
:103E700002463B69D31A642B01D90323FAE15D4B57
:103E80001B6803F40033002BF0D014E0FEF754FD60
:103E9000386108E0FEF750FD02463B69D31A642BF7
:103EA00001D90323E6E1534B1B6803F40033002BD5
:103EB000F0D100E000BF7B681B6803F00203002B19
:103EC00063D04C4B5B6803F00C03002B0BD0494BC9
:103ED0005B6803F00C03082B1CD1464B5B6803F4B2
:103EE0008033002B16D1434B1B6803F00203002BD9
:103EF00005D07B681B69012B01D00123BAE13D4B42
:103F00001B6823F0F8027B685B69DB0039491343C7
:103F10000B603AE07B681B69002B20D0364B0122F6
:103F20001A60FEF709FD386108E0FEF705FD02465C
:103F30003B69D31A022B01D903239BE12D4B1B684C
:103F400003F00203002BF0D02A4B1B6823F0F80289
:103F50007B685B69DB00274913430B6015E0264B48
:103F600000221A60FEF7E8FC386108E0FEF7E4FC86
:103F700002463B69D31A022B01D903237AE11D4B78
:103F80001B6803F00203002BF0D17B681B6803F071
:103F90000803002B3AD07B689B69002B19D0174B84
:103FA00001221A60FEF7C8FC386108E0FEF7C4FC85
:103FB00002463B69D31A022B01D903235AE10D4B68
:103FC0005B6A03F00203002BF0D0012000F0DAFA64
:103FD0001CE00A4B00221A60FEF7AEFC38610FE0CD
:103FE000FEF7AAFC02463B69D31A022B08D9032329
:103FF00040E100BF00100240000042428004424203
:104000009E4B5B6A03F00203002BE9D17B681B68BF
:1040100003F00403002B00F0A6800023FB75974BF0
:10402000DB6903F08053002B0DD1944BDB69934A7D
:1040300043F08053D361914BDB6903F08053BB6045
:10404000BB680123FB758E4B1B6803F48073002B48
:1040500018D18B4B1B688A4A43F480731360FEF7B8
:104060006BFC386108E0FEF767FC02463B69D31A37
:10407000642B01D90323FDE0814B1B6803F480739B
:10408000002BF0D07B68DB68012B06D17B4B1B6AD1
:104090007A4A43F0010313622DE07B68DB68002B52
:1040A0000CD1764B1B6A754A23F001031362734BE4
:1040B0001B6A724A23F0040313621CE07B68DB680E
:1040C000052B0CD16D4B1B6A6C4A43F00403136241
:1040D0006A4B1B6A694A43F0010313620BE0674BAA
:1040E0001B6A664A23F001031362644B1B6A634A2E
:1040F00023F0040313627B68DB68002B15D0FEF706
:104100001BFC38610AE0FEF717FC02463B69D31A34
:1041100041F28832934201D90323ABE0574B1B6A2B
:1041200003F00203002BEED014E0FEF705FC38612B
:104130000AE0FEF701FC02463B69D31A41F28832DD
:10414000934201D9032395E04C4B1B6A03F0020311
:10415000002BEED1FB7D012B05D1484BDB69474A93
:1041600023F08053D3617B68DB69002B00F08180F2
:10417000424B5B6803F00C03082B61D07B68DB6962
:10418000022B46D13F4B00221A60FEF7D5FB386167
:1041900008E0FEF7D1FB02463B69D31A022B01D996
:1041A000032367E0354B1B6803F00073002BF0D14D
:1041B0007B681B6AB3F5803F08D1304B5B6823F402
:1041C00000327B689B682D4913434B602B4B5B6827
:1041D00023F474127B68196A7B685B6A0B43274976
:1041E00013434B60274B01221A60FEF7A5FB386191
:1041F00008E0FEF7A1FB02463B69D31A022B01D966
:10420000032337E01D4B1B6803F00073002BF0D035
:104210002FE01C4B00221A60FEF78EFB386108E08D
:10422000FEF78AFB02463B69D31A022B01D903230E
:1042300020E0124B1B6803F00073002BF0D118E054
:104240007B68DB69012B01D1012313E00B4B5B6819
:10425000FB60FB6803F480327B681B6A9A4206D1DC
:10426000FB6803F470127B685B6A9A4201D00123F9
:1042700000E0002318461837BD4680BD00100240FC
:10428000007000406000424280B584B000AF7860AA
:1042900039607B68002B01D10123D0E06A4B1B6899
:1042A00003F007033A689A4210D9674B1B6823F062
:1042B000070265493B6813430B60634B1B6803F0BF
:1042C00007033A689A4201D00123B8E07B681B6873
:1042D00003F00203002B20D07B681B6803F004036B
:1042E000002B05D0594B5B68584A43F4E063536098
:1042F0007B681B6803F00803002B05D0534B5B68F9
:10430000524A43F460535360504B5B6823F0F00211
:104310007B689B684D4913434B607B681B6803F0C7
:104320000103002B40D07B685B68012B07D1474B12
:104330001B6803F40033002B15D101237FE07B6859
:104340005B68022B07D1414B1B6803F00073002B05
:1043500009D1012373E03D4B1B6803F00203002BDE
:1043600001D101236BE0394B5B6823F003027B68CA
:104370005B68364913434B60FEF7DEFAF8600AE0EB
:10438000FEF7DAFA0246FB68D31A41F2883293420A
:1043900001D9032353E02D4B5B6803F00C027B68CB
:1043A0005B689B009A42EBD1274B1B6803F0070325
:1043B0003A689A4210D2244B1B6823F00702224924
:1043C0003B6813430B60204B1B6803F007033A68FC
:1043D0009A4201D0012332E07B681B6803F004039A
:1043E000002B08D0194B5B6823F4E0627B68DB6824
:1043F000164913434B607B681B6803F00803002BCE
:1044000009D0124B5B6823F460527B681B69DB00A8
:104410000E4913434B6000F021F801460B4B5B68DB
:104420001B0903F00F030A4AD35C21FA03F3094A7C
:104430001360094B1B681846FEF73CFA0023184628
:104440001037BD4680BD00BF002002400010024072
:10445000CC580008000000200400002090B48AB06E
:1044600000AF2A4B3C1D0FCB84E80F00284B1B8864
:104470003B800023FB610023BB6100237B620023A0
:104480007B6100233B62234B5B68FB61FB6903F0AC
:104490000C03042B02D0082B03D02DE01E4B3B62F3
:1044A0002DE0FB699B0C03F00F0307F12802134476
:1044B00013F8243C7B61FB6903F48033002B13D099
:1044C000144B5B685B0C03F0010307F128021344F3
:1044D00013F8283CBB617B690F4A02FB03F2BB69FE
:1044E000B2FBF3F37B6204E07B690C4A02FB03F34B
:1044F0007B627B6A3B6202E0074B3B6200BF3B6A28
:1045000018462837BD4690BC704700BFB858000811
:10451000C85800080010024000127A0000093D004F
:1045200080B400AF024B1B681846BD4680BC704784
:104530000000002080B500AFFFF7F2FF0146054BF9
:104540005B681B0A03F00703034AD35C21FA03F3F9
:10455000184680BD00100240DC58000880B500AF4E
:10456000FFF7DEFF0146054B5B68DB0A03F007033C
:10457000034AD35C21FA03F3184680BD00100240C1
:10458000DC58000880B485B000AF78600A4B1B6827
:104590000A4AA2FB03235B0A7A6802FB03F3FB606F
:1045A00000BFFB685A1EFA60002BF9D100BF143718
:1045B000BD4680BC704700BF00000020D34D621094
:1045C00080B582B000AF78607B68002B01D10123F9
:1045D0003FE07B6893F83930DBB2002B06D17B6873
:1045E000002283F838207868FEF71AF87B682422C6
:1045F00083F839207B681B68DA687B681B6822F4C3
:104600000052DA60786800F0B1F97B681B681A69BB
:104610007B681B6822F490421A617B681B685A69A8
:104620007B681B6822F02A025A617B681B68DA6883
:104630007B681B6842F40052DA607B680022DA6310
:104640007B68202283F839207B68202283F83A2077
:10465000002318460837BD4680BD80B588B002AF3C
:10466000F860B9603B601346FB8000237B61FB6808
:1046700093F83930DBB2202B40F08380BB68002BED
:1046800002D0FB88002B01D101237BE0FB6893F86B
:104690003830012B01D1022374E0FB68012283F83A
:1046A0003820FB680022DA63FB68212283F8392076
:1046B000FEF742F97861FB68FA889A84FB68FA8809
:1046C000DA8442E0FB68DB8C9BB2013B9AB2FB6868
:1046D000DA84FB689B68B3F5805F22D13B68009366
:1046E0007B6900228021F86800F0F6F80346002B71
:1046F00001D0032346E0BB683B613B691B881A4637
:10470000FB681B68C2F308025A60FB681B69002B38
:1047100003D1BB680233BB6017E0BB680133BB60E9
:1047200013E03B6800937B6900228021F86800F069
:10473000D3F80346002B01D0032323E0BB685A1CA7
:10474000BA601A78FB681B685A60FB68DB8C9BB206
:10475000002BB7D13B6800937B6900224021F868A9
:1047600000F0BAF80346002B01D003230AE0FB68EF
:10477000202283F83920FB68002283F838200023A8
:1047800000E0022318461837BD4680BD80B588B0CA
:1047900002AFF860B9603B601346FB8000237B6189
:1047A000FB6893F83A30DBB2202B40F09080BB6876
:1047B000002B02D0FB88002B01D1012388E0FB688D
:1047C00093F83830012B01D1022381E0FB680122EC
:1047D00083F83820FB680022DA63FB68222283F822
:1047E0003A20FEF7A9F87861FB68FA889A85FB6899
:1047F000FA88DA855CE0FB68DB8D9BB2013B9AB2FC
:10480000FB68DA85FB689B68B3F5805F2BD13B685A
:1048100000937B6900222021F86800F05DF80346D0
:10482000002B01D0032353E0BB683B61FB681B698D
:10483000002B0CD1FB681B685B689BB2C3F30803B9
:104840009AB23B691A80BB680233BB6030E0FB68F8
:104850001B685B689BB2DBB29AB23B691A80BB688B
:104860000133BB6024E03B6800937B690022202178
:10487000F86800F031F80346002B01D0032327E04D
:10488000FB681B69002B08D1FB681B685968BB6873
:104890005A1CBA60CAB21A700AE0FB681B685B68EF
:1048A000DAB2BB68591CB96002F07F02D2B21A704A
:1048B000FB68DB8D9BB2002B9DD1FB68202283F827
:1048C0003A20FB68002283F83820002300E002230E
:1048D00018461837BD4680BD80B584B000AFF8607B
:1048E000B9603B601346FB712CE0BB69B3F1FF3F3D
:1048F00028D0BB69002B07D0FEF71EF802463B68A4
:10490000D31ABA699A421DD2FB681B68DA68FB6841
:104910001B6822F4D072DA60FB681B685A69FB6876
:104920001B6822F001025A61FB68202283F83920BB
:10493000FB68202283F83A20FB68002283F83820A5
:1049400003230FE0FB681B681A68BB681340BA6852
:104950009A420CBF01230023DBB21A46FB799A422C
:10496000C3D0002318461037BD4680BD80B584B043
:1049700000AF78607B681B681B6923F440517B683B
:10498000DA687B681B680A431A617B689A687B68EF
:104990001B691A437B685B691343FB607B681B6878
:1049A000DB6823F4B05323F00C037A681268F968CB
:1049B0000B43D3607B681B685B6923F440717B68A1
:1049C0009A697B681B680A435A617B681B68524A74
:1049D00093424ED1FFF7C2FDB860BA6813469B0000
:1049E00013449A001A447B685B689B00B2FBF3F3A4
:1049F0004A4AA2FB03235B091901BA6813469B00CC
:104A000013449A001A447B685B689B00B2FBF3F284
:104A1000424BA3FB02035B09642000FB03F3D31AA0
:104A20001B0132333D4AA2FB03235B0903F0F00371
:104A30001944BA6813469B0013449A001A447B68D1
:104A40005B689B00B2FBF3F2344BA3FB02035B09F0
:104A5000642000FB03F3D31A1B0132332F4AA2FB5D
:104A600003235B0903F00F027B681B680A449A600A
:104A70004DE0FFF75FFDB860BA6813469B00134432
:104A80009A001A447B685B689B00B2FBF3F3234AED
:104A9000A2FB03235B091901BA6813469B00134468
:104AA0009A001A447B685B689B00B2FBF3F21B4BD5
:104AB000A3FB02035B09642000FB03F3D31A1B0171
:104AC0003233164AA2FB03235B0903F0F0031944B7
:104AD000BA6813469B0013449A001A447B685B68CB
:104AE0009B00B2FBF3F20D4BA3FB02035B096420B6
:104AF00000FB03F3D31A1B013233084AA2FB032342
:104B00005B0903F00F027B681B680A449A6000BFD0
:104B10001037BD4680BD00BF003801401F85EB51F6
:104B2000014B1868704700BF0C00002070B50025CD
:104B30000C4E0D4CA41BA410A54209D100F072FC30
:104B400000250A4E0A4CA41BA410A54205D170BD35
:104B500056F8253098470135EEE756F82530984746
:104B60000135F2E7205900082059000820590008B3
:104B70002459000803460244934200D1704703F8C9
:104B8000011BF9E70EB46FF0004100B59CB01DABFE
:104B900002900690079104910848094953F8042BA4
:104BA0000591006802A9019300F080F80022029BA1
:104BB0001A701CB05DF804EB03B070470C000020C5
:104BC0000802FFFFF0B503787BB104462378204646
:104BD000661C7BB14A1E631E12F8015F4DB113F8CB
:104BE000017F3446AF42F7D0F0E70B78002B18BFB7
:104BF0000020F0BD1846FCE72DE9F0478E6882469C
:104C00009E420C469046994637D88A8912F4906F96
:104C100031D00223256809696F1A656905EB4505DE
:104C200095FBF3F509F101033B449D4238BF1D4656
:104C3000530530D5294600F037FB064650B90C2302
:104C40004FF0FF30CAF80030A38943F04003A3813E
:104C5000BDE8F0873A46216900F0B6FAA38923F44B
:104C6000906343F08003A38126613E4426604E4654
:104C70006561ED1BA5604E4500D94E463246414662
:104C8000206800F0ACFAA36800209B1BA360236897
:104C90001E442660DCE72A4600F060FB064600283A
:104CA000E2D12169504600F0B3FAC8E72DE9F04F90
:104CB0001D468B899DB01F0680460C4616460FD5B3
:104CC0000B696BB9402100F0EFFA2060206128B930
:104CD0000C23C8F800304FF0FF30C8E04023636178
:104CE0000023099320238DF8293030234FF0010B46
:104CF0008DF82A30039537463D4615F8013B0BB138
:104D0000252B3ED1B7EB060A0BD05346324621463F
:104D10004046FFF771FF013000F0A480099B534427
:104D200009933B78002B00F09D8000234FF0FF3269
:104D3000CDE90523049307938DF853301A932F463A
:104D4000052217F8011B504800F030FA049BD0B937
:104D5000D90644BF20228DF853201A0744BF2B22C6
:104D60008DF853202A782A2A15D02F4600200A25AC
:104D7000079A394611F8013B303B092B4DD9B8B1A0
:104D80000FE02F46B8E7404A3D46801A0BFA00F084
:104D900018430490D3E7039A111D12680391002A67
:104DA00001DB079204E0524243F0020307920493AE
:104DB0003B782E2B0CD17B782A2B33D1039B0237E7
:104DC0001A1D1B680392002BB8BF4FF0FF330593E9
:104DD0002E4D03223978284600F0E8F938B14023F7
:104DE000401B03FA00F0049B013703430493397816
:104DF000062227487E1C8DF8281000F0D7F90028DD
:104E000038D0244B13BB039B073323F0070308332D
:104E10000393099B4B4409936DE705FB0232012084
:104E20000F46A6E700230A251946013705933846A1
:104E300010F8012B303A092A03D9002BC8D005916C
:104E4000C6E705FB012101230746F0E703AB00930A
:104E50002246114B04A94046AFF30080B0F1FF3F5A
:104E60008146D6D1A3895B063FF535AF09981DB0C1
:104E7000BDE8F08F03AB00932246074B04A94046E0
:104E800000F082F8EAE700BFE4580008EA5800089A
:104E9000EE58000800000000F94B00082DE9F0472B
:104EA00091461F468A680B6906469342B8BF13466F
:104EB000C9F8003091F843200C46DDF8208012B18B
:104EC0000133C9F800302368990642BFD9F8003091
:104ED0000233C9F80030256815F0060507D104F142
:104EE000190AE368D9F800209B1AAB4229DC94F830
:104EF00043302268003318BF012392062ED404F1F8
:104F0000430239463046C047013021D02368E56866
:104F100003F00603042B18BF0025D9F800204FF03A
:104F2000000908BFAD1AA368226908BF25EAE57524
:104F30009342C4BF9B1AED181A344D451AD1002074
:104F400008E00123524639463046C047013003D1BC
:104F50004FF0FF30BDE8F0870135C2E73020E1189F
:104F600081F843005A1C94F845102244023382F819
:104F70004310C4E70123224639463046C04701307A
:104F8000E6D009F10109D8E72DE9F04301F1430C1E
:104F90000C46097E85B06E291746064698460C9A3F
:104FA00000F0B38022D8632936D00AD8002900F057
:104FB000B980582900F0838004F1420584F842103A
:104FC00032E0642901D06929F6D12068136805060A
:104FD00003F104012AD51B681160002B03DA2D228E
:104FE0005B4284F843206F480A2239E0732900F0BD
:104FF0009D8008D86F2920D07029DDD1236843F027
:105000002003236003E0752917D07829D4D17823B1
:10501000654884F8453055E0136804F14205191DD0
:105020001B68116084F8423001238CE01B6810F08B
:10503000400F116018BF1BB2CFE713682568181D19
:105040001060280601D51B6802E06806FBD51B88A6
:105050006F2914BF0A2208225248002184F8431005
:105060006568002DA560C0F29580216821F00401DB
:105070002160002B3DD1002D40F08E806546082A2E
:105080000BD12368DB0708D5236962689A42DEBF2B
:10509000302305F8013C05F1FF35ACEB0503236136
:1050A000CDF800803B4603AA21463046FFF7F6FEC6
:1050B00001304DD14FF0FF3005B0BDE8F0833948E5
:1050C00084F84510136821681D1D1B6815600A06C9
:1050D0000BD5CA0744BF41F0200121601BB92268EB
:1050E00022F0200222601022B7E74D0648BF9BB293
:1050F000EFE76546B3FBF2F102FB1133C35C05F841
:10510000013D0B460029F5D1B9E713682568181D44
:105110006169106028061B6801D5196002E06A0603
:10512000FBD51980002365462361B9E71368191D73
:1051300011601D6862680021284600F037F808B148
:10514000401B606063682361002384F84330A7E755
:1051500023692A4639463046C0470130AAD0236821
:105160009B0713D4E068039B9842B8BF1846A3E797
:1051700001234A4639463046C04701309AD00135AE
:10518000E368039A9B1AAB42F2DCEBE7002504F1DB
:105190001909F5E7002BACD1037804F1420584F836
:1051A00042306CE7F55800080659000810B5C9B23E
:1051B00002449042034601D1002303E01C780130F1
:1051C0008C42F6D1184610BD10B5431E0A449142D8
:1051D00000D110BD11F8014B03F8014FF7E78842E9
:1051E00010B501EB020307D8421E99420AD011F80C
:1051F000014B02F8014FF8E78342F5D98118D21A22
:10520000D34200D110BD13F8014D01F8014DF7E76D
:1052100038B50546002943D051F8043C0C1F002B3B
:10522000B8BFE41800F0D0F81E4A1368104633B92E
:10523000636014602846BDE8384000F0C6B8A34259
:105240000BD921686218934201BF1A685B68521833
:10525000226063600460EDE713465A680AB1A24217
:10526000FAD919685818A0420BD12068014458187F
:1052700082421960DED110685268014419605A6098
:10528000D8E702D90C232B60D4E7206821188A4282
:1052900001BF116852680918216062605C60C9E74B
:1052A00038BD00BF9000002070B5CD1C25F003056F
:1052B00008350C2D38BF0C25002D064601DBA94210
:1052C00003D90C233360002070BD00F07DF8214A23
:1052D0001468214691B9204C23681BB9304600F070
:1052E00063F820602946304600F05EF8431C24D164
:1052F0000C233046336000F068F8E4E70B685B1B72
:1053000018D40B2B0FD90B60CC18CD50304600F0C1
:105310005CF804F10B00231D20F00700C31AD3D062
:105320005A42E250D0E74B688C4216BF636013606C
:105330000C46EBE70C464968CCE7C41C24F0030498
:10534000A04205D0211A304600F02EF80130CFD00F
:105350002560DBE79000002094000020F8B50746A8
:1053600014460E4621B9BDE8F8401146FFF79CBF30
:1053700022B9FFF74DFF25462846F8BD00F026F874
:10538000A0420FD221463846FFF78EFF054600287F
:10539000F2D031462246FFF717FF31463846FFF775
:1053A00037FFE9E73546E7E738B50023054C054602
:1053B00008462360FDF7E2F9431C02D1236803B1DC
:1053C0002B6038BDB40A00207047704751F8043C88
:1053D000181F002BBCBF0B58C0187047C0F3C75331
:1053E0007F3B162B10B5014614DC002B07DA013386
:1053F00000F0004101D141F07E51084610BD084A3D
:105400001A411042F9D04FF480011941014421EAB8
:105410000201F2E7802BF0D1FBF7C6FA0146ECE778
:10542000FFFF7F00F8B500BFF8BC08BC9E46704780
:0C543000F8B500BFF8BC08BC9E467047F1
:10543C005B204552524F52205D20493243785F57D2
:10544C0072697465446174613A2048414C5F493219
:10545C00435F4D656D5F57726974650A000000000B
:10546C005B204552524F52205D20493243785F52A7
:10547C00656164446174613A2048414C5F49324330
:10548C005F4D656D5F526561640000005B204552A5
:10549C00524F52205D20493243785F52656164441B
:1054AC0061746131363A2048414C5F4932435F4D5B
:1054BC00656D5F52656164005B204552524F52200E
:1054CC005D20493243785F52656164446174613296
:1054DC00343A2048414C5F4932435F4D656D5F5211
:1054EC00656164005B204552524F52205D20424D55
:1054FC004532383020496E69743A20496E76616CB9
:10550C0069642049440A00005B204F4B205D204217
:10551C004D453238305F494E49540A0041542B43B3
:10552C00574C41500D0A00004552524F520000009A
:10553C005B204552524F52205D2045535038323635
:10554C00365F4745545F4143434553535F504F4982
:10555C004E5453004F4B000041542B5253540D0AE0
:10556C00000000005B204552524F52205D204553F5
:10557C0050383236365F5245535441525400000075
:10558C005B204F4B205D20455350383236365F52EE
:10559C004553544152540A000A00000041540D0A6C
:1055AC00000000005B204552524F52205D204553B5
:1055BC0050383236365F544553545F4552524F5231
:1055CC00000000005B204F4B205D204553503832CB
:1055DC0036365F544553540A00000000415445319F
:1055EC000D0A00005B204552524F52205D2045535E
:1055FC0050383236365F454E41424C455F45434844
:10560C004F5F4552524F52005B204F4B205D20455F
:10561C005350383236365F454E41424C455F454318
:10562C00484F0A00415445300D0A00005B2045529A
:10563C00524F52205D20455350383236365F444924
:10564C005341424C455F4543484F5F4552524F5280
:10565C00000000005B204F4B205D2045535038323A
:10566C0036365F44495341424C455F4543484F0AE7
:10567C000000000041542B43574A41505F435552A0
:10568C003D222573222C222573220D0A00000000D6
:10569C005B204552524F52205D20436F6E6E656306
:1056AC007420746F2025730A000000005749464986
:1056BC0020474F54204950005B204F4B205D204326
:1056CC006F6E6E65637420746F2025730A00000082
:1056DC0041542B43575141500D0A00005B20455259
:1056EC00524F52205D20455350383236365F574961
:1056FC0046495F444953434F4E4E4543545F4552D0
:10570C00524F52005B204F4B205D20455350383296
:10571C0036365F574946495F444953434F4E4E45D1
:10572C0043540A0041542B43495053544152543D65
:10573C00222573222C222573222C25640D0A0000AD
:10574C005B204552524F52205D2045535038323623
:10575C00365F41545F43495053544152545F455254
:10576C00524F52005B204F4B205D20455350383236
:10577C0036365F41545F43495053544152540A00EA
:10578C0041542B43495053454E443D25640D0A006A
:10579C005B204552524F52205D20455350383236D3
:1057AC00365F41545F43495053454E445F45525216
:1057BC004F5200005B204F4B205D20455350383238
:1057CC0036365F41545F43495053454E440A0000FE
:1057DC0025730D0A000000005B204552524F5220E9
:1057EC005D20455350383236365F53454E445F5238
:1057FC004551554553545F4552524F5200000000DD
:10580C005B204F4B205D20455350383236365F536A
:10581C00454E445F524551554553540A0000000013
:10582C005B204F4B205D2053746172740A000000A2
:10583C0033313035766C616433303130766C616481
:10584C00610000004D455243555359535F37454253
:10585C0041000000474554202F77656174686572DC
:10586C0053746174696F6E2F6164645765617468F9
:10587C0065722E7068703F743D256426683D256402
:10588C0026703D25640000003139322E3136382E19
:10589C00312E313032000000544350005B204F4B0E
:1058AC00205D20446F6E650A0000000002030405B1
:1058BC00060708090A0B0C0D0E0F10100102000050
:1058CC0000000000000000000102030406070809A4
:1058DC000000000001020304232D302B2000686C13
:1058EC004C006566674546470030313233343536F7
:1058FC003738394142434445460030313233343530
:0C590C003637383961626364656600005C
:085918002CB6FF7F0100000026
:045920003501000845
:045924001101000865
:105928000024F40010000000010000001000002016
:10593800000000000000000000000000000000005F
:10594800000000000000000000000000000000004F
:10595800000000000000000000000000000000003F
:10596800000000000000000000000000000000002F
:10597800000000000000000000000000000000001F
:10598800000000000000000000000000000000000F
:040000050800283D8A
:00000001FF
